{
	"src/contracts/WrappedAgToken.sol": {
		"WrappedAgToken": {
			"abi": [
				{
					"inputs": [
						{
							"internalType": "string",
							"name": "tokenName",
							"type": "string"
						},
						{
							"internalType": "string",
							"name": "tokenSymbol",
							"type": "string"
						},
						{
							"internalType": "uint8",
							"name": "tokenDecimals",
							"type": "uint8"
						},
						{
							"internalType": "address",
							"name": "_underlyingAgToken",
							"type": "address"
						},
						{
							"internalType": "address",
							"name": "_interestCollector",
							"type": "address"
						},
						{
							"internalType": "address",
							"name": "governanceAddress",
							"type": "address"
						}
					],
					"stateMutability": "nonpayable",
					"type": "constructor"
				},
				{
					"anonymous": false,
					"inputs": [
						{
							"indexed": true,
							"internalType": "address",
							"name": "owner",
							"type": "address"
						},
						{
							"indexed": true,
							"internalType": "address",
							"name": "spender",
							"type": "address"
						},
						{
							"indexed": false,
							"internalType": "uint256",
							"name": "amount",
							"type": "uint256"
						}
					],
					"name": "Approval",
					"type": "event"
				},
				{
					"anonymous": false,
					"inputs": [
						{
							"indexed": false,
							"internalType": "uint256",
							"name": "amount",
							"type": "uint256"
						}
					],
					"name": "Claimed",
					"type": "event"
				},
				{
					"anonymous": false,
					"inputs": [
						{
							"indexed": true,
							"internalType": "address",
							"name": "from",
							"type": "address"
						},
						{
							"indexed": false,
							"internalType": "uint256",
							"name": "amount",
							"type": "uint256"
						}
					],
					"name": "Deposit",
					"type": "event"
				},
				{
					"anonymous": false,
					"inputs": [
						{
							"indexed": true,
							"internalType": "address",
							"name": "from",
							"type": "address"
						},
						{
							"indexed": true,
							"internalType": "address",
							"name": "to",
							"type": "address"
						},
						{
							"indexed": false,
							"internalType": "uint256",
							"name": "amount",
							"type": "uint256"
						}
					],
					"name": "Transfer",
					"type": "event"
				},
				{
					"anonymous": false,
					"inputs": [
						{
							"indexed": true,
							"internalType": "address",
							"name": "to",
							"type": "address"
						},
						{
							"indexed": false,
							"internalType": "uint256",
							"name": "amount",
							"type": "uint256"
						}
					],
					"name": "Withdrawal",
					"type": "event"
				},
				{
					"inputs": [],
					"name": "DOMAIN_SEPARATOR",
					"outputs": [
						{
							"internalType": "bytes32",
							"name": "",
							"type": "bytes32"
						}
					],
					"stateMutability": "view",
					"type": "function"
				},
				{
					"inputs": [],
					"name": "POOL",
					"outputs": [
						{
							"internalType": "contract ILendingPool",
							"name": "",
							"type": "address"
						}
					],
					"stateMutability": "view",
					"type": "function"
				},
				{
					"inputs": [
						{
							"internalType": "address",
							"name": "",
							"type": "address"
						},
						{
							"internalType": "address",
							"name": "",
							"type": "address"
						}
					],
					"name": "allowance",
					"outputs": [
						{
							"internalType": "uint256",
							"name": "",
							"type": "uint256"
						}
					],
					"stateMutability": "view",
					"type": "function"
				},
				{
					"inputs": [
						{
							"internalType": "address",
							"name": "spender",
							"type": "address"
						},
						{
							"internalType": "uint256",
							"name": "amount",
							"type": "uint256"
						}
					],
					"name": "approve",
					"outputs": [
						{
							"internalType": "bool",
							"name": "",
							"type": "bool"
						}
					],
					"stateMutability": "nonpayable",
					"type": "function"
				},
				{
					"inputs": [
						{
							"internalType": "address",
							"name": "",
							"type": "address"
						}
					],
					"name": "balanceOf",
					"outputs": [
						{
							"internalType": "uint256",
							"name": "",
							"type": "uint256"
						}
					],
					"stateMutability": "view",
					"type": "function"
				},
				{
					"inputs": [],
					"name": "claim",
					"outputs": [],
					"stateMutability": "nonpayable",
					"type": "function"
				},
				{
					"inputs": [],
					"name": "decimals",
					"outputs": [
						{
							"internalType": "uint8",
							"name": "",
							"type": "uint8"
						}
					],
					"stateMutability": "view",
					"type": "function"
				},
				{
					"inputs": [
						{
							"internalType": "uint256",
							"name": "amount",
							"type": "uint256"
						}
					],
					"name": "deposit",
					"outputs": [],
					"stateMutability": "nonpayable",
					"type": "function"
				},
				{
					"inputs": [],
					"name": "interestCollector",
					"outputs": [
						{
							"internalType": "address",
							"name": "",
							"type": "address"
						}
					],
					"stateMutability": "view",
					"type": "function"
				},
				{
					"inputs": [],
					"name": "manager",
					"outputs": [
						{
							"internalType": "address",
							"name": "",
							"type": "address"
						}
					],
					"stateMutability": "view",
					"type": "function"
				},
				{
					"inputs": [],
					"name": "name",
					"outputs": [
						{
							"internalType": "string",
							"name": "",
							"type": "string"
						}
					],
					"stateMutability": "view",
					"type": "function"
				},
				{
					"inputs": [
						{
							"internalType": "address",
							"name": "",
							"type": "address"
						}
					],
					"name": "nonces",
					"outputs": [
						{
							"internalType": "uint256",
							"name": "",
							"type": "uint256"
						}
					],
					"stateMutability": "view",
					"type": "function"
				},
				{
					"inputs": [
						{
							"internalType": "address",
							"name": "owner",
							"type": "address"
						},
						{
							"internalType": "address",
							"name": "spender",
							"type": "address"
						},
						{
							"internalType": "uint256",
							"name": "value",
							"type": "uint256"
						},
						{
							"internalType": "uint256",
							"name": "deadline",
							"type": "uint256"
						},
						{
							"internalType": "uint8",
							"name": "v",
							"type": "uint8"
						},
						{
							"internalType": "bytes32",
							"name": "r",
							"type": "bytes32"
						},
						{
							"internalType": "bytes32",
							"name": "s",
							"type": "bytes32"
						}
					],
					"name": "permit",
					"outputs": [],
					"stateMutability": "nonpayable",
					"type": "function"
				},
				{
					"inputs": [],
					"name": "reserveAsset",
					"outputs": [
						{
							"internalType": "address",
							"name": "",
							"type": "address"
						}
					],
					"stateMutability": "view",
					"type": "function"
				},
				{
					"inputs": [
						{
							"internalType": "address",
							"name": "newCollector",
							"type": "address"
						}
					],
					"name": "setInterestCollector",
					"outputs": [],
					"stateMutability": "nonpayable",
					"type": "function"
				},
				{
					"inputs": [
						{
							"internalType": "address",
							"name": "newManager",
							"type": "address"
						}
					],
					"name": "setManager",
					"outputs": [],
					"stateMutability": "nonpayable",
					"type": "function"
				},
				{
					"inputs": [],
					"name": "symbol",
					"outputs": [
						{
							"internalType": "string",
							"name": "",
							"type": "string"
						}
					],
					"stateMutability": "view",
					"type": "function"
				},
				{
					"inputs": [],
					"name": "totalSupply",
					"outputs": [
						{
							"internalType": "uint256",
							"name": "",
							"type": "uint256"
						}
					],
					"stateMutability": "view",
					"type": "function"
				},
				{
					"inputs": [
						{
							"internalType": "address",
							"name": "to",
							"type": "address"
						},
						{
							"internalType": "uint256",
							"name": "amount",
							"type": "uint256"
						}
					],
					"name": "transfer",
					"outputs": [
						{
							"internalType": "bool",
							"name": "",
							"type": "bool"
						}
					],
					"stateMutability": "nonpayable",
					"type": "function"
				},
				{
					"inputs": [
						{
							"internalType": "address",
							"name": "from",
							"type": "address"
						},
						{
							"internalType": "address",
							"name": "to",
							"type": "address"
						},
						{
							"internalType": "uint256",
							"name": "amount",
							"type": "uint256"
						}
					],
					"name": "transferFrom",
					"outputs": [
						{
							"internalType": "bool",
							"name": "",
							"type": "bool"
						}
					],
					"stateMutability": "nonpayable",
					"type": "function"
				},
				{
					"inputs": [],
					"name": "underlyingAgToken",
					"outputs": [
						{
							"internalType": "contract IAgToken",
							"name": "",
							"type": "address"
						}
					],
					"stateMutability": "view",
					"type": "function"
				},
				{
					"inputs": [
						{
							"internalType": "uint256",
							"name": "amount",
							"type": "uint256"
						}
					],
					"name": "withdraw",
					"outputs": [],
					"stateMutability": "nonpayable",
					"type": "function"
				},
				{
					"stateMutability": "payable",
					"type": "receive"
				}
			],
			"devdoc": {
				"author": "Luigy-Lemon (https://github.com/Rari-Capital/solmate/blob/main/src/tokens/WETH.sol)Inspired by Solmate WETH (https://github.com/Rari-Capital/solmate/blob/main/src/tokens/WETH.sol)",
				"kind": "dev",
				"methods": {},
				"version": 1
			},
			"evm": {
				"assembly": "    /* \"src/contracts/WrappedAgToken.sol\":552:3406  contract WrappedAgToken is ERC20 {... */\n  mstore(0x40, 0xe0)\n    /* \"src/contracts/WrappedAgToken.sol\":872:873  0 */\n  0x00\n    /* \"src/contracts/WrappedAgToken.sol\":849:873  uint256 userDeposits = 0 */\n  0x06\n  sstore\n    /* \"src/contracts/WrappedAgToken.sol\":1049:1509  constructor(... */\n  callvalue\n  dup1\n  iszero\n  tag_1\n  jumpi\n  0x00\n  dup1\n  revert\ntag_1:\n  pop\n  mload(0x40)\n  sub(codesize, bytecodeSize)\n  dup1\n  bytecodeSize\n  dup4\n  codecopy\n  dup2\n  add\n  0x40\n  dup2\n  swap1\n  mstore\n  tag_2\n  swap2\n  tag_3\n  jump\t// in\ntag_2:\n    /* \"src/contracts/WrappedAgToken.sol\":1251:1260  tokenName */\n  dup6\n    /* \"src/contracts/WrappedAgToken.sol\":1262:1273  tokenSymbol */\n  dup6\n    /* \"src/contracts/WrappedAgToken.sol\":1275:1288  tokenDecimals */\n  dup6\n    /* \"lib/solmate/src/tokens/ERC20.sol\":2098:2103  _name */\n  dup3\n    /* \"lib/solmate/src/tokens/ERC20.sol\":2091:2095  name */\n  0x00\n    /* \"lib/solmate/src/tokens/ERC20.sol\":2091:2103  name = _name */\n  swap1\n  dup1\n  mload\n  swap1\n  0x20\n  add\n  swap1\n  tag_7\n  swap3\n  swap2\n  swap1\n  tag_8\n  jump\t// in\ntag_7:\n  pop\n    /* \"lib/solmate/src/tokens/ERC20.sol\":2113:2129  symbol = _symbol */\n  dup2\n  mload\n  tag_9\n  swap1\n    /* \"lib/solmate/src/tokens/ERC20.sol\":2113:2119  symbol */\n  0x01\n  swap1\n    /* \"lib/solmate/src/tokens/ERC20.sol\":2113:2129  symbol = _symbol */\n  0x20\n  dup6\n  add\n  swap1\n  tag_8\n  jump\t// in\ntag_9:\n  pop\n    /* \"lib/solmate/src/tokens/ERC20.sol\":2139:2159  decimals = _decimals */\n  0xff\n  dup2\n  and\n  0x80\n  mstore\n    /* \"lib/solmate/src/tokens/ERC20.sol\":2189:2202  block.chainid */\n  chainid\n    /* \"lib/solmate/src/tokens/ERC20.sol\":2170:2202  INITIAL_CHAIN_ID = block.chainid */\n  0xa0\n  mstore\n    /* \"lib/solmate/src/tokens/ERC20.sol\":2239:2263  computeDomainSeparator() */\n  tag_10\n    /* \"lib/solmate/src/tokens/ERC20.sol\":2239:2261  computeDomainSeparator */\n  tag_11\n    /* \"lib/solmate/src/tokens/ERC20.sol\":2239:2263  computeDomainSeparator() */\n  jump\t// in\ntag_10:\n    /* \"lib/solmate/src/tokens/ERC20.sol\":2212:2263  INITIAL_DOMAIN_SEPARATOR = computeDomainSeparator() */\n  0xc0\n  mstore\n  pop\n  pop\n    /* \"src/contracts/WrappedAgToken.sol\":1296:1313  interestCollector */\n  0x08\n    /* \"src/contracts/WrappedAgToken.sol\":1296:1334  interestCollector = _interestCollector */\n  dup1\n  sload\n  sub(shl(0xa0, 0x01), 0x01)\n  swap5\n  dup6\n  and\n  not(sub(shl(0xa0, 0x01), 0x01))\n  swap2\n  dup3\n  and\n  or\n  swap1\n  swap2\n  sstore\n    /* \"src/contracts/WrappedAgToken.sol\":1340:1357  underlyingAgToken */\n  0x0a\n    /* \"src/contracts/WrappedAgToken.sol\":1340:1388  underlyingAgToken = IAgToken(_underlyingAgToken) */\n  dup1\n  sload\n  swap6\n  dup6\n  and\n  swap6\n  dup3\n  and\n  dup7\n  or\n  swap1\n  sstore\n    /* \"src/contracts/WrappedAgToken.sol\":1394:1398  POOL */\n  0x0b\n    /* \"src/contracts/WrappedAgToken.sol\":1394:1432  POOL = ILendingPool(governanceAddress) */\n  dup1\n  sload\n  swap4\n  swap1\n  swap5\n  and\n  swap3\n  dup2\n  and\n  dup4\n  or\n  swap1\n  swap4\n  sstore\n  pop\n    /* \"src/contracts/WrappedAgToken.sol\":1438:1450  reserveAsset */\n  0x09\n    /* \"src/contracts/WrappedAgToken.sol\":1438:1471  reserveAsset = _underlyingAgToken */\n  dup1\n  sload\n  dup4\n  and\n  swap1\n  swap4\n  or\n  swap1\n  swap3\n  sstore\n    /* \"src/contracts/WrappedAgToken.sol\":1477:1484  manager */\n  0x07\n    /* \"src/contracts/WrappedAgToken.sol\":1477:1504  manager = governanceAddress */\n  dup1\n  sload\n  swap1\n  swap2\n  and\n  swap1\n  swap2\n  or\n  swap1\n  sstore\n  pop\n    /* \"src/contracts/WrappedAgToken.sol\":552:3406  contract WrappedAgToken is ERC20 {... */\n  tag_34\n  swap2\n  pop\n  pop\n  jump\n    /* \"lib/solmate/src/tokens/ERC20.sol\":5507:5953  function computeDomainSeparator() internal view virtual returns (bytes32) {... */\ntag_11:\n    /* \"lib/solmate/src/tokens/ERC20.sol\":5572:5579  bytes32 */\n  0x00\n    /* \"lib/solmate/src/tokens/ERC20.sol\":5669:5764  keccak256(\"EIP712Domain(string name,string version,uint256 chainId,address verifyingContract)\") */\n  0x8b73c3c69bb8fe3d512ecc4cf759cc79239f7b179b0ffacaa9a75d522b39400f\n    /* \"lib/solmate/src/tokens/ERC20.sol\":5802:5806  name */\n  0x00\n    /* \"lib/solmate/src/tokens/ERC20.sol\":5786:5808  keccak256(bytes(name)) */\n  mload(0x40)\n  tag_15\n  swap2\n  swap1\n  tag_16\n  jump\t// in\ntag_15:\n  0x40\n  dup1\n  mload\n  swap2\n  dup3\n  swap1\n  sub\n  dup3\n  keccak256\n    /* \"lib/solmate/src/tokens/ERC20.sol\":5637:5932  abi.encode(... */\n  0x20\n  dup4\n  add\n    /* \"#utility.yul\":4075:4100   */\n  swap4\n  swap1\n  swap4\n  mstore\n    /* \"#utility.yul\":4116:4134   */\n  dup2\n  add\n    /* \"#utility.yul\":4109:4143   */\n  swap2\n  swap1\n  swap2\n  mstore\n    /* \"lib/solmate/src/tokens/ERC20.sol\":5830:5844  keccak256(\"1\") */\n  0xc89efdaa54c0f20c7adf612882df0950f5a951637e0307cdcb4c672f298b8bc6\n    /* \"#utility.yul\":4159:4177   */\n  0x60\n  dup3\n  add\n    /* \"#utility.yul\":4152:4186   */\n  mstore\n    /* \"lib/solmate/src/tokens/ERC20.sol\":5866:5879  block.chainid */\n  chainid\n    /* \"#utility.yul\":4202:4220   */\n  0x80\n  dup3\n  add\n    /* \"#utility.yul\":4195:4229   */\n  mstore\n    /* \"lib/solmate/src/tokens/ERC20.sol\":5909:5913  this */\n  address\n    /* \"#utility.yul\":4245:4264   */\n  0xa0\n  dup3\n  add\n    /* \"#utility.yul\":4238:4299   */\n  mstore\n    /* \"#utility.yul\":4047:4066   */\n  0xc0\n  add\n    /* \"lib/solmate/src/tokens/ERC20.sol\":5637:5932  abi.encode(... */\n  mload(0x40)\n  0x20\n  dup2\n  dup4\n  sub\n  sub\n  dup2\n  mstore\n  swap1\n  0x40\n  mstore\n    /* \"lib/solmate/src/tokens/ERC20.sol\":5610:5946  keccak256(... */\n  dup1\n  mload\n  swap1\n  0x20\n  add\n  keccak256\n    /* \"lib/solmate/src/tokens/ERC20.sol\":5591:5946  return... */\n  swap1\n  pop\n    /* \"lib/solmate/src/tokens/ERC20.sol\":5507:5953  function computeDomainSeparator() internal view virtual returns (bytes32) {... */\n  swap1\n  jump\t// out\n    /* \"src/contracts/WrappedAgToken.sol\":552:3406  contract WrappedAgToken is ERC20 {... */\ntag_8:\n  dup3\n  dup1\n  sload\n  tag_19\n  swap1\n  tag_20\n  jump\t// in\ntag_19:\n  swap1\n  0x00\n  mstore\n  keccak256(0x00, 0x20)\n  swap1\n  0x1f\n  add\n  0x20\n  swap1\n  div\n  dup2\n  add\n  swap3\n  dup3\n  tag_22\n  jumpi\n  0x00\n  dup6\n  sstore\n  jump(tag_25)\ntag_22:\n  dup3\n  0x1f\n  lt\n  tag_23\n  jumpi\n  dup1\n  mload\n  not(0xff)\n  and\n  dup4\n  dup1\n  add\n  or\n  dup6\n  sstore\n  jump(tag_25)\ntag_23:\n  dup3\n  dup1\n  add\n  0x01\n  add\n  dup6\n  sstore\n  dup3\n  iszero\n  tag_25\n  jumpi\n  swap2\n  dup3\n  add\ntag_24:\n  dup3\n  dup2\n  gt\n  iszero\n  tag_25\n  jumpi\n  dup3\n  mload\n  dup3\n  sstore\n  swap2\n  0x20\n  add\n  swap2\n  swap1\n  0x01\n  add\n  swap1\n  jump(tag_24)\ntag_25:\n  pop\n  tag_26\n  swap3\n  swap2\n  pop\n  tag_27\n  jump\t// in\ntag_26:\n  pop\n  swap1\n  jump\t// out\ntag_27:\ntag_28:\n  dup1\n  dup3\n  gt\n  iszero\n  tag_26\n  jumpi\n  0x00\n  dup2\n  sstore\n  0x01\n  add\n  jump(tag_28)\n    /* \"#utility.yul\":14:141   */\ntag_30:\n    /* \"#utility.yul\":75:85   */\n  0x4e487b71\n    /* \"#utility.yul\":70:73   */\n  0xe0\n    /* \"#utility.yul\":66:86   */\n  shl\n    /* \"#utility.yul\":63:64   */\n  0x00\n    /* \"#utility.yul\":56:87   */\n  mstore\n    /* \"#utility.yul\":106:110   */\n  0x41\n    /* \"#utility.yul\":103:104   */\n  0x04\n    /* \"#utility.yul\":96:111   */\n  mstore\n    /* \"#utility.yul\":130:134   */\n  0x24\n    /* \"#utility.yul\":127:128   */\n  0x00\n    /* \"#utility.yul\":120:135   */\n  revert\n    /* \"#utility.yul\":146:1031   */\ntag_31:\n    /* \"#utility.yul\":200:205   */\n  0x00\n    /* \"#utility.yul\":253:256   */\n  dup3\n    /* \"#utility.yul\":246:250   */\n  0x1f\n    /* \"#utility.yul\":238:244   */\n  dup4\n    /* \"#utility.yul\":234:251   */\n  add\n    /* \"#utility.yul\":230:257   */\n  slt\n    /* \"#utility.yul\":220:275   */\n  tag_37\n  jumpi\n    /* \"#utility.yul\":271:272   */\n  0x00\n    /* \"#utility.yul\":268:269   */\n  dup1\n    /* \"#utility.yul\":261:273   */\n  revert\n    /* \"#utility.yul\":220:275   */\ntag_37:\n    /* \"#utility.yul\":294:307   */\n  dup2\n  mload\n  sub(shl(0x40, 0x01), 0x01)\n    /* \"#utility.yul\":356:366   */\n  dup1\n  dup3\n  gt\n    /* \"#utility.yul\":353:389   */\n  iszero\n  tag_39\n  jumpi\n    /* \"#utility.yul\":369:387   */\n  tag_39\n  tag_30\n  jump\t// in\ntag_39:\n    /* \"#utility.yul\":444:446   */\n  0x40\n    /* \"#utility.yul\":438:447   */\n  mload\n    /* \"#utility.yul\":412:414   */\n  0x1f\n    /* \"#utility.yul\":498:511   */\n  dup4\n  add\n  not(0x1f)\n    /* \"#utility.yul\":494:516   */\n  swap1\n  dup2\n  and\n    /* \"#utility.yul\":518:520   */\n  0x3f\n    /* \"#utility.yul\":490:521   */\n  add\n    /* \"#utility.yul\":486:526   */\n  and\n    /* \"#utility.yul\":474:527   */\n  dup2\n  add\n  swap1\n    /* \"#utility.yul\":542:560   */\n  dup3\n  dup3\n  gt\n    /* \"#utility.yul\":562:584   */\n  dup2\n  dup4\n  lt\n    /* \"#utility.yul\":539:585   */\n  or\n    /* \"#utility.yul\":536:608   */\n  iszero\n  tag_41\n  jumpi\n    /* \"#utility.yul\":588:606   */\n  tag_41\n  tag_30\n  jump\t// in\ntag_41:\n    /* \"#utility.yul\":628:638   */\n  dup2\n    /* \"#utility.yul\":624:626   */\n  0x40\n    /* \"#utility.yul\":617:639   */\n  mstore\n    /* \"#utility.yul\":663:665   */\n  dup4\n    /* \"#utility.yul\":655:661   */\n  dup2\n    /* \"#utility.yul\":648:666   */\n  mstore\n    /* \"#utility.yul\":685:689   */\n  0x20\n    /* \"#utility.yul\":675:689   */\n  swap3\n  pop\n    /* \"#utility.yul\":730:733   */\n  dup7\n    /* \"#utility.yul\":725:727   */\n  dup4\n    /* \"#utility.yul\":720:722   */\n  dup6\n    /* \"#utility.yul\":712:718   */\n  dup9\n    /* \"#utility.yul\":708:723   */\n  add\n    /* \"#utility.yul\":704:728   */\n  add\n    /* \"#utility.yul\":701:734   */\n  gt\n    /* \"#utility.yul\":698:751   */\n  iszero\n  tag_42\n  jumpi\n    /* \"#utility.yul\":747:748   */\n  0x00\n    /* \"#utility.yul\":744:745   */\n  dup1\n    /* \"#utility.yul\":737:749   */\n  revert\n    /* \"#utility.yul\":698:751   */\ntag_42:\n    /* \"#utility.yul\":769:770   */\n  0x00\n    /* \"#utility.yul\":760:770   */\n  swap2\n  pop\n    /* \"#utility.yul\":779:912   */\ntag_43:\n    /* \"#utility.yul\":793:795   */\n  dup4\n    /* \"#utility.yul\":790:791   */\n  dup3\n    /* \"#utility.yul\":787:796   */\n  lt\n    /* \"#utility.yul\":779:912   */\n  iszero\n  tag_45\n  jumpi\n    /* \"#utility.yul\":881:895   */\n  dup6\n  dup3\n  add\n    /* \"#utility.yul\":877:900   */\n  dup4\n  add\n    /* \"#utility.yul\":871:901   */\n  mload\n    /* \"#utility.yul\":850:864   */\n  dup2\n  dup4\n  add\n    /* \"#utility.yul\":846:869   */\n  dup5\n  add\n    /* \"#utility.yul\":839:902   */\n  mstore\n    /* \"#utility.yul\":804:814   */\n  swap1\n  dup3\n  add\n  swap1\n    /* \"#utility.yul\":779:912   */\n  jump(tag_43)\ntag_45:\n    /* \"#utility.yul\":930:932   */\n  dup4\n    /* \"#utility.yul\":927:928   */\n  dup3\n    /* \"#utility.yul\":924:933   */\n  gt\n    /* \"#utility.yul\":921:1001   */\n  iszero\n  tag_46\n  jumpi\n    /* \"#utility.yul\":989:990   */\n  0x00\n    /* \"#utility.yul\":984:986   */\n  dup4\n    /* \"#utility.yul\":979:981   */\n  dup6\n    /* \"#utility.yul\":971:977   */\n  dup4\n    /* \"#utility.yul\":967:982   */\n  add\n    /* \"#utility.yul\":963:987   */\n  add\n    /* \"#utility.yul\":956:991   */\n  mstore\n    /* \"#utility.yul\":921:1001   */\ntag_46:\n    /* \"#utility.yul\":1019:1025   */\n  swap7\n    /* \"#utility.yul\":146:1031   */\n  swap6\n  pop\n  pop\n  pop\n  pop\n  pop\n  pop\n  jump\t// out\n    /* \"#utility.yul\":1036:1213   */\ntag_32:\n    /* \"#utility.yul\":1115:1128   */\n  dup1\n  mload\n  sub(shl(0xa0, 0x01), 0x01)\n    /* \"#utility.yul\":1157:1188   */\n  dup2\n  and\n    /* \"#utility.yul\":1147:1189   */\n  dup2\n  eq\n    /* \"#utility.yul\":1137:1207   */\n  tag_48\n  jumpi\n    /* \"#utility.yul\":1203:1204   */\n  0x00\n    /* \"#utility.yul\":1200:1201   */\n  dup1\n    /* \"#utility.yul\":1193:1205   */\n  revert\n    /* \"#utility.yul\":1137:1207   */\ntag_48:\n    /* \"#utility.yul\":1036:1213   */\n  swap2\n  swap1\n  pop\n  jump\t// out\n    /* \"#utility.yul\":1218:2188   */\ntag_3:\n    /* \"#utility.yul\":1351:1357   */\n  0x00\n    /* \"#utility.yul\":1359:1365   */\n  dup1\n    /* \"#utility.yul\":1367:1373   */\n  0x00\n    /* \"#utility.yul\":1375:1381   */\n  dup1\n    /* \"#utility.yul\":1383:1389   */\n  0x00\n    /* \"#utility.yul\":1391:1397   */\n  dup1\n    /* \"#utility.yul\":1444:1447   */\n  0xc0\n    /* \"#utility.yul\":1432:1441   */\n  dup8\n    /* \"#utility.yul\":1423:1430   */\n  dup10\n    /* \"#utility.yul\":1419:1442   */\n  sub\n    /* \"#utility.yul\":1415:1448   */\n  slt\n    /* \"#utility.yul\":1412:1465   */\n  iszero\n  tag_50\n  jumpi\n    /* \"#utility.yul\":1461:1462   */\n  0x00\n    /* \"#utility.yul\":1458:1459   */\n  dup1\n    /* \"#utility.yul\":1451:1463   */\n  revert\n    /* \"#utility.yul\":1412:1465   */\ntag_50:\n    /* \"#utility.yul\":1488:1504   */\n  dup7\n  mload\n  sub(shl(0x40, 0x01), 0x01)\n    /* \"#utility.yul\":1553:1567   */\n  dup1\n  dup3\n  gt\n    /* \"#utility.yul\":1550:1584   */\n  iszero\n  tag_51\n  jumpi\n    /* \"#utility.yul\":1580:1581   */\n  0x00\n    /* \"#utility.yul\":1577:1578   */\n  dup1\n    /* \"#utility.yul\":1570:1582   */\n  revert\n    /* \"#utility.yul\":1550:1584   */\ntag_51:\n    /* \"#utility.yul\":1603:1664   */\n  tag_52\n    /* \"#utility.yul\":1656:1663   */\n  dup11\n    /* \"#utility.yul\":1647:1653   */\n  dup4\n    /* \"#utility.yul\":1636:1645   */\n  dup12\n    /* \"#utility.yul\":1632:1654   */\n  add\n    /* \"#utility.yul\":1603:1664   */\n  tag_31\n  jump\t// in\ntag_52:\n    /* \"#utility.yul\":1593:1664   */\n  swap8\n  pop\n    /* \"#utility.yul\":1710:1712   */\n  0x20\n    /* \"#utility.yul\":1699:1708   */\n  dup10\n    /* \"#utility.yul\":1695:1713   */\n  add\n    /* \"#utility.yul\":1689:1714   */\n  mload\n    /* \"#utility.yul\":1673:1714   */\n  swap2\n  pop\n    /* \"#utility.yul\":1739:1741   */\n  dup1\n    /* \"#utility.yul\":1729:1737   */\n  dup3\n    /* \"#utility.yul\":1726:1742   */\n  gt\n    /* \"#utility.yul\":1723:1759   */\n  iszero\n  tag_53\n  jumpi\n    /* \"#utility.yul\":1755:1756   */\n  0x00\n    /* \"#utility.yul\":1752:1753   */\n  dup1\n    /* \"#utility.yul\":1745:1757   */\n  revert\n    /* \"#utility.yul\":1723:1759   */\ntag_53:\n  pop\n    /* \"#utility.yul\":1778:1841   */\n  tag_54\n    /* \"#utility.yul\":1833:1840   */\n  dup10\n    /* \"#utility.yul\":1822:1830   */\n  dup3\n    /* \"#utility.yul\":1811:1820   */\n  dup11\n    /* \"#utility.yul\":1807:1831   */\n  add\n    /* \"#utility.yul\":1778:1841   */\n  tag_31\n  jump\t// in\ntag_54:\n    /* \"#utility.yul\":1768:1841   */\n  swap6\n  pop\n  pop\n    /* \"#utility.yul\":1884:1886   */\n  0x40\n    /* \"#utility.yul\":1873:1882   */\n  dup8\n    /* \"#utility.yul\":1869:1887   */\n  add\n    /* \"#utility.yul\":1863:1888   */\n  mload\n    /* \"#utility.yul\":1928:1932   */\n  0xff\n    /* \"#utility.yul\":1921:1926   */\n  dup2\n    /* \"#utility.yul\":1917:1933   */\n  and\n    /* \"#utility.yul\":1910:1915   */\n  dup2\n    /* \"#utility.yul\":1907:1934   */\n  eq\n    /* \"#utility.yul\":1897:1952   */\n  tag_55\n  jumpi\n    /* \"#utility.yul\":1948:1949   */\n  0x00\n    /* \"#utility.yul\":1945:1946   */\n  dup1\n    /* \"#utility.yul\":1938:1950   */\n  revert\n    /* \"#utility.yul\":1897:1952   */\ntag_55:\n    /* \"#utility.yul\":1971:1976   */\n  swap4\n  pop\n    /* \"#utility.yul\":1995:2044   */\n  tag_56\n    /* \"#utility.yul\":2040:2042   */\n  0x60\n    /* \"#utility.yul\":2025:2043   */\n  dup9\n  add\n    /* \"#utility.yul\":1995:2044   */\n  tag_32\n  jump\t// in\ntag_56:\n    /* \"#utility.yul\":1985:2044   */\n  swap3\n  pop\n    /* \"#utility.yul\":2063:2113   */\n  tag_57\n    /* \"#utility.yul\":2108:2111   */\n  0x80\n    /* \"#utility.yul\":2097:2106   */\n  dup9\n    /* \"#utility.yul\":2093:2112   */\n  add\n    /* \"#utility.yul\":2063:2113   */\n  tag_32\n  jump\t// in\ntag_57:\n    /* \"#utility.yul\":2053:2113   */\n  swap2\n  pop\n    /* \"#utility.yul\":2132:2182   */\n  tag_58\n    /* \"#utility.yul\":2177:2180   */\n  0xa0\n    /* \"#utility.yul\":2166:2175   */\n  dup9\n    /* \"#utility.yul\":2162:2181   */\n  add\n    /* \"#utility.yul\":2132:2182   */\n  tag_32\n  jump\t// in\ntag_58:\n    /* \"#utility.yul\":2122:2182   */\n  swap1\n  pop\n    /* \"#utility.yul\":1218:2188   */\n  swap3\n  swap6\n  pop\n  swap3\n  swap6\n  pop\n  swap3\n  swap6\n  jump\t// out\n    /* \"#utility.yul\":2193:2573   */\ntag_20:\n    /* \"#utility.yul\":2272:2273   */\n  0x01\n    /* \"#utility.yul\":2268:2280   */\n  dup2\n  dup2\n  shr\n  swap1\n    /* \"#utility.yul\":2315:2327   */\n  dup3\n  and\n  dup1\n    /* \"#utility.yul\":2336:2397   */\n  tag_60\n  jumpi\n    /* \"#utility.yul\":2390:2394   */\n  0x7f\n    /* \"#utility.yul\":2382:2388   */\n  dup3\n    /* \"#utility.yul\":2378:2395   */\n  and\n    /* \"#utility.yul\":2368:2395   */\n  swap2\n  pop\n    /* \"#utility.yul\":2336:2397   */\ntag_60:\n    /* \"#utility.yul\":2443:2445   */\n  0x20\n    /* \"#utility.yul\":2435:2441   */\n  dup3\n    /* \"#utility.yul\":2432:2446   */\n  lt\n    /* \"#utility.yul\":2412:2430   */\n  dup2\n    /* \"#utility.yul\":2409:2447   */\n  sub\n    /* \"#utility.yul\":2406:2567   */\n  tag_61\n  jumpi\n    /* \"#utility.yul\":2489:2499   */\n  0x4e487b71\n    /* \"#utility.yul\":2484:2487   */\n  0xe0\n    /* \"#utility.yul\":2480:2500   */\n  shl\n    /* \"#utility.yul\":2477:2478   */\n  0x00\n    /* \"#utility.yul\":2470:2501   */\n  mstore\n    /* \"#utility.yul\":2524:2528   */\n  0x22\n    /* \"#utility.yul\":2521:2522   */\n  0x04\n    /* \"#utility.yul\":2514:2529   */\n  mstore\n    /* \"#utility.yul\":2552:2556   */\n  0x24\n    /* \"#utility.yul\":2549:2550   */\n  0x00\n    /* \"#utility.yul\":2542:2557   */\n  revert\n    /* \"#utility.yul\":2406:2567   */\ntag_61:\n  pop\n    /* \"#utility.yul\":2193:2573   */\n  swap2\n  swap1\n  pop\n  jump\t// out\n    /* \"#utility.yul\":2707:3811   */\ntag_16:\n    /* \"#utility.yul\":2837:2840   */\n  0x00\n    /* \"#utility.yul\":2866:2867   */\n  dup1\n    /* \"#utility.yul\":2899:2905   */\n  dup4\n    /* \"#utility.yul\":2893:2906   */\n  sload\n    /* \"#utility.yul\":2929:2932   */\n  dup2\n    /* \"#utility.yul\":2951:2952   */\n  0x01\n    /* \"#utility.yul\":2979:2988   */\n  dup3\n    /* \"#utility.yul\":2975:2977   */\n  dup2\n    /* \"#utility.yul\":2971:2989   */\n  shr\n    /* \"#utility.yul\":2961:2989   */\n  swap2\n  pop\n    /* \"#utility.yul\":3039:3041   */\n  dup1\n    /* \"#utility.yul\":3028:3037   */\n  dup4\n    /* \"#utility.yul\":3024:3042   */\n  and\n    /* \"#utility.yul\":3061:3079   */\n  dup1\n    /* \"#utility.yul\":3051:3112   */\n  tag_64\n  jumpi\n    /* \"#utility.yul\":3105:3109   */\n  0x7f\n    /* \"#utility.yul\":3097:3103   */\n  dup4\n    /* \"#utility.yul\":3093:3110   */\n  and\n    /* \"#utility.yul\":3083:3110   */\n  swap3\n  pop\n    /* \"#utility.yul\":3051:3112   */\ntag_64:\n    /* \"#utility.yul\":3131:3133   */\n  0x20\n    /* \"#utility.yul\":3179:3181   */\n  dup1\n    /* \"#utility.yul\":3171:3177   */\n  dup5\n    /* \"#utility.yul\":3168:3182   */\n  lt\n    /* \"#utility.yul\":3148:3166   */\n  dup3\n    /* \"#utility.yul\":3145:3183   */\n  sub\n    /* \"#utility.yul\":3142:3307   */\n  tag_65\n  jumpi\n  shl(0xe0, 0x4e487b71)\n    /* \"#utility.yul\":3206:3239   */\n  dup7\n  mstore\n    /* \"#utility.yul\":3262:3266   */\n  0x22\n    /* \"#utility.yul\":3259:3260   */\n  0x04\n    /* \"#utility.yul\":3252:3267   */\n  mstore\n    /* \"#utility.yul\":3292:3296   */\n  0x24\n    /* \"#utility.yul\":3213:3216   */\n  dup7\n    /* \"#utility.yul\":3280:3297   */\n  revert\n    /* \"#utility.yul\":3142:3307   */\ntag_65:\n    /* \"#utility.yul\":3323:3341   */\n  dup2\n    /* \"#utility.yul\":3350:3454   */\n  dup1\n  iszero\n  tag_67\n  jumpi\n    /* \"#utility.yul\":3468:3469   */\n  0x01\n    /* \"#utility.yul\":3463:3786   */\n  dup2\n  eq\n  tag_68\n  jumpi\n    /* \"#utility.yul\":3316:3786   */\n  jump(tag_66)\n    /* \"#utility.yul\":3350:3454   */\ntag_67:\n  not(0xff)\n    /* \"#utility.yul\":3383:3407   */\n  dup7\n  and\n    /* \"#utility.yul\":3371:3408   */\n  dup10\n  mstore\n    /* \"#utility.yul\":3428:3444   */\n  dup5\n  dup10\n  add\n  swap7\n  pop\n    /* \"#utility.yul\":3350:3454   */\n  jump(tag_66)\n    /* \"#utility.yul\":3463:3786   */\ntag_68:\n    /* \"#utility.yul\":2654:2655   */\n  0x00\n    /* \"#utility.yul\":2647:2661   */\n  dup11\n  dup2\n  mstore\n    /* \"#utility.yul\":2691:2695   */\n  0x20\n    /* \"#utility.yul\":2678:2696   */\n  swap1\n  keccak256\n    /* \"#utility.yul\":3561:3562   */\n  0x00\n    /* \"#utility.yul\":3575:3740   */\ntag_70:\n    /* \"#utility.yul\":3589:3595   */\n  dup7\n    /* \"#utility.yul\":3586:3587   */\n  dup2\n    /* \"#utility.yul\":3583:3596   */\n  lt\n    /* \"#utility.yul\":3575:3740   */\n  iszero\n  tag_72\n  jumpi\n    /* \"#utility.yul\":3667:3681   */\n  dup2\n  sload\n    /* \"#utility.yul\":3654:3665   */\n  dup12\n  dup3\n  add\n    /* \"#utility.yul\":3647:3682   */\n  mstore\n    /* \"#utility.yul\":3710:3726   */\n  swap1\n  dup6\n  add\n  swap1\n    /* \"#utility.yul\":3604:3614   */\n  dup4\n  add\n    /* \"#utility.yul\":3575:3740   */\n  jump(tag_70)\ntag_72:\n    /* \"#utility.yul\":3579:3582   */\n  pop\n  pop\n    /* \"#utility.yul\":3769:3775   */\n  dup5\n    /* \"#utility.yul\":3764:3767   */\n  dup10\n    /* \"#utility.yul\":3760:3776   */\n  add\n    /* \"#utility.yul\":3753:3776   */\n  swap7\n  pop\n    /* \"#utility.yul\":3316:3786   */\ntag_66:\n  pop\n    /* \"#utility.yul\":3802:3805   */\n  swap5\n  swap9\n    /* \"#utility.yul\":2707:3811   */\n  swap8\n  pop\n  pop\n  pop\n  pop\n  pop\n  pop\n  pop\n  pop\n  jump\t// out\n    /* \"#utility.yul\":3816:4305   */\ntag_34:\n    /* \"src/contracts/WrappedAgToken.sol\":552:3406  contract WrappedAgToken is ERC20 {... */\n  mload(0x80)\n  mload(0xa0)\n  mload(0xc0)\n  codecopy(0x00, dataOffset(sub_0), dataSize(sub_0))\n  0x00\n  assignImmutable(\"0x880de8116b3dfac28e9ff528a9fef1d1e0a51449c1addce011ffec1f302992b6\")\n  0x00\n  assignImmutable(\"0xd67d834462ca31eaef1f30157e31659f60355143b7441e6fc7d9eae1fa79f3f8\")\n  0x00\n  assignImmutable(\"0x6585423cb6456b1d4957f6454d2f004f0c4f58d53a00082412d5c2ef4b1b31fd\")\n  return(0x00, dataSize(sub_0))\nstop\n\nsub_0: assembly {\n        /* \"src/contracts/WrappedAgToken.sol\":552:3406  contract WrappedAgToken is ERC20 {... */\n      mstore(0x40, 0x80)\n      jumpi(tag_1, lt(calldatasize, 0x04))\n      shr(0xe0, calldataload(0x00))\n      dup1\n      0x7535d246\n      gt\n      tag_25\n      jumpi\n      dup1\n      0xbcaaf576\n      gt\n      tag_26\n      jumpi\n      dup1\n      0xbcaaf576\n      eq\n      tag_19\n      jumpi\n      dup1\n      0xd0ebdbe7\n      eq\n      tag_20\n      jumpi\n      dup1\n      0xd505accf\n      eq\n      tag_21\n      jumpi\n      dup1\n      0xd859562c\n      eq\n      tag_22\n      jumpi\n      dup1\n      0xdd62ed3e\n      eq\n      tag_23\n      jumpi\n      dup1\n      0xf85cb5c8\n      eq\n      tag_24\n      jumpi\n      0x00\n      dup1\n      revert\n    tag_26:\n      dup1\n      0x7535d246\n      eq\n      tag_14\n      jumpi\n      dup1\n      0x7ecebe00\n      eq\n      tag_15\n      jumpi\n      dup1\n      0x95d89b41\n      eq\n      tag_16\n      jumpi\n      dup1\n      0xa9059cbb\n      eq\n      tag_17\n      jumpi\n      dup1\n      0xb6b55f25\n      eq\n      tag_18\n      jumpi\n      0x00\n      dup1\n      revert\n    tag_25:\n      dup1\n      0x313ce567\n      gt\n      tag_27\n      jumpi\n      dup1\n      0x313ce567\n      eq\n      tag_8\n      jumpi\n      dup1\n      0x3644e515\n      eq\n      tag_9\n      jumpi\n      dup1\n      0x481c6a75\n      eq\n      tag_10\n      jumpi\n      dup1\n      0x4e71d92d\n      eq\n      tag_11\n      jumpi\n      dup1\n      0x6b6bd8d9\n      eq\n      tag_12\n      jumpi\n      dup1\n      0x70a08231\n      eq\n      tag_13\n      jumpi\n      0x00\n      dup1\n      revert\n    tag_27:\n      dup1\n      0x06fdde03\n      eq\n      tag_3\n      jumpi\n      dup1\n      0x095ea7b3\n      eq\n      tag_4\n      jumpi\n      dup1\n      0x18160ddd\n      eq\n      tag_5\n      jumpi\n      dup1\n      0x23b872dd\n      eq\n      tag_6\n      jumpi\n      dup1\n      0x2e1a7d4d\n      eq\n      tag_7\n      jumpi\n      0x00\n      dup1\n      revert\n    tag_1:\n      jumpi(tag_2, calldatasize)\n        /* \"src/contracts/WrappedAgToken.sol\":3334:3397  require(msg.value < 0, \"Contract can only handle ERC20 tokens\") */\n      mload(0x40)\n      shl(0xe5, 0x461bcd)\n      dup2\n      mstore\n        /* \"#utility.yul\":216:218   */\n      0x20\n        /* \"src/contracts/WrappedAgToken.sol\":3334:3397  require(msg.value < 0, \"Contract can only handle ERC20 tokens\") */\n      0x04\n      dup3\n      add\n        /* \"#utility.yul\":198:219   */\n      mstore\n        /* \"#utility.yul\":255:257   */\n      0x25\n        /* \"#utility.yul\":235:253   */\n      0x24\n      dup3\n      add\n        /* \"#utility.yul\":228:258   */\n      mstore\n        /* \"#utility.yul\":294:328   */\n      0x436f6e74726163742063616e206f6e6c792068616e646c652045524332302074\n        /* \"#utility.yul\":274:292   */\n      0x44\n      dup3\n      add\n        /* \"#utility.yul\":267:329   */\n      mstore\n      shl(0xd8, 0x6f6b656e73)\n        /* \"#utility.yul\":345:363   */\n      0x64\n      dup3\n      add\n        /* \"#utility.yul\":338:373   */\n      mstore\n        /* \"#utility.yul\":390:409   */\n      0x84\n      add\n        /* \"src/contracts/WrappedAgToken.sol\":3334:3397  require(msg.value < 0, \"Contract can only handle ERC20 tokens\") */\n    tag_31:\n      mload(0x40)\n      dup1\n      swap2\n      sub\n      swap1\n      revert\n    tag_30:\n        /* \"src/contracts/WrappedAgToken.sol\":552:3406  contract WrappedAgToken is ERC20 {... */\n      stop\n    tag_2:\n      0x00\n      dup1\n      revert\n        /* \"lib/solmate/src/tokens/ERC20.sol\":1028:1046  string public name */\n    tag_3:\n      callvalue\n      dup1\n      iszero\n      tag_33\n      jumpi\n      0x00\n      dup1\n      revert\n    tag_33:\n      pop\n      tag_34\n      tag_35\n      jump\t// in\n    tag_34:\n      mload(0x40)\n      tag_36\n      swap2\n      swap1\n      tag_37\n      jump\t// in\n    tag_36:\n      mload(0x40)\n      dup1\n      swap2\n      sub\n      swap1\n      return\n        /* \"lib/solmate/src/tokens/ERC20.sol\":2458:2669  function approve(address spender, uint256 amount) public virtual returns (bool) {... */\n    tag_4:\n      callvalue\n      dup1\n      iszero\n      tag_38\n      jumpi\n      0x00\n      dup1\n      revert\n    tag_38:\n      pop\n      tag_39\n      tag_40\n      calldatasize\n      0x04\n      tag_41\n      jump\t// in\n    tag_40:\n      tag_42\n      jump\t// in\n    tag_39:\n      mload(0x40)\n        /* \"#utility.yul\":1624:1638   */\n      swap1\n      iszero\n        /* \"#utility.yul\":1617:1639   */\n      iszero\n        /* \"#utility.yul\":1599:1640   */\n      dup2\n      mstore\n        /* \"#utility.yul\":1587:1589   */\n      0x20\n        /* \"#utility.yul\":1572:1590   */\n      add\n        /* \"lib/solmate/src/tokens/ERC20.sol\":2458:2669  function approve(address spender, uint256 amount) public virtual returns (bool) {... */\n      tag_36\n        /* \"#utility.yul\":1459:1646   */\n      jump\n        /* \"lib/solmate/src/tokens/ERC20.sol\":1301:1327  uint256 public totalSupply */\n    tag_5:\n      callvalue\n      dup1\n      iszero\n      tag_45\n      jumpi\n      0x00\n      dup1\n      revert\n    tag_45:\n      pop\n      tag_46\n      sload(0x02)\n      dup2\n      jump\n    tag_46:\n      mload(0x40)\n        /* \"#utility.yul\":1797:1822   */\n      swap1\n      dup2\n      mstore\n        /* \"#utility.yul\":1785:1787   */\n      0x20\n        /* \"#utility.yul\":1770:1788   */\n      add\n        /* \"lib/solmate/src/tokens/ERC20.sol\":1301:1327  uint256 public totalSupply */\n      tag_36\n        /* \"#utility.yul\":1651:1828   */\n      jump\n        /* \"lib/solmate/src/tokens/ERC20.sol\":3054:3646  function transferFrom(... */\n    tag_6:\n      callvalue\n      dup1\n      iszero\n      tag_50\n      jumpi\n      0x00\n      dup1\n      revert\n    tag_50:\n      pop\n      tag_39\n      tag_52\n      calldatasize\n      0x04\n      tag_53\n      jump\t// in\n    tag_52:\n      tag_54\n      jump\t// in\n        /* \"src/contracts/WrappedAgToken.sol\":2455:2683  function withdraw(uint256 amount) public {... */\n    tag_7:\n      callvalue\n      dup1\n      iszero\n      tag_56\n      jumpi\n      0x00\n      dup1\n      revert\n    tag_56:\n      pop\n      tag_30\n      tag_58\n      calldatasize\n      0x04\n      tag_59\n      jump\t// in\n    tag_58:\n      tag_60\n      jump\t// in\n        /* \"lib/solmate/src/tokens/ERC20.sol\":1080:1111  uint8 public immutable decimals */\n    tag_8:\n      callvalue\n      dup1\n      iszero\n      tag_61\n      jumpi\n      0x00\n      dup1\n      revert\n    tag_61:\n      pop\n      tag_62\n      immutable(\"0x6585423cb6456b1d4957f6454d2f004f0c4f58d53a00082412d5c2ef4b1b31fd\")\n      dup2\n      jump\n    tag_62:\n      mload(0x40)\n        /* \"#utility.yul\":2523:2527   */\n      0xff\n        /* \"#utility.yul\":2511:2528   */\n      swap1\n      swap2\n      and\n        /* \"#utility.yul\":2493:2529   */\n      dup2\n      mstore\n        /* \"#utility.yul\":2481:2483   */\n      0x20\n        /* \"#utility.yul\":2466:2484   */\n      add\n        /* \"lib/solmate/src/tokens/ERC20.sol\":1080:1111  uint8 public immutable decimals */\n      tag_36\n        /* \"#utility.yul\":2351:2535   */\n      jump\n        /* \"lib/solmate/src/tokens/ERC20.sol\":5324:5501  function DOMAIN_SEPARATOR() public view virtual returns (bytes32) {... */\n    tag_9:\n      callvalue\n      dup1\n      iszero\n      tag_66\n      jumpi\n      0x00\n      dup1\n      revert\n    tag_66:\n      pop\n      tag_46\n      tag_68\n      jump\t// in\n        /* \"src/contracts/WrappedAgToken.sol\":879:901  address public manager */\n    tag_10:\n      callvalue\n      dup1\n      iszero\n      tag_71\n      jumpi\n      0x00\n      dup1\n      revert\n    tag_71:\n      pop\n      sload(0x07)\n      tag_72\n      swap1\n      sub(shl(0xa0, 0x01), 0x01)\n      and\n      dup2\n      jump\n    tag_72:\n      mload(0x40)\n      sub(shl(0xa0, 0x01), 0x01)\n        /* \"#utility.yul\":2886:2918   */\n      swap1\n      swap2\n      and\n        /* \"#utility.yul\":2868:2919   */\n      dup2\n      mstore\n        /* \"#utility.yul\":2856:2858   */\n      0x20\n        /* \"#utility.yul\":2841:2859   */\n      add\n        /* \"src/contracts/WrappedAgToken.sol\":879:901  address public manager */\n      tag_36\n        /* \"#utility.yul\":2722:2925   */\n      jump\n        /* \"src/contracts/WrappedAgToken.sol\":2870:3058  function claim() public {... */\n    tag_11:\n      callvalue\n      dup1\n      iszero\n      tag_76\n      jumpi\n      0x00\n      dup1\n      revert\n    tag_76:\n      pop\n      tag_30\n      tag_78\n      jump\t// in\n        /* \"src/contracts/WrappedAgToken.sol\":907:939  address public interestCollector */\n    tag_12:\n      callvalue\n      dup1\n      iszero\n      tag_79\n      jumpi\n      0x00\n      dup1\n      revert\n    tag_79:\n      pop\n      sload(0x08)\n      tag_72\n      swap1\n      sub(shl(0xa0, 0x01), 0x01)\n      and\n      dup2\n      jump\n        /* \"lib/solmate/src/tokens/ERC20.sol\":1334:1378  mapping(address => uint256) public balanceOf */\n    tag_13:\n      callvalue\n      dup1\n      iszero\n      tag_83\n      jumpi\n      0x00\n      dup1\n      revert\n    tag_83:\n      pop\n      tag_46\n      tag_85\n      calldatasize\n      0x04\n      tag_86\n      jump\t// in\n    tag_85:\n      mstore(0x20, 0x03)\n      0x00\n      swap1\n      dup2\n      mstore\n      0x40\n      swap1\n      keccak256\n      sload\n      dup2\n      jump\n        /* \"src/contracts/WrappedAgToken.sol\":1017:1041  ILendingPool public POOL */\n    tag_14:\n      callvalue\n      dup1\n      iszero\n      tag_89\n      jumpi\n      0x00\n      dup1\n      revert\n    tag_89:\n      pop\n      sload(0x0b)\n      tag_72\n      swap1\n      sub(shl(0xa0, 0x01), 0x01)\n      and\n      dup2\n      jump\n        /* \"lib/solmate/src/tokens/ERC20.sol\":1748:1789  mapping(address => uint256) public nonces */\n    tag_15:\n      callvalue\n      dup1\n      iszero\n      tag_94\n      jumpi\n      0x00\n      dup1\n      revert\n    tag_94:\n      pop\n      tag_46\n      tag_96\n      calldatasize\n      0x04\n      tag_86\n      jump\t// in\n    tag_96:\n      mstore(0x20, 0x05)\n      0x00\n      swap1\n      dup2\n      mstore\n      0x40\n      swap1\n      keccak256\n      sload\n      dup2\n      jump\n        /* \"lib/solmate/src/tokens/ERC20.sol\":1053:1073  string public symbol */\n    tag_16:\n      callvalue\n      dup1\n      iszero\n      tag_99\n      jumpi\n      0x00\n      dup1\n      revert\n    tag_99:\n      pop\n      tag_34\n      tag_101\n      jump\t// in\n        /* \"lib/solmate/src/tokens/ERC20.sol\":2675:3048  function transfer(address to, uint256 amount) public virtual returns (bool) {... */\n    tag_17:\n      callvalue\n      dup1\n      iszero\n      tag_103\n      jumpi\n      0x00\n      dup1\n      revert\n    tag_103:\n      pop\n      tag_39\n      tag_105\n      calldatasize\n      0x04\n      tag_41\n      jump\t// in\n    tag_105:\n      tag_106\n      jump\t// in\n        /* \"src/contracts/WrappedAgToken.sol\":2203:2449  function deposit(uint256 amount) public isActive() {... */\n    tag_18:\n      callvalue\n      dup1\n      iszero\n      tag_108\n      jumpi\n      0x00\n      dup1\n      revert\n    tag_108:\n      pop\n      tag_30\n      tag_110\n      calldatasize\n      0x04\n      tag_59\n      jump\t// in\n    tag_110:\n      tag_111\n      jump\t// in\n        /* \"src/contracts/WrappedAgToken.sol\":3065:3187  function setInterestCollector(address newCollector) external isManager() {... */\n    tag_19:\n      callvalue\n      dup1\n      iszero\n      tag_112\n      jumpi\n      0x00\n      dup1\n      revert\n    tag_112:\n      pop\n      tag_30\n      tag_114\n      calldatasize\n      0x04\n      tag_86\n      jump\t// in\n    tag_114:\n      tag_115\n      jump\t// in\n        /* \"src/contracts/WrappedAgToken.sol\":3193:3291  function setManager(address newManager) external isManager() {... */\n    tag_20:\n      callvalue\n      dup1\n      iszero\n      tag_116\n      jumpi\n      0x00\n      dup1\n      revert\n    tag_116:\n      pop\n      tag_30\n      tag_118\n      calldatasize\n      0x04\n      tag_86\n      jump\t// in\n    tag_118:\n      tag_119\n      jump\t// in\n        /* \"lib/solmate/src/tokens/ERC20.sol\":3835:5318  function permit(... */\n    tag_21:\n      callvalue\n      dup1\n      iszero\n      tag_120\n      jumpi\n      0x00\n      dup1\n      revert\n    tag_120:\n      pop\n      tag_30\n      tag_122\n      calldatasize\n      0x04\n      tag_123\n      jump\t// in\n    tag_122:\n      tag_124\n      jump\t// in\n        /* \"src/contracts/WrappedAgToken.sol\":978:1011  IAgToken public underlyingAgToken */\n    tag_22:\n      callvalue\n      dup1\n      iszero\n      tag_125\n      jumpi\n      0x00\n      dup1\n      revert\n    tag_125:\n      pop\n      sload(0x0a)\n      tag_72\n      swap1\n      sub(shl(0xa0, 0x01), 0x01)\n      and\n      dup2\n      jump\n        /* \"lib/solmate/src/tokens/ERC20.sol\":1385:1449  mapping(address => mapping(address => uint256)) public allowance */\n    tag_23:\n      callvalue\n      dup1\n      iszero\n      tag_130\n      jumpi\n      0x00\n      dup1\n      revert\n    tag_130:\n      pop\n      tag_46\n      tag_132\n      calldatasize\n      0x04\n      tag_133\n      jump\t// in\n    tag_132:\n      0x04\n      0x20\n      swap1\n      dup2\n      mstore\n      0x00\n      swap3\n      dup4\n      mstore\n      0x40\n      dup1\n      dup5\n      keccak256\n      swap1\n      swap2\n      mstore\n      swap1\n      dup3\n      mstore\n      swap1\n      keccak256\n      sload\n      dup2\n      jump\n        /* \"src/contracts/WrappedAgToken.sol\":945:972  address public reserveAsset */\n    tag_24:\n      callvalue\n      dup1\n      iszero\n      tag_136\n      jumpi\n      0x00\n      dup1\n      revert\n    tag_136:\n      pop\n      sload(0x09)\n      tag_72\n      swap1\n      sub(shl(0xa0, 0x01), 0x01)\n      and\n      dup2\n      jump\n        /* \"lib/solmate/src/tokens/ERC20.sol\":1028:1046  string public name */\n    tag_35:\n      0x00\n      dup1\n      sload\n      tag_140\n      swap1\n      tag_141\n      jump\t// in\n    tag_140:\n      dup1\n      0x1f\n      add\n      0x20\n      dup1\n      swap2\n      div\n      mul\n      0x20\n      add\n      mload(0x40)\n      swap1\n      dup2\n      add\n      0x40\n      mstore\n      dup1\n      swap3\n      swap2\n      swap1\n      dup2\n      dup2\n      mstore\n      0x20\n      add\n      dup3\n      dup1\n      sload\n      tag_142\n      swap1\n      tag_141\n      jump\t// in\n    tag_142:\n      dup1\n      iszero\n      tag_143\n      jumpi\n      dup1\n      0x1f\n      lt\n      tag_144\n      jumpi\n      0x0100\n      dup1\n      dup4\n      sload\n      div\n      mul\n      dup4\n      mstore\n      swap2\n      0x20\n      add\n      swap2\n      jump(tag_143)\n    tag_144:\n      dup3\n      add\n      swap2\n      swap1\n      0x00\n      mstore\n      keccak256(0x00, 0x20)\n      swap1\n    tag_145:\n      dup2\n      sload\n      dup2\n      mstore\n      swap1\n      0x01\n      add\n      swap1\n      0x20\n      add\n      dup1\n      dup4\n      gt\n      tag_145\n      jumpi\n      dup3\n      swap1\n      sub\n      0x1f\n      and\n      dup3\n      add\n      swap2\n    tag_143:\n      pop\n      pop\n      pop\n      pop\n      pop\n      dup2\n      jump\t// out\n        /* \"lib/solmate/src/tokens/ERC20.sol\":2458:2669  function approve(address spender, uint256 amount) public virtual returns (bool) {... */\n    tag_42:\n        /* \"lib/solmate/src/tokens/ERC20.sol\":2558:2568  msg.sender */\n      caller\n        /* \"lib/solmate/src/tokens/ERC20.sol\":2532:2536  bool */\n      0x00\n        /* \"lib/solmate/src/tokens/ERC20.sol\":2548:2569  allowance[msg.sender] */\n      dup2\n      dup2\n      mstore\n        /* \"lib/solmate/src/tokens/ERC20.sol\":2548:2557  allowance */\n      0x04\n        /* \"lib/solmate/src/tokens/ERC20.sol\":2548:2569  allowance[msg.sender] */\n      0x20\n      swap1\n      dup2\n      mstore\n      0x40\n      dup1\n      dup4\n      keccak256\n      sub(shl(0xa0, 0x01), 0x01)\n        /* \"lib/solmate/src/tokens/ERC20.sol\":2548:2578  allowance[msg.sender][spender] */\n      dup8\n      and\n      dup1\n      dup6\n      mstore\n      swap3\n      mstore\n      dup1\n      dup4\n      keccak256\n        /* \"lib/solmate/src/tokens/ERC20.sol\":2548:2587  allowance[msg.sender][spender] = amount */\n      dup6\n      swap1\n      sstore\n        /* \"lib/solmate/src/tokens/ERC20.sol\":2603:2640  Approval(msg.sender, spender, amount) */\n      mload\n        /* \"lib/solmate/src/tokens/ERC20.sol\":2532:2536  bool */\n      swap2\n      swap3\n        /* \"lib/solmate/src/tokens/ERC20.sol\":2548:2578  allowance[msg.sender][spender] */\n      swap1\n      swap2\n        /* \"lib/solmate/src/tokens/ERC20.sol\":2603:2640  Approval(msg.sender, spender, amount) */\n      0x8c5be1e5ebec7d5bd14f71427d1e84f3dd0314c0f7b2291e5b200ac8c7c3b925\n      swap1\n      tag_147\n      swap1\n        /* \"lib/solmate/src/tokens/ERC20.sol\":2581:2587  amount */\n      dup7\n        /* \"#utility.yul\":1797:1822   */\n      dup2\n      mstore\n        /* \"#utility.yul\":1785:1787   */\n      0x20\n        /* \"#utility.yul\":1770:1788   */\n      add\n      swap1\n        /* \"#utility.yul\":1651:1828   */\n      jump\n        /* \"lib/solmate/src/tokens/ERC20.sol\":2603:2640  Approval(msg.sender, spender, amount) */\n    tag_147:\n      mload(0x40)\n      dup1\n      swap2\n      sub\n      swap1\n      log3\n      pop\n        /* \"lib/solmate/src/tokens/ERC20.sol\":2658:2662  true */\n      0x01\n        /* \"lib/solmate/src/tokens/ERC20.sol\":2458:2669  function approve(address spender, uint256 amount) public virtual returns (bool) {... */\n      swap3\n      swap2\n      pop\n      pop\n      jump\t// out\n        /* \"lib/solmate/src/tokens/ERC20.sol\":3054:3646  function transferFrom(... */\n    tag_54:\n      sub(shl(0xa0, 0x01), 0x01)\n        /* \"lib/solmate/src/tokens/ERC20.sol\":3206:3221  allowance[from] */\n      dup4\n      and\n        /* \"lib/solmate/src/tokens/ERC20.sol\":3172:3176  bool */\n      0x00\n        /* \"lib/solmate/src/tokens/ERC20.sol\":3206:3221  allowance[from] */\n      swap1\n      dup2\n      mstore\n        /* \"lib/solmate/src/tokens/ERC20.sol\":3206:3215  allowance */\n      0x04\n        /* \"lib/solmate/src/tokens/ERC20.sol\":3206:3221  allowance[from] */\n      0x20\n      swap1\n      dup2\n      mstore\n      0x40\n      dup1\n      dup4\n      keccak256\n        /* \"lib/solmate/src/tokens/ERC20.sol\":3222:3232  msg.sender */\n      caller\n        /* \"lib/solmate/src/tokens/ERC20.sol\":3206:3233  allowance[from][msg.sender] */\n      dup5\n      mstore\n      swap1\n      swap2\n      mstore\n      dup2\n      keccak256\n      sload\n      not(0x00)\n        /* \"lib/solmate/src/tokens/ERC20.sol\":3284:3312  allowed != type(uint256).max */\n      dup2\n      eq\n        /* \"lib/solmate/src/tokens/ERC20.sol\":3280:3360  if (allowed != type(uint256).max) allowance[from][msg.sender] = allowed - amount */\n      tag_149\n      jumpi\n        /* \"lib/solmate/src/tokens/ERC20.sol\":3344:3360  allowed - amount */\n      tag_150\n        /* \"lib/solmate/src/tokens/ERC20.sol\":3354:3360  amount */\n      dup4\n        /* \"lib/solmate/src/tokens/ERC20.sol\":3344:3351  allowed */\n      dup3\n        /* \"lib/solmate/src/tokens/ERC20.sol\":3344:3360  allowed - amount */\n      tag_151\n      jump\t// in\n    tag_150:\n      sub(shl(0xa0, 0x01), 0x01)\n        /* \"lib/solmate/src/tokens/ERC20.sol\":3314:3329  allowance[from] */\n      dup7\n      and\n      0x00\n      swap1\n      dup2\n      mstore\n        /* \"lib/solmate/src/tokens/ERC20.sol\":3314:3323  allowance */\n      0x04\n        /* \"lib/solmate/src/tokens/ERC20.sol\":3314:3329  allowance[from] */\n      0x20\n      swap1\n      dup2\n      mstore\n      0x40\n      dup1\n      dup4\n      keccak256\n        /* \"lib/solmate/src/tokens/ERC20.sol\":3330:3340  msg.sender */\n      caller\n        /* \"lib/solmate/src/tokens/ERC20.sol\":3314:3341  allowance[from][msg.sender] */\n      dup5\n      mstore\n      swap1\n      swap2\n      mstore\n      swap1\n      keccak256\n        /* \"lib/solmate/src/tokens/ERC20.sol\":3314:3360  allowance[from][msg.sender] = allowed - amount */\n      sstore\n        /* \"lib/solmate/src/tokens/ERC20.sol\":3280:3360  if (allowed != type(uint256).max) allowance[from][msg.sender] = allowed - amount */\n    tag_149:\n      sub(shl(0xa0, 0x01), 0x01)\n        /* \"lib/solmate/src/tokens/ERC20.sol\":3371:3386  balanceOf[from] */\n      dup6\n      and\n      0x00\n      swap1\n      dup2\n      mstore\n        /* \"lib/solmate/src/tokens/ERC20.sol\":3371:3380  balanceOf */\n      0x03\n        /* \"lib/solmate/src/tokens/ERC20.sol\":3371:3386  balanceOf[from] */\n      0x20\n      mstore\n      0x40\n      dup2\n      keccak256\n        /* \"lib/solmate/src/tokens/ERC20.sol\":3371:3396  balanceOf[from] -= amount */\n      dup1\n      sload\n        /* \"lib/solmate/src/tokens/ERC20.sol\":3390:3396  amount */\n      dup6\n      swap3\n        /* \"lib/solmate/src/tokens/ERC20.sol\":3371:3386  balanceOf[from] */\n      swap1\n        /* \"lib/solmate/src/tokens/ERC20.sol\":3371:3396  balanceOf[from] -= amount */\n      tag_152\n      swap1\n        /* \"lib/solmate/src/tokens/ERC20.sol\":3390:3396  amount */\n      dup5\n      swap1\n        /* \"lib/solmate/src/tokens/ERC20.sol\":3371:3396  balanceOf[from] -= amount */\n      tag_151\n      jump\t// in\n    tag_152:\n      swap1\n      swap2\n      sstore\n      pop\n      pop\n      sub(shl(0xa0, 0x01), 0x01)\n        /* \"lib/solmate/src/tokens/ERC20.sol\":3542:3555  balanceOf[to] */\n      dup1\n      dup6\n      and\n      0x00\n      dup2\n      dup2\n      mstore\n        /* \"lib/solmate/src/tokens/ERC20.sol\":3542:3551  balanceOf */\n      0x03\n        /* \"lib/solmate/src/tokens/ERC20.sol\":3542:3555  balanceOf[to] */\n      0x20\n      mstore\n      0x40\n      swap1\n      dup2\n      swap1\n      keccak256\n        /* \"lib/solmate/src/tokens/ERC20.sol\":3542:3565  balanceOf[to] += amount */\n      dup1\n      sload\n      dup8\n      add\n      swap1\n      sstore\n        /* \"lib/solmate/src/tokens/ERC20.sol\":3591:3617  Transfer(from, to, amount) */\n      mload\n        /* \"lib/solmate/src/tokens/ERC20.sol\":3542:3555  balanceOf[to] */\n      swap1\n      swap2\n        /* \"lib/solmate/src/tokens/ERC20.sol\":3591:3617  Transfer(from, to, amount) */\n      dup8\n      and\n      swap1\n      0x00\n      dup1\n      mload\n      0x20\n      data_ada389e1fc24a8587c776340efb91b36e675792ab631816100d55df0b5cf3cbc\n      dup4\n      codecopy\n      dup2\n      mload\n      swap2\n      mstore\n      swap1\n      tag_153\n      swap1\n        /* \"lib/solmate/src/tokens/ERC20.sol\":3559:3565  amount */\n      dup8\n        /* \"#utility.yul\":1797:1822   */\n      dup2\n      mstore\n        /* \"#utility.yul\":1785:1787   */\n      0x20\n        /* \"#utility.yul\":1770:1788   */\n      add\n      swap1\n        /* \"#utility.yul\":1651:1828   */\n      jump\n        /* \"lib/solmate/src/tokens/ERC20.sol\":3591:3617  Transfer(from, to, amount) */\n    tag_153:\n      mload(0x40)\n      dup1\n      swap2\n      sub\n      swap1\n      log3\n      pop\n        /* \"lib/solmate/src/tokens/ERC20.sol\":3635:3639  true */\n      0x01\n      swap5\n        /* \"lib/solmate/src/tokens/ERC20.sol\":3054:3646  function transferFrom(... */\n      swap4\n      pop\n      pop\n      pop\n      pop\n      jump\t// out\n        /* \"src/contracts/WrappedAgToken.sol\":2455:2683  function withdraw(uint256 amount) public {... */\n    tag_60:\n        /* \"src/contracts/WrappedAgToken.sol\":2522:2528  amount */\n      dup1\n        /* \"src/contracts/WrappedAgToken.sol\":2506:2518  userDeposits */\n      0x06\n      0x00\n        /* \"src/contracts/WrappedAgToken.sol\":2506:2528  userDeposits -= amount */\n      dup3\n      dup3\n      sload\n      tag_155\n      swap2\n      swap1\n      tag_151\n      jump\t// in\n    tag_155:\n      swap1\n      swap2\n      sstore\n      pop\n        /* \"src/contracts/WrappedAgToken.sol\":2547:2572  _burn(msg.sender, amount) */\n      tag_156\n      swap1\n      pop\n        /* \"src/contracts/WrappedAgToken.sol\":2553:2563  msg.sender */\n      caller\n        /* \"src/contracts/WrappedAgToken.sol\":2565:2571  amount */\n      dup3\n        /* \"src/contracts/WrappedAgToken.sol\":2547:2552  _burn */\n      tag_157\n        /* \"src/contracts/WrappedAgToken.sol\":2547:2572  _burn(msg.sender, amount) */\n      jump\t// in\n    tag_156:\n        /* \"src/contracts/WrappedAgToken.sol\":2584:2601  underlyingAgToken */\n      sload(0x0a)\n        /* \"src/contracts/WrappedAgToken.sol\":2584:2630  underlyingAgToken.transfer(msg.sender, amount) */\n      mload(0x40)\n      shl(0xe0, 0xa9059cbb)\n      dup2\n      mstore\n        /* \"src/contracts/WrappedAgToken.sol\":2611:2621  msg.sender */\n      caller\n        /* \"src/contracts/WrappedAgToken.sol\":2584:2630  underlyingAgToken.transfer(msg.sender, amount) */\n      0x04\n      dup3\n      add\n        /* \"#utility.yul\":5358:5409   */\n      mstore\n        /* \"#utility.yul\":5425:5443   */\n      0x24\n      dup2\n      add\n        /* \"#utility.yul\":5418:5452   */\n      dup4\n      swap1\n      mstore\n      sub(shl(0xa0, 0x01), 0x01)\n        /* \"src/contracts/WrappedAgToken.sol\":2584:2601  underlyingAgToken */\n      swap1\n      swap2\n      and\n      swap1\n        /* \"src/contracts/WrappedAgToken.sol\":2584:2610  underlyingAgToken.transfer */\n      0xa9059cbb\n      swap1\n        /* \"#utility.yul\":5331:5349   */\n      0x44\n      add\n        /* \"src/contracts/WrappedAgToken.sol\":2584:2630  underlyingAgToken.transfer(msg.sender, amount) */\n      0x20\n      mload(0x40)\n      dup1\n      dup4\n      sub\n      dup2\n      0x00\n      dup8\n      gas\n      call\n      iszero\n      dup1\n      iszero\n      tag_161\n      jumpi\n      returndatasize\n      0x00\n      dup1\n      returndatacopy\n      revert(0x00, returndatasize)\n    tag_161:\n      pop\n      pop\n      pop\n      pop\n      mload(0x40)\n      returndatasize\n      not(0x1f)\n      0x1f\n      dup3\n      add\n      and\n      dup3\n      add\n      dup1\n      0x40\n      mstore\n      pop\n      dup2\n      add\n      swap1\n      tag_162\n      swap2\n      swap1\n      tag_163\n      jump\t// in\n    tag_162:\n      pop\n        /* \"src/contracts/WrappedAgToken.sol\":2646:2676  Withdrawal(msg.sender, amount) */\n      mload(0x40)\n        /* \"#utility.yul\":1797:1822   */\n      dup2\n      dup2\n      mstore\n        /* \"src/contracts/WrappedAgToken.sol\":2657:2667  msg.sender */\n      caller\n      swap1\n        /* \"src/contracts/WrappedAgToken.sol\":2646:2676  Withdrawal(msg.sender, amount) */\n      0x7fcf532c15f0a6db0bd6d0e038bea71d30d808c7d98cb3bf7268a95bf5081b65\n      swap1\n        /* \"#utility.yul\":1785:1787   */\n      0x20\n        /* \"#utility.yul\":1770:1788   */\n      add\n        /* \"src/contracts/WrappedAgToken.sol\":2646:2676  Withdrawal(msg.sender, amount) */\n      mload(0x40)\n      dup1\n      swap2\n      sub\n      swap1\n      log2\n        /* \"src/contracts/WrappedAgToken.sol\":2455:2683  function withdraw(uint256 amount) public {... */\n      pop\n      jump\t// out\n        /* \"lib/solmate/src/tokens/ERC20.sol\":5324:5501  function DOMAIN_SEPARATOR() public view virtual returns (bytes32) {... */\n    tag_68:\n        /* \"lib/solmate/src/tokens/ERC20.sol\":5381:5388  bytes32 */\n      0x00\n        /* \"lib/solmate/src/tokens/ERC20.sol\":5424:5440  INITIAL_CHAIN_ID */\n      immutable(\"0xd67d834462ca31eaef1f30157e31659f60355143b7441e6fc7d9eae1fa79f3f8\")\n        /* \"lib/solmate/src/tokens/ERC20.sol\":5407:5420  block.chainid */\n      chainid\n        /* \"lib/solmate/src/tokens/ERC20.sol\":5407:5440  block.chainid == INITIAL_CHAIN_ID */\n      eq\n        /* \"lib/solmate/src/tokens/ERC20.sol\":5407:5494  block.chainid == INITIAL_CHAIN_ID ? INITIAL_DOMAIN_SEPARATOR : computeDomainSeparator() */\n      tag_166\n      jumpi\n        /* \"lib/solmate/src/tokens/ERC20.sol\":5470:5494  computeDomainSeparator() */\n      tag_167\n        /* \"lib/solmate/src/tokens/ERC20.sol\":5470:5492  computeDomainSeparator */\n      tag_168\n        /* \"lib/solmate/src/tokens/ERC20.sol\":5470:5494  computeDomainSeparator() */\n      jump\t// in\n    tag_167:\n        /* \"lib/solmate/src/tokens/ERC20.sol\":5400:5494  return block.chainid == INITIAL_CHAIN_ID ? INITIAL_DOMAIN_SEPARATOR : computeDomainSeparator() */\n      swap1\n      pop\n        /* \"lib/solmate/src/tokens/ERC20.sol\":5324:5501  function DOMAIN_SEPARATOR() public view virtual returns (bytes32) {... */\n      swap1\n      jump\t// out\n        /* \"lib/solmate/src/tokens/ERC20.sol\":5407:5494  block.chainid == INITIAL_CHAIN_ID ? INITIAL_DOMAIN_SEPARATOR : computeDomainSeparator() */\n    tag_166:\n      pop\n        /* \"lib/solmate/src/tokens/ERC20.sol\":5443:5467  INITIAL_DOMAIN_SEPARATOR */\n      immutable(\"0x880de8116b3dfac28e9ff528a9fef1d1e0a51449c1addce011ffec1f302992b6\")\n      swap1\n        /* \"lib/solmate/src/tokens/ERC20.sol\":5324:5501  function DOMAIN_SEPARATOR() public view virtual returns (bytes32) {... */\n      jump\t// out\n        /* \"src/contracts/WrappedAgToken.sol\":2870:3058  function claim() public {... */\n    tag_78:\n        /* \"src/contracts/WrappedAgToken.sol\":2904:2921  uint256 claimable */\n      0x00\n        /* \"src/contracts/WrappedAgToken.sol\":2938:2950  userDeposits */\n      sload(0x06)\n        /* \"src/contracts/WrappedAgToken.sol\":2924:2935  totalSupply */\n      sload(0x02)\n        /* \"src/contracts/WrappedAgToken.sol\":2924:2950  totalSupply - userDeposits */\n      tag_171\n      swap2\n      swap1\n      tag_151\n      jump\t// in\n    tag_171:\n        /* \"src/contracts/WrappedAgToken.sol\":2961:2978  underlyingAgToken */\n      sload(0x0a)\n        /* \"src/contracts/WrappedAgToken.sol\":2988:3005  interestCollector */\n      sload(0x08)\n        /* \"src/contracts/WrappedAgToken.sol\":2961:3017  underlyingAgToken.transfer(interestCollector, claimable) */\n      mload(0x40)\n      shl(0xe0, 0xa9059cbb)\n      dup2\n      mstore\n      sub(shl(0xa0, 0x01), 0x01)\n        /* \"src/contracts/WrappedAgToken.sol\":2988:3005  interestCollector */\n      swap2\n      dup3\n      and\n        /* \"src/contracts/WrappedAgToken.sol\":2961:3017  underlyingAgToken.transfer(interestCollector, claimable) */\n      0x04\n      dup3\n      add\n        /* \"#utility.yul\":5358:5409   */\n      mstore\n        /* \"#utility.yul\":5425:5443   */\n      0x24\n      dup2\n      add\n        /* \"#utility.yul\":5418:5452   */\n      dup5\n      swap1\n      mstore\n        /* \"src/contracts/WrappedAgToken.sol\":2904:2950  uint256 claimable = totalSupply - userDeposits */\n      swap3\n      swap4\n      pop\n        /* \"src/contracts/WrappedAgToken.sol\":2961:2978  underlyingAgToken */\n      and\n      swap1\n        /* \"src/contracts/WrappedAgToken.sol\":2961:2987  underlyingAgToken.transfer */\n      0xa9059cbb\n      swap1\n        /* \"#utility.yul\":5331:5349   */\n      0x44\n      add\n        /* \"src/contracts/WrappedAgToken.sol\":2961:3017  underlyingAgToken.transfer(interestCollector, claimable) */\n      0x20\n      mload(0x40)\n      dup1\n      dup4\n      sub\n      dup2\n      0x00\n      dup8\n      gas\n      call\n      iszero\n      dup1\n      iszero\n      tag_174\n      jumpi\n      returndatasize\n      0x00\n      dup1\n      returndatacopy\n      revert(0x00, returndatasize)\n    tag_174:\n      pop\n      pop\n      pop\n      pop\n      mload(0x40)\n      returndatasize\n      not(0x1f)\n      0x1f\n      dup3\n      add\n      and\n      dup3\n      add\n      dup1\n      0x40\n      mstore\n      pop\n      dup2\n      add\n      swap1\n      tag_175\n      swap2\n      swap1\n      tag_163\n      jump\t// in\n    tag_175:\n      pop\n        /* \"src/contracts/WrappedAgToken.sol\":3033:3051  Claimed(claimable) */\n      mload(0x40)\n        /* \"#utility.yul\":1797:1822   */\n      dup2\n      dup2\n      mstore\n        /* \"src/contracts/WrappedAgToken.sol\":3033:3051  Claimed(claimable) */\n      0x7a355715549cfe7c1cba26304350343fbddc4b4f72d3ce3e7c27117dd20b5cb8\n      swap1\n        /* \"#utility.yul\":1785:1787   */\n      0x20\n        /* \"#utility.yul\":1770:1788   */\n      add\n        /* \"src/contracts/WrappedAgToken.sol\":3033:3051  Claimed(claimable) */\n      mload(0x40)\n      dup1\n      swap2\n      sub\n      swap1\n      log1\n        /* \"src/contracts/WrappedAgToken.sol\":2894:3058  {... */\n      pop\n        /* \"src/contracts/WrappedAgToken.sol\":2870:3058  function claim() public {... */\n      jump\t// out\n        /* \"lib/solmate/src/tokens/ERC20.sol\":1053:1073  string public symbol */\n    tag_101:\n      0x01\n      dup1\n      sload\n      tag_140\n      swap1\n      tag_141\n      jump\t// in\n        /* \"lib/solmate/src/tokens/ERC20.sol\":2675:3048  function transfer(address to, uint256 amount) public virtual returns (bool) {... */\n    tag_106:\n        /* \"lib/solmate/src/tokens/ERC20.sol\":2771:2781  msg.sender */\n      caller\n        /* \"lib/solmate/src/tokens/ERC20.sol\":2745:2749  bool */\n      0x00\n        /* \"lib/solmate/src/tokens/ERC20.sol\":2761:2782  balanceOf[msg.sender] */\n      swap1\n      dup2\n      mstore\n        /* \"lib/solmate/src/tokens/ERC20.sol\":2761:2770  balanceOf */\n      0x03\n        /* \"lib/solmate/src/tokens/ERC20.sol\":2761:2782  balanceOf[msg.sender] */\n      0x20\n      mstore\n      0x40\n      dup2\n      keccak256\n        /* \"lib/solmate/src/tokens/ERC20.sol\":2761:2792  balanceOf[msg.sender] -= amount */\n      dup1\n      sload\n        /* \"lib/solmate/src/tokens/ERC20.sol\":2786:2792  amount */\n      dup4\n      swap2\n        /* \"lib/solmate/src/tokens/ERC20.sol\":2761:2782  balanceOf[msg.sender] */\n      swap1\n        /* \"lib/solmate/src/tokens/ERC20.sol\":2745:2749  bool */\n      dup4\n      swap1\n        /* \"lib/solmate/src/tokens/ERC20.sol\":2761:2792  balanceOf[msg.sender] -= amount */\n      tag_183\n      swap1\n        /* \"lib/solmate/src/tokens/ERC20.sol\":2786:2792  amount */\n      dup5\n      swap1\n        /* \"lib/solmate/src/tokens/ERC20.sol\":2761:2792  balanceOf[msg.sender] -= amount */\n      tag_151\n      jump\t// in\n    tag_183:\n      swap1\n      swap2\n      sstore\n      pop\n      pop\n      sub(shl(0xa0, 0x01), 0x01)\n        /* \"lib/solmate/src/tokens/ERC20.sol\":2938:2951  balanceOf[to] */\n      dup4\n      and\n      0x00\n      dup2\n      dup2\n      mstore\n        /* \"lib/solmate/src/tokens/ERC20.sol\":2938:2947  balanceOf */\n      0x03\n        /* \"lib/solmate/src/tokens/ERC20.sol\":2938:2951  balanceOf[to] */\n      0x20\n      mstore\n      0x40\n      swap1\n      dup2\n      swap1\n      keccak256\n        /* \"lib/solmate/src/tokens/ERC20.sol\":2938:2961  balanceOf[to] += amount */\n      dup1\n      sload\n      dup6\n      add\n      swap1\n      sstore\n        /* \"lib/solmate/src/tokens/ERC20.sol\":2987:3019  Transfer(msg.sender, to, amount) */\n      mload\n        /* \"lib/solmate/src/tokens/ERC20.sol\":2996:3006  msg.sender */\n      caller\n      swap1\n      0x00\n      dup1\n      mload\n      0x20\n      data_ada389e1fc24a8587c776340efb91b36e675792ab631816100d55df0b5cf3cbc\n      dup4\n      codecopy\n      dup2\n      mload\n      swap2\n      mstore\n        /* \"lib/solmate/src/tokens/ERC20.sol\":2987:3019  Transfer(msg.sender, to, amount) */\n      swap1\n      tag_147\n      swap1\n        /* \"lib/solmate/src/tokens/ERC20.sol\":2955:2961  amount */\n      dup7\n        /* \"#utility.yul\":1797:1822   */\n      dup2\n      mstore\n        /* \"#utility.yul\":1785:1787   */\n      0x20\n        /* \"#utility.yul\":1770:1788   */\n      add\n      swap1\n        /* \"#utility.yul\":1651:1828   */\n      jump\n        /* \"src/contracts/WrappedAgToken.sol\":2203:2449  function deposit(uint256 amount) public isActive() {... */\n    tag_111:\n        /* \"src/contracts/WrappedAgToken.sol\":1867:1871  POOL */\n      sload(0x0b)\n        /* \"src/contracts/WrappedAgToken.sol\":1889:1901  reserveAsset */\n      sload(0x09)\n        /* \"src/contracts/WrappedAgToken.sol\":1867:1902  POOL.getConfiguration(reserveAsset) */\n      mload(0x40)\n      shl(0xe0, 0xc44b11f7)\n      dup2\n      mstore\n      sub(shl(0xa0, 0x01), 0x01)\n        /* \"src/contracts/WrappedAgToken.sol\":1889:1901  reserveAsset */\n      swap2\n      dup3\n      and\n        /* \"src/contracts/WrappedAgToken.sol\":1867:1902  POOL.getConfiguration(reserveAsset) */\n      0x04\n      dup3\n      add\n        /* \"#utility.yul\":2868:2919   */\n      mstore\n        /* \"src/contracts/WrappedAgToken.sol\":1817:1864  DataTypes.ReserveConfigurationMap memory config */\n      0x00\n      swap3\n        /* \"src/contracts/WrappedAgToken.sol\":1867:1871  POOL */\n      swap2\n      swap1\n      swap2\n      and\n      swap1\n        /* \"src/contracts/WrappedAgToken.sol\":1867:1888  POOL.getConfiguration */\n      0xc44b11f7\n      swap1\n        /* \"#utility.yul\":2841:2859   */\n      0x24\n      add\n        /* \"src/contracts/WrappedAgToken.sol\":1867:1902  POOL.getConfiguration(reserveAsset) */\n      0x20\n      mload(0x40)\n      dup1\n      dup4\n      sub\n      dup2\n      dup7\n      gas\n      staticcall\n      iszero\n      dup1\n      iszero\n      tag_188\n      jumpi\n      returndatasize\n      0x00\n      dup1\n      returndatacopy\n      revert(0x00, returndatasize)\n    tag_188:\n      pop\n      pop\n      pop\n      pop\n      mload(0x40)\n      returndatasize\n      not(0x1f)\n      0x1f\n      dup3\n      add\n      and\n      dup3\n      add\n      dup1\n      0x40\n      mstore\n      pop\n      dup2\n      add\n      swap1\n      tag_189\n      swap2\n      swap1\n      tag_190\n      jump\t// in\n    tag_189:\n        /* \"src/contracts/WrappedAgToken.sol\":1930:1941  config.data */\n      dup1\n      mload\n        /* \"src/contracts/WrappedAgToken.sol\":1817:1902  DataTypes.ReserveConfigurationMap memory config = POOL.getConfiguration(reserveAsset) */\n      swap1\n      swap2\n      pop\n        /* \"src/contracts/WrappedAgToken.sol\":1944:1956  ~ACTIVE_MASK */\n      0x0100000000000000\n        /* \"src/contracts/WrappedAgToken.sol\":1930:1956  config.data & ~ACTIVE_MASK */\n      and\n        /* \"src/contracts/WrappedAgToken.sol\":1930:1941  config.data */\n      0x00\n        /* \"src/contracts/WrappedAgToken.sol\":1929:1962  (config.data & ~ACTIVE_MASK) != 0 */\n      sub\n        /* \"src/contracts/WrappedAgToken.sol\":1921:1997  require((config.data & ~ACTIVE_MASK) != 0, \"Underlying Asset is not active\") */\n      tag_191\n      jumpi\n      mload(0x40)\n      shl(0xe5, 0x461bcd)\n      dup2\n      mstore\n        /* \"#utility.yul\":6507:6509   */\n      0x20\n        /* \"src/contracts/WrappedAgToken.sol\":1921:1997  require((config.data & ~ACTIVE_MASK) != 0, \"Underlying Asset is not active\") */\n      0x04\n      dup3\n      add\n        /* \"#utility.yul\":6489:6510   */\n      mstore\n        /* \"#utility.yul\":6546:6548   */\n      0x1e\n        /* \"#utility.yul\":6526:6544   */\n      0x24\n      dup3\n      add\n        /* \"#utility.yul\":6519:6549   */\n      mstore\n        /* \"#utility.yul\":6585:6617   */\n      0x556e6465726c79696e67204173736574206973206e6f74206163746976650000\n        /* \"#utility.yul\":6565:6583   */\n      0x44\n      dup3\n      add\n        /* \"#utility.yul\":6558:6618   */\n      mstore\n        /* \"#utility.yul\":6635:6653   */\n      0x64\n      add\n        /* \"src/contracts/WrappedAgToken.sol\":1921:1997  require((config.data & ~ACTIVE_MASK) != 0, \"Underlying Asset is not active\") */\n      tag_31\n        /* \"#utility.yul\":6305:6659   */\n      jump\n        /* \"src/contracts/WrappedAgToken.sol\":1921:1997  require((config.data & ~ACTIVE_MASK) != 0, \"Underlying Asset is not active\") */\n    tag_191:\n        /* \"src/contracts/WrappedAgToken.sol\":2265:2282  underlyingAgToken */\n      sload(0x0a)\n        /* \"src/contracts/WrappedAgToken.sol\":2265:2330  underlyingAgToken.transferFrom(msg.sender, address(this), amount) */\n      mload(0x40)\n      shl(0xe0, 0x23b872dd)\n      dup2\n      mstore\n        /* \"src/contracts/WrappedAgToken.sol\":2296:2306  msg.sender */\n      caller\n        /* \"src/contracts/WrappedAgToken.sol\":2265:2330  underlyingAgToken.transferFrom(msg.sender, address(this), amount) */\n      0x04\n      dup3\n      add\n        /* \"#utility.yul\":6904:6938   */\n      mstore\n        /* \"src/contracts/WrappedAgToken.sol\":2316:2320  this */\n      address\n        /* \"#utility.yul\":6954:6972   */\n      0x24\n      dup3\n      add\n        /* \"#utility.yul\":6947:6990   */\n      mstore\n        /* \"#utility.yul\":7006:7024   */\n      0x44\n      dup2\n      add\n        /* \"#utility.yul\":6999:7033   */\n      dup5\n      swap1\n      mstore\n      sub(shl(0xa0, 0x01), 0x01)\n        /* \"src/contracts/WrappedAgToken.sol\":2265:2282  underlyingAgToken */\n      swap1\n      swap2\n      and\n      swap1\n        /* \"src/contracts/WrappedAgToken.sol\":2265:2295  underlyingAgToken.transferFrom */\n      0x23b872dd\n      swap1\n        /* \"#utility.yul\":6839:6857   */\n      0x64\n      add\n        /* \"src/contracts/WrappedAgToken.sol\":2265:2330  underlyingAgToken.transferFrom(msg.sender, address(this), amount) */\n      0x20\n      mload(0x40)\n      dup1\n      dup4\n      sub\n      dup2\n      0x00\n      dup8\n      gas\n      call\n      iszero\n      dup1\n      iszero\n      tag_198\n      jumpi\n      returndatasize\n      0x00\n      dup1\n      returndatacopy\n      revert(0x00, returndatasize)\n    tag_198:\n      pop\n      pop\n      pop\n      pop\n      mload(0x40)\n      returndatasize\n      not(0x1f)\n      0x1f\n      dup3\n      add\n      and\n      dup3\n      add\n      dup1\n      0x40\n      mstore\n      pop\n      dup2\n      add\n      swap1\n      tag_199\n      swap2\n      swap1\n      tag_163\n      jump\t// in\n    tag_199:\n      pop\n        /* \"src/contracts/WrappedAgToken.sol\":2341:2366  _mint(msg.sender, amount) */\n      tag_200\n        /* \"src/contracts/WrappedAgToken.sol\":2347:2357  msg.sender */\n      caller\n        /* \"src/contracts/WrappedAgToken.sol\":2359:2365  amount */\n      dup4\n        /* \"src/contracts/WrappedAgToken.sol\":2341:2346  _mint */\n      tag_201\n        /* \"src/contracts/WrappedAgToken.sol\":2341:2366  _mint(msg.sender, amount) */\n      jump\t// in\n    tag_200:\n        /* \"src/contracts/WrappedAgToken.sol\":2393:2399  amount */\n      dup2\n        /* \"src/contracts/WrappedAgToken.sol\":2377:2389  userDeposits */\n      0x06\n      0x00\n        /* \"src/contracts/WrappedAgToken.sol\":2377:2399  userDeposits += amount */\n      dup3\n      dup3\n      sload\n      tag_202\n      swap2\n      swap1\n      tag_203\n      jump\t// in\n    tag_202:\n      swap1\n      swap2\n      sstore\n      pop\n      pop\n        /* \"src/contracts/WrappedAgToken.sol\":2415:2442  Deposit(msg.sender, amount) */\n      mload(0x40)\n        /* \"#utility.yul\":1797:1822   */\n      dup3\n      dup2\n      mstore\n        /* \"src/contracts/WrappedAgToken.sol\":2423:2433  msg.sender */\n      caller\n      swap1\n        /* \"src/contracts/WrappedAgToken.sol\":2415:2442  Deposit(msg.sender, amount) */\n      0xe1fffcc4923d04b559f4d29a8bfc6cda04eb5b0d3c460751c2402c5c5cc9109c\n      swap1\n        /* \"#utility.yul\":1785:1787   */\n      0x20\n        /* \"#utility.yul\":1770:1788   */\n      add\n        /* \"src/contracts/WrappedAgToken.sol\":2415:2442  Deposit(msg.sender, amount) */\n      mload(0x40)\n      dup1\n      swap2\n      sub\n      swap1\n      log2\n        /* \"src/contracts/WrappedAgToken.sol\":1807:2015  {... */\n      pop\n        /* \"src/contracts/WrappedAgToken.sol\":2203:2449  function deposit(uint256 amount) public isActive() {... */\n      pop\n      jump\t// out\n        /* \"src/contracts/WrappedAgToken.sol\":3065:3187  function setInterestCollector(address newCollector) external isManager() {... */\n    tag_115:\n        /* \"src/contracts/WrappedAgToken.sol\":1740:1747  manager */\n      and(sub(shl(0xa0, 0x01), 0x01), sload(0x07))\n        /* \"src/contracts/WrappedAgToken.sol\":1726:1736  msg.sender */\n      caller\n        /* \"src/contracts/WrappedAgToken.sol\":1726:1747  msg.sender == manager */\n      eq\n        /* \"src/contracts/WrappedAgToken.sol\":1718:1764  require(msg.sender == manager, \"UNAUTHORIZED\") */\n      tag_206\n      jumpi\n      mload(0x40)\n      shl(0xe5, 0x461bcd)\n      dup2\n      mstore\n        /* \"#utility.yul\":7379:7381   */\n      0x20\n        /* \"src/contracts/WrappedAgToken.sol\":1718:1764  require(msg.sender == manager, \"UNAUTHORIZED\") */\n      0x04\n      dup3\n      add\n        /* \"#utility.yul\":7361:7382   */\n      mstore\n        /* \"#utility.yul\":7418:7420   */\n      0x0c\n        /* \"#utility.yul\":7398:7416   */\n      0x24\n      dup3\n      add\n        /* \"#utility.yul\":7391:7421   */\n      mstore\n      shl(0xa2, 0x15539055551213d492569151)\n        /* \"#utility.yul\":7437:7455   */\n      0x44\n      dup3\n      add\n        /* \"#utility.yul\":7430:7472   */\n      mstore\n        /* \"#utility.yul\":7489:7507   */\n      0x64\n      add\n        /* \"src/contracts/WrappedAgToken.sol\":1718:1764  require(msg.sender == manager, \"UNAUTHORIZED\") */\n      tag_31\n        /* \"#utility.yul\":7177:7513   */\n      jump\n        /* \"src/contracts/WrappedAgToken.sol\":1718:1764  require(msg.sender == manager, \"UNAUTHORIZED\") */\n    tag_206:\n        /* \"src/contracts/WrappedAgToken.sol\":3148:3165  interestCollector */\n      0x08\n        /* \"src/contracts/WrappedAgToken.sol\":3148:3180  interestCollector = newCollector */\n      dup1\n      sload\n      not(sub(shl(0xa0, 0x01), 0x01))\n      and\n      sub(shl(0xa0, 0x01), 0x01)\n      swap3\n      swap1\n      swap3\n      and\n      swap2\n      swap1\n      swap2\n      or\n      swap1\n      sstore\n        /* \"src/contracts/WrappedAgToken.sol\":3065:3187  function setInterestCollector(address newCollector) external isManager() {... */\n      jump\t// out\n        /* \"src/contracts/WrappedAgToken.sol\":3193:3291  function setManager(address newManager) external isManager() {... */\n    tag_119:\n        /* \"src/contracts/WrappedAgToken.sol\":1740:1747  manager */\n      and(sub(shl(0xa0, 0x01), 0x01), sload(0x07))\n        /* \"src/contracts/WrappedAgToken.sol\":1726:1736  msg.sender */\n      caller\n        /* \"src/contracts/WrappedAgToken.sol\":1726:1747  msg.sender == manager */\n      eq\n        /* \"src/contracts/WrappedAgToken.sol\":1718:1764  require(msg.sender == manager, \"UNAUTHORIZED\") */\n      tag_211\n      jumpi\n      mload(0x40)\n      shl(0xe5, 0x461bcd)\n      dup2\n      mstore\n        /* \"#utility.yul\":7379:7381   */\n      0x20\n        /* \"src/contracts/WrappedAgToken.sol\":1718:1764  require(msg.sender == manager, \"UNAUTHORIZED\") */\n      0x04\n      dup3\n      add\n        /* \"#utility.yul\":7361:7382   */\n      mstore\n        /* \"#utility.yul\":7418:7420   */\n      0x0c\n        /* \"#utility.yul\":7398:7416   */\n      0x24\n      dup3\n      add\n        /* \"#utility.yul\":7391:7421   */\n      mstore\n      shl(0xa2, 0x15539055551213d492569151)\n        /* \"#utility.yul\":7437:7455   */\n      0x44\n      dup3\n      add\n        /* \"#utility.yul\":7430:7472   */\n      mstore\n        /* \"#utility.yul\":7489:7507   */\n      0x64\n      add\n        /* \"src/contracts/WrappedAgToken.sol\":1718:1764  require(msg.sender == manager, \"UNAUTHORIZED\") */\n      tag_31\n        /* \"#utility.yul\":7177:7513   */\n      jump\n        /* \"src/contracts/WrappedAgToken.sol\":1718:1764  require(msg.sender == manager, \"UNAUTHORIZED\") */\n    tag_211:\n        /* \"src/contracts/WrappedAgToken.sol\":3264:3271  manager */\n      0x07\n        /* \"src/contracts/WrappedAgToken.sol\":3264:3284  manager = newManager */\n      dup1\n      sload\n      not(sub(shl(0xa0, 0x01), 0x01))\n      and\n      sub(shl(0xa0, 0x01), 0x01)\n      swap3\n      swap1\n      swap3\n      and\n      swap2\n      swap1\n      swap2\n      or\n      swap1\n      sstore\n        /* \"src/contracts/WrappedAgToken.sol\":3193:3291  function setManager(address newManager) external isManager() {... */\n      jump\t// out\n        /* \"lib/solmate/src/tokens/ERC20.sol\":3835:5318  function permit(... */\n    tag_124:\n        /* \"lib/solmate/src/tokens/ERC20.sol\":4054:4069  block.timestamp */\n      timestamp\n        /* \"lib/solmate/src/tokens/ERC20.sol\":4042:4050  deadline */\n      dup5\n        /* \"lib/solmate/src/tokens/ERC20.sol\":4042:4069  deadline >= block.timestamp */\n      lt\n      iszero\n        /* \"lib/solmate/src/tokens/ERC20.sol\":4034:4097  require(deadline >= block.timestamp, \"PERMIT_DEADLINE_EXPIRED\") */\n      tag_215\n      jumpi\n      mload(0x40)\n      shl(0xe5, 0x461bcd)\n      dup2\n      mstore\n        /* \"#utility.yul\":7720:7722   */\n      0x20\n        /* \"lib/solmate/src/tokens/ERC20.sol\":4034:4097  require(deadline >= block.timestamp, \"PERMIT_DEADLINE_EXPIRED\") */\n      0x04\n      dup3\n      add\n        /* \"#utility.yul\":7702:7723   */\n      mstore\n        /* \"#utility.yul\":7759:7761   */\n      0x17\n        /* \"#utility.yul\":7739:7757   */\n      0x24\n      dup3\n      add\n        /* \"#utility.yul\":7732:7762   */\n      mstore\n        /* \"#utility.yul\":7798:7823   */\n      0x5045524d49545f444541444c494e455f45585049524544000000000000000000\n        /* \"#utility.yul\":7778:7796   */\n      0x44\n      dup3\n      add\n        /* \"#utility.yul\":7771:7824   */\n      mstore\n        /* \"#utility.yul\":7841:7859   */\n      0x64\n      add\n        /* \"lib/solmate/src/tokens/ERC20.sol\":4034:4097  require(deadline >= block.timestamp, \"PERMIT_DEADLINE_EXPIRED\") */\n      tag_31\n        /* \"#utility.yul\":7518:7865   */\n      jump\n        /* \"lib/solmate/src/tokens/ERC20.sol\":4034:4097  require(deadline >= block.timestamp, \"PERMIT_DEADLINE_EXPIRED\") */\n    tag_215:\n        /* \"lib/solmate/src/tokens/ERC20.sol\":4262:4286  address recoveredAddress */\n      0x00\n        /* \"lib/solmate/src/tokens/ERC20.sol\":4289:5094  ecrecover(... */\n      0x01\n        /* \"lib/solmate/src/tokens/ERC20.sol\":4425:4443  DOMAIN_SEPARATOR() */\n      tag_218\n        /* \"lib/solmate/src/tokens/ERC20.sol\":4425:4441  DOMAIN_SEPARATOR */\n      tag_68\n        /* \"lib/solmate/src/tokens/ERC20.sol\":4425:4443  DOMAIN_SEPARATOR() */\n      jump\t// in\n    tag_218:\n      sub(shl(0xa0, 0x01), 0x01)\n        /* \"lib/solmate/src/tokens/ERC20.sol\":4870:4883  nonces[owner] */\n      dup11\n      dup2\n      and\n      0x00\n      dup2\n      dup2\n      mstore\n        /* \"lib/solmate/src/tokens/ERC20.sol\":4870:4876  nonces */\n      0x05\n        /* \"lib/solmate/src/tokens/ERC20.sol\":4870:4883  nonces[owner] */\n      0x20\n      swap1\n      dup2\n      mstore\n      0x40\n      swap2\n      dup3\n      swap1\n      keccak256\n        /* \"lib/solmate/src/tokens/ERC20.sol\":4870:4885  nonces[owner]++ */\n      dup1\n      sload\n      0x01\n      dup2\n      add\n      swap1\n      swap2\n      sstore\n        /* \"lib/solmate/src/tokens/ERC20.sol\":4508:4957  abi.encode(... */\n      dup3\n      mload\n        /* \"lib/solmate/src/tokens/ERC20.sol\":4552:4717  keccak256(... */\n      0x6e71edae12b1b97f4d1f60370fef10105fa2faae0126114a169c64845d6126c9\n        /* \"lib/solmate/src/tokens/ERC20.sol\":4508:4957  abi.encode(... */\n      dup2\n      dup5\n      add\n        /* \"#utility.yul\":8157:8182   */\n      mstore\n        /* \"#utility.yul\":8236:8254   */\n      dup1\n      dup5\n      add\n        /* \"#utility.yul\":8229:8272   */\n      swap5\n      swap1\n      swap5\n      mstore\n        /* \"#utility.yul\":8308:8323   */\n      swap4\n      dup14\n      and\n        /* \"#utility.yul\":8288:8306   */\n      0x60\n      dup5\n      add\n        /* \"#utility.yul\":8281:8324   */\n      mstore\n        /* \"#utility.yul\":8340:8358   */\n      0x80\n      dup4\n      add\n        /* \"#utility.yul\":8333:8367   */\n      dup13\n      swap1\n      mstore\n        /* \"#utility.yul\":8383:8402   */\n      0xa0\n      dup4\n      add\n        /* \"#utility.yul\":8376:8411   */\n      swap4\n      swap1\n      swap4\n      mstore\n        /* \"#utility.yul\":8427:8446   */\n      0xc0\n      dup1\n      dup4\n      add\n        /* \"#utility.yul\":8420:8455   */\n      dup12\n      swap1\n      mstore\n        /* \"lib/solmate/src/tokens/ERC20.sol\":4508:4957  abi.encode(... */\n      dup2\n      mload\n      dup1\n      dup5\n      sub\n      swap1\n      swap2\n      add\n      dup2\n      mstore\n        /* \"#utility.yul\":8129:8148   */\n      0xe0\n      dup4\n      add\n        /* \"lib/solmate/src/tokens/ERC20.sol\":4508:4957  abi.encode(... */\n      swap1\n      swap2\n      mstore\n        /* \"lib/solmate/src/tokens/ERC20.sol\":4469:4983  keccak256(... */\n      dup1\n      mload\n      swap3\n      add\n      swap2\n      swap1\n      swap2\n      keccak256\n      shl(0xf0, 0x1901)\n        /* \"lib/solmate/src/tokens/ERC20.sol\":4347:5005  abi.encodePacked(... */\n      0x0100\n      dup4\n      add\n        /* \"#utility.yul\":8724:8751   */\n      mstore\n        /* \"#utility.yul\":8767:8778   */\n      0x0102\n      dup3\n      add\n        /* \"#utility.yul\":8760:8787   */\n      swap3\n      swap1\n      swap3\n      mstore\n        /* \"#utility.yul\":8803:8815   */\n      0x0122\n      dup2\n      add\n        /* \"#utility.yul\":8796:8824   */\n      swap2\n      swap1\n      swap2\n      mstore\n        /* \"#utility.yul\":8840:8852   */\n      0x0142\n      add\n        /* \"lib/solmate/src/tokens/ERC20.sol\":4347:5005  abi.encodePacked(... */\n      0x40\n      dup1\n      mload\n      not(0x1f)\n      dup2\n      dup5\n      sub\n      add\n      dup2\n      mstore\n      dup3\n      dup3\n      mstore\n        /* \"lib/solmate/src/tokens/ERC20.sol\":4316:5023  keccak256(... */\n      dup1\n      mload\n        /* \"lib/solmate/src/tokens/ERC20.sol\":4347:5005  abi.encodePacked(... */\n      0x20\n        /* \"lib/solmate/src/tokens/ERC20.sol\":4316:5023  keccak256(... */\n      swap2\n      dup3\n      add\n      keccak256\n        /* \"lib/solmate/src/tokens/ERC20.sol\":4289:5094  ecrecover(... */\n      0x00\n      dup5\n      mstore\n      swap1\n      dup4\n      add\n      dup1\n      dup4\n      mstore\n        /* \"#utility.yul\":9090:9115   */\n      mstore\n        /* \"#utility.yul\":9163:9167   */\n      0xff\n        /* \"#utility.yul\":9151:9168   */\n      dup8\n      and\n        /* \"#utility.yul\":9131:9149   */\n      swap1\n      dup3\n      add\n        /* \"#utility.yul\":9124:9169   */\n      mstore\n        /* \"#utility.yul\":9185:9203   */\n      0x60\n      dup2\n      add\n        /* \"#utility.yul\":9178:9212   */\n      dup6\n      swap1\n      mstore\n        /* \"#utility.yul\":9228:9246   */\n      0x80\n      dup2\n      add\n        /* \"#utility.yul\":9221:9255   */\n      dup5\n      swap1\n      mstore\n        /* \"#utility.yul\":9062:9081   */\n      0xa0\n      add\n        /* \"lib/solmate/src/tokens/ERC20.sol\":4289:5094  ecrecover(... */\n      0x20\n      mload(0x40)\n      0x20\n      dup2\n      sub\n      swap1\n      dup1\n      dup5\n      sub\n      swap1\n      dup6\n      gas\n      staticcall\n      iszero\n      dup1\n      iszero\n      tag_226\n      jumpi\n      returndatasize\n      0x00\n      dup1\n      returndatacopy\n      revert(0x00, returndatasize)\n    tag_226:\n      pop\n      pop\n      mload(add(not(0x1f), mload(0x40)))\n      swap2\n      pop\n      pop\n      sub(shl(0xa0, 0x01), 0x01)\n        /* \"lib/solmate/src/tokens/ERC20.sol\":5117:5147  recoveredAddress != address(0) */\n      dup2\n      and\n      iszero\n      dup1\n      iszero\n      swap1\n        /* \"lib/solmate/src/tokens/ERC20.sol\":5117:5176  recoveredAddress != address(0) && recoveredAddress == owner */\n      tag_227\n      jumpi\n      pop\n        /* \"lib/solmate/src/tokens/ERC20.sol\":5171:5176  owner */\n      dup8\n      sub(shl(0xa0, 0x01), 0x01)\n        /* \"lib/solmate/src/tokens/ERC20.sol\":5151:5176  recoveredAddress == owner */\n      and\n        /* \"lib/solmate/src/tokens/ERC20.sol\":5151:5167  recoveredAddress */\n      dup2\n      sub(shl(0xa0, 0x01), 0x01)\n        /* \"lib/solmate/src/tokens/ERC20.sol\":5151:5176  recoveredAddress == owner */\n      and\n      eq\n        /* \"lib/solmate/src/tokens/ERC20.sol\":5117:5176  recoveredAddress != address(0) && recoveredAddress == owner */\n    tag_227:\n        /* \"lib/solmate/src/tokens/ERC20.sol\":5109:5195  require(recoveredAddress != address(0) && recoveredAddress == owner, \"INVALID_SIGNER\") */\n      tag_228\n      jumpi\n      mload(0x40)\n      shl(0xe5, 0x461bcd)\n      dup2\n      mstore\n        /* \"#utility.yul\":9468:9470   */\n      0x20\n        /* \"lib/solmate/src/tokens/ERC20.sol\":5109:5195  require(recoveredAddress != address(0) && recoveredAddress == owner, \"INVALID_SIGNER\") */\n      0x04\n      dup3\n      add\n        /* \"#utility.yul\":9450:9471   */\n      mstore\n        /* \"#utility.yul\":9507:9509   */\n      0x0e\n        /* \"#utility.yul\":9487:9505   */\n      0x24\n      dup3\n      add\n        /* \"#utility.yul\":9480:9510   */\n      mstore\n      shl(0x91, 0x24a72b20a624a22fa9a4a3a722a9)\n        /* \"#utility.yul\":9526:9544   */\n      0x44\n      dup3\n      add\n        /* \"#utility.yul\":9519:9563   */\n      mstore\n        /* \"#utility.yul\":9580:9598   */\n      0x64\n      add\n        /* \"lib/solmate/src/tokens/ERC20.sol\":5109:5195  require(recoveredAddress != address(0) && recoveredAddress == owner, \"INVALID_SIGNER\") */\n      tag_31\n        /* \"#utility.yul\":9266:9604   */\n      jump\n        /* \"lib/solmate/src/tokens/ERC20.sol\":5109:5195  require(recoveredAddress != address(0) && recoveredAddress == owner, \"INVALID_SIGNER\") */\n    tag_228:\n      sub(shl(0xa0, 0x01), 0x01)\n        /* \"lib/solmate/src/tokens/ERC20.sol\":5210:5237  allowance[recoveredAddress] */\n      swap1\n      dup2\n      and\n      0x00\n      swap1\n      dup2\n      mstore\n        /* \"lib/solmate/src/tokens/ERC20.sol\":5210:5219  allowance */\n      0x04\n        /* \"lib/solmate/src/tokens/ERC20.sol\":5210:5237  allowance[recoveredAddress] */\n      0x20\n      swap1\n      dup2\n      mstore\n      0x40\n      dup1\n      dup4\n      keccak256\n        /* \"lib/solmate/src/tokens/ERC20.sol\":5210:5246  allowance[recoveredAddress][spender] */\n      dup11\n      dup6\n      and\n      dup1\n      dup6\n      mstore\n      swap1\n      dup4\n      mstore\n      swap3\n      dup2\n      swap1\n      keccak256\n        /* \"lib/solmate/src/tokens/ERC20.sol\":5210:5254  allowance[recoveredAddress][spender] = value */\n      dup10\n      swap1\n      sstore\n        /* \"lib/solmate/src/tokens/ERC20.sol\":5280:5311  Approval(owner, spender, value) */\n      mload\n        /* \"#utility.yul\":1797:1822   */\n      dup9\n      dup2\n      mstore\n        /* \"lib/solmate/src/tokens/ERC20.sol\":5210:5246  allowance[recoveredAddress][spender] */\n      swap2\n      swap3\n        /* \"lib/solmate/src/tokens/ERC20.sol\":5280:5311  Approval(owner, spender, value) */\n      dup11\n      and\n      swap2\n      0x8c5be1e5ebec7d5bd14f71427d1e84f3dd0314c0f7b2291e5b200ac8c7c3b925\n      swap2\n        /* \"#utility.yul\":1770:1788   */\n      add\n        /* \"lib/solmate/src/tokens/ERC20.sol\":5280:5311  Approval(owner, spender, value) */\n      mload(0x40)\n      dup1\n      swap2\n      sub\n      swap1\n      log3\n        /* \"lib/solmate/src/tokens/ERC20.sol\":3835:5318  function permit(... */\n      pop\n      pop\n      pop\n      pop\n      pop\n      pop\n      pop\n      jump\t// out\n        /* \"lib/solmate/src/tokens/ERC20.sol\":6478:6806  function _burn(address from, uint256 amount) internal virtual {... */\n    tag_157:\n      sub(shl(0xa0, 0x01), 0x01)\n        /* \"lib/solmate/src/tokens/ERC20.sol\":6550:6565  balanceOf[from] */\n      dup3\n      and\n      0x00\n      swap1\n      dup2\n      mstore\n        /* \"lib/solmate/src/tokens/ERC20.sol\":6550:6559  balanceOf */\n      0x03\n        /* \"lib/solmate/src/tokens/ERC20.sol\":6550:6565  balanceOf[from] */\n      0x20\n      mstore\n      0x40\n      dup2\n      keccak256\n        /* \"lib/solmate/src/tokens/ERC20.sol\":6550:6575  balanceOf[from] -= amount */\n      dup1\n      sload\n        /* \"lib/solmate/src/tokens/ERC20.sol\":6569:6575  amount */\n      dup4\n      swap3\n        /* \"lib/solmate/src/tokens/ERC20.sol\":6550:6565  balanceOf[from] */\n      swap1\n        /* \"lib/solmate/src/tokens/ERC20.sol\":6550:6575  balanceOf[from] -= amount */\n      tag_233\n      swap1\n        /* \"lib/solmate/src/tokens/ERC20.sol\":6569:6575  amount */\n      dup5\n      swap1\n        /* \"lib/solmate/src/tokens/ERC20.sol\":6550:6575  balanceOf[from] -= amount */\n      tag_151\n      jump\t// in\n    tag_233:\n      swap1\n      swap2\n      sstore\n      pop\n      pop\n        /* \"lib/solmate/src/tokens/ERC20.sol\":6718:6729  totalSupply */\n      0x02\n        /* \"lib/solmate/src/tokens/ERC20.sol\":6718:6739  totalSupply -= amount */\n      dup1\n      sload\n      dup3\n      swap1\n      sub\n      swap1\n      sstore\n        /* \"lib/solmate/src/tokens/ERC20.sol\":6765:6799  Transfer(from, address(0), amount) */\n      mload(0x40)\n        /* \"#utility.yul\":1797:1822   */\n      dup2\n      dup2\n      mstore\n      0x00\n      swap1\n      sub(shl(0xa0, 0x01), 0x01)\n        /* \"lib/solmate/src/tokens/ERC20.sol\":6765:6799  Transfer(from, address(0), amount) */\n      dup5\n      and\n      swap1\n      0x00\n      dup1\n      mload\n      0x20\n      data_ada389e1fc24a8587c776340efb91b36e675792ab631816100d55df0b5cf3cbc\n      dup4\n      codecopy\n      dup2\n      mload\n      swap2\n      mstore\n      swap1\n        /* \"#utility.yul\":1785:1787   */\n      0x20\n        /* \"#utility.yul\":1770:1788   */\n      add\n        /* \"lib/solmate/src/tokens/ERC20.sol\":6765:6799  Transfer(from, address(0), amount) */\n    tag_234:\n      mload(0x40)\n      dup1\n      swap2\n      sub\n      swap1\n      log3\n        /* \"lib/solmate/src/tokens/ERC20.sol\":6478:6806  function _burn(address from, uint256 amount) internal virtual {... */\n      pop\n      pop\n      jump\t// out\n        /* \"lib/solmate/src/tokens/ERC20.sol\":5507:5953  function computeDomainSeparator() internal view virtual returns (bytes32) {... */\n    tag_168:\n        /* \"lib/solmate/src/tokens/ERC20.sol\":5572:5579  bytes32 */\n      0x00\n        /* \"lib/solmate/src/tokens/ERC20.sol\":5669:5764  keccak256(\"EIP712Domain(string name,string version,uint256 chainId,address verifyingContract)\") */\n      0x8b73c3c69bb8fe3d512ecc4cf759cc79239f7b179b0ffacaa9a75d522b39400f\n        /* \"lib/solmate/src/tokens/ERC20.sol\":5802:5806  name */\n      0x00\n        /* \"lib/solmate/src/tokens/ERC20.sol\":5786:5808  keccak256(bytes(name)) */\n      mload(0x40)\n      tag_236\n      swap2\n      swap1\n      tag_237\n      jump\t// in\n    tag_236:\n      0x40\n      dup1\n      mload\n      swap2\n      dup3\n      swap1\n      sub\n      dup3\n      keccak256\n        /* \"lib/solmate/src/tokens/ERC20.sol\":5637:5932  abi.encode(... */\n      0x20\n      dup4\n      add\n        /* \"#utility.yul\":11106:11131   */\n      swap4\n      swap1\n      swap4\n      mstore\n        /* \"#utility.yul\":11147:11165   */\n      dup2\n      add\n        /* \"#utility.yul\":11140:11174   */\n      swap2\n      swap1\n      swap2\n      mstore\n        /* \"lib/solmate/src/tokens/ERC20.sol\":5830:5844  keccak256(\"1\") */\n      0xc89efdaa54c0f20c7adf612882df0950f5a951637e0307cdcb4c672f298b8bc6\n        /* \"#utility.yul\":11190:11208   */\n      0x60\n      dup3\n      add\n        /* \"#utility.yul\":11183:11217   */\n      mstore\n        /* \"lib/solmate/src/tokens/ERC20.sol\":5866:5879  block.chainid */\n      chainid\n        /* \"#utility.yul\":11233:11251   */\n      0x80\n      dup3\n      add\n        /* \"#utility.yul\":11226:11260   */\n      mstore\n        /* \"lib/solmate/src/tokens/ERC20.sol\":5909:5913  this */\n      address\n        /* \"#utility.yul\":11276:11295   */\n      0xa0\n      dup3\n      add\n        /* \"#utility.yul\":11269:11330   */\n      mstore\n        /* \"#utility.yul\":11078:11097   */\n      0xc0\n      add\n        /* \"lib/solmate/src/tokens/ERC20.sol\":5637:5932  abi.encode(... */\n      mload(0x40)\n      0x20\n      dup2\n      dup4\n      sub\n      sub\n      dup2\n      mstore\n      swap1\n      0x40\n      mstore\n        /* \"lib/solmate/src/tokens/ERC20.sol\":5610:5946  keccak256(... */\n      dup1\n      mload\n      swap1\n      0x20\n      add\n      keccak256\n        /* \"lib/solmate/src/tokens/ERC20.sol\":5591:5946  return... */\n      swap1\n      pop\n        /* \"lib/solmate/src/tokens/ERC20.sol\":5507:5953  function computeDomainSeparator() internal view virtual returns (bytes32) {... */\n      swap1\n      jump\t// out\n        /* \"lib/solmate/src/tokens/ERC20.sol\":6147:6472  function _mint(address to, uint256 amount) internal virtual {... */\n    tag_201:\n        /* \"lib/solmate/src/tokens/ERC20.sol\":6232:6238  amount */\n      dup1\n        /* \"lib/solmate/src/tokens/ERC20.sol\":6217:6228  totalSupply */\n      0x02\n      0x00\n        /* \"lib/solmate/src/tokens/ERC20.sol\":6217:6238  totalSupply += amount */\n      dup3\n      dup3\n      sload\n      tag_241\n      swap2\n      swap1\n      tag_203\n      jump\t// in\n    tag_241:\n      swap1\n      swap2\n      sstore\n      pop\n      pop\n      sub(shl(0xa0, 0x01), 0x01)\n        /* \"lib/solmate/src/tokens/ERC20.sol\":6384:6397  balanceOf[to] */\n      dup3\n      and\n      0x00\n      dup2\n      dup2\n      mstore\n        /* \"lib/solmate/src/tokens/ERC20.sol\":6384:6393  balanceOf */\n      0x03\n        /* \"lib/solmate/src/tokens/ERC20.sol\":6384:6397  balanceOf[to] */\n      0x20\n      swap1\n      dup2\n      mstore\n      0x40\n      dup1\n      dup4\n      keccak256\n        /* \"lib/solmate/src/tokens/ERC20.sol\":6384:6407  balanceOf[to] += amount */\n      dup1\n      sload\n      dup7\n      add\n      swap1\n      sstore\n        /* \"lib/solmate/src/tokens/ERC20.sol\":6433:6465  Transfer(address(0), to, amount) */\n      mload\n        /* \"#utility.yul\":1797:1822   */\n      dup5\n      dup2\n      mstore\n      0x00\n      dup1\n      mload\n      0x20\n      data_ada389e1fc24a8587c776340efb91b36e675792ab631816100d55df0b5cf3cbc\n      dup4\n      codecopy\n      dup2\n      mload\n      swap2\n      mstore\n        /* \"lib/solmate/src/tokens/ERC20.sol\":6433:6465  Transfer(address(0), to, amount) */\n      swap2\n        /* \"#utility.yul\":1770:1788   */\n      add\n        /* \"lib/solmate/src/tokens/ERC20.sol\":6433:6465  Transfer(address(0), to, amount) */\n      tag_234\n        /* \"#utility.yul\":1651:1828   */\n      jump\n        /* \"#utility.yul\":420:1017   */\n    tag_37:\n        /* \"#utility.yul\":532:536   */\n      0x00\n        /* \"#utility.yul\":561:563   */\n      0x20\n        /* \"#utility.yul\":590:592   */\n      dup1\n        /* \"#utility.yul\":579:588   */\n      dup4\n        /* \"#utility.yul\":572:593   */\n      mstore\n        /* \"#utility.yul\":622:628   */\n      dup4\n        /* \"#utility.yul\":616:629   */\n      mload\n        /* \"#utility.yul\":665:671   */\n      dup1\n        /* \"#utility.yul\":660:662   */\n      dup3\n        /* \"#utility.yul\":649:658   */\n      dup6\n        /* \"#utility.yul\":645:663   */\n      add\n        /* \"#utility.yul\":638:672   */\n      mstore\n        /* \"#utility.yul\":690:691   */\n      0x00\n        /* \"#utility.yul\":700:840   */\n    tag_249:\n        /* \"#utility.yul\":714:720   */\n      dup2\n        /* \"#utility.yul\":711:712   */\n      dup2\n        /* \"#utility.yul\":708:721   */\n      lt\n        /* \"#utility.yul\":700:840   */\n      iszero\n      tag_251\n      jumpi\n        /* \"#utility.yul\":809:823   */\n      dup6\n      dup2\n      add\n        /* \"#utility.yul\":805:828   */\n      dup4\n      add\n        /* \"#utility.yul\":799:829   */\n      mload\n        /* \"#utility.yul\":775:792   */\n      dup6\n      dup3\n      add\n        /* \"#utility.yul\":794:796   */\n      0x40\n        /* \"#utility.yul\":771:797   */\n      add\n        /* \"#utility.yul\":764:830   */\n      mstore\n        /* \"#utility.yul\":729:739   */\n      dup3\n      add\n        /* \"#utility.yul\":700:840   */\n      jump(tag_249)\n    tag_251:\n        /* \"#utility.yul\":858:864   */\n      dup2\n        /* \"#utility.yul\":855:856   */\n      dup2\n        /* \"#utility.yul\":852:865   */\n      gt\n        /* \"#utility.yul\":849:940   */\n      iszero\n      tag_252\n      jumpi\n        /* \"#utility.yul\":928:929   */\n      0x00\n        /* \"#utility.yul\":923:925   */\n      0x40\n        /* \"#utility.yul\":914:920   */\n      dup4\n        /* \"#utility.yul\":903:912   */\n      dup8\n        /* \"#utility.yul\":899:921   */\n      add\n        /* \"#utility.yul\":895:926   */\n      add\n        /* \"#utility.yul\":888:930   */\n      mstore\n        /* \"#utility.yul\":849:940   */\n    tag_252:\n      pop\n        /* \"#utility.yul\":1001:1003   */\n      0x1f\n        /* \"#utility.yul\":980:995   */\n      add\n      not(0x1f)\n        /* \"#utility.yul\":976:1005   */\n      and\n        /* \"#utility.yul\":961:1006   */\n      swap3\n      swap1\n      swap3\n      add\n        /* \"#utility.yul\":1008:1010   */\n      0x40\n        /* \"#utility.yul\":957:1011   */\n      add\n      swap4\n        /* \"#utility.yul\":420:1017   */\n      swap3\n      pop\n      pop\n      pop\n      jump\t// out\n        /* \"#utility.yul\":1022:1195   */\n    tag_243:\n        /* \"#utility.yul\":1090:1110   */\n      dup1\n      calldataload\n      sub(shl(0xa0, 0x01), 0x01)\n        /* \"#utility.yul\":1139:1170   */\n      dup2\n      and\n        /* \"#utility.yul\":1129:1171   */\n      dup2\n      eq\n        /* \"#utility.yul\":1119:1189   */\n      tag_254\n      jumpi\n        /* \"#utility.yul\":1185:1186   */\n      0x00\n        /* \"#utility.yul\":1182:1183   */\n      dup1\n        /* \"#utility.yul\":1175:1187   */\n      revert\n        /* \"#utility.yul\":1119:1189   */\n    tag_254:\n        /* \"#utility.yul\":1022:1195   */\n      swap2\n      swap1\n      pop\n      jump\t// out\n        /* \"#utility.yul\":1200:1454   */\n    tag_41:\n        /* \"#utility.yul\":1268:1274   */\n      0x00\n        /* \"#utility.yul\":1276:1282   */\n      dup1\n        /* \"#utility.yul\":1329:1331   */\n      0x40\n        /* \"#utility.yul\":1317:1326   */\n      dup4\n        /* \"#utility.yul\":1308:1315   */\n      dup6\n        /* \"#utility.yul\":1304:1327   */\n      sub\n        /* \"#utility.yul\":1300:1332   */\n      slt\n        /* \"#utility.yul\":1297:1349   */\n      iszero\n      tag_256\n      jumpi\n        /* \"#utility.yul\":1345:1346   */\n      0x00\n        /* \"#utility.yul\":1342:1343   */\n      dup1\n        /* \"#utility.yul\":1335:1347   */\n      revert\n        /* \"#utility.yul\":1297:1349   */\n    tag_256:\n        /* \"#utility.yul\":1368:1397   */\n      tag_257\n        /* \"#utility.yul\":1387:1396   */\n      dup4\n        /* \"#utility.yul\":1368:1397   */\n      tag_243\n      jump\t// in\n    tag_257:\n        /* \"#utility.yul\":1358:1397   */\n      swap5\n        /* \"#utility.yul\":1444:1446   */\n      0x20\n        /* \"#utility.yul\":1429:1447   */\n      swap4\n      swap1\n      swap4\n      add\n        /* \"#utility.yul\":1416:1448   */\n      calldataload\n      swap4\n      pop\n      pop\n      pop\n        /* \"#utility.yul\":1200:1454   */\n      jump\t// out\n        /* \"#utility.yul\":1833:2161   */\n    tag_53:\n        /* \"#utility.yul\":1910:1916   */\n      0x00\n        /* \"#utility.yul\":1918:1924   */\n      dup1\n        /* \"#utility.yul\":1926:1932   */\n      0x00\n        /* \"#utility.yul\":1979:1981   */\n      0x60\n        /* \"#utility.yul\":1967:1976   */\n      dup5\n        /* \"#utility.yul\":1958:1965   */\n      dup7\n        /* \"#utility.yul\":1954:1977   */\n      sub\n        /* \"#utility.yul\":1950:1982   */\n      slt\n        /* \"#utility.yul\":1947:1999   */\n      iszero\n      tag_261\n      jumpi\n        /* \"#utility.yul\":1995:1996   */\n      0x00\n        /* \"#utility.yul\":1992:1993   */\n      dup1\n        /* \"#utility.yul\":1985:1997   */\n      revert\n        /* \"#utility.yul\":1947:1999   */\n    tag_261:\n        /* \"#utility.yul\":2018:2047   */\n      tag_262\n        /* \"#utility.yul\":2037:2046   */\n      dup5\n        /* \"#utility.yul\":2018:2047   */\n      tag_243\n      jump\t// in\n    tag_262:\n        /* \"#utility.yul\":2008:2047   */\n      swap3\n      pop\n        /* \"#utility.yul\":2066:2104   */\n      tag_263\n        /* \"#utility.yul\":2100:2102   */\n      0x20\n        /* \"#utility.yul\":2089:2098   */\n      dup6\n        /* \"#utility.yul\":2085:2103   */\n      add\n        /* \"#utility.yul\":2066:2104   */\n      tag_243\n      jump\t// in\n    tag_263:\n        /* \"#utility.yul\":2056:2104   */\n      swap2\n      pop\n        /* \"#utility.yul\":2151:2153   */\n      0x40\n        /* \"#utility.yul\":2140:2149   */\n      dup5\n        /* \"#utility.yul\":2136:2154   */\n      add\n        /* \"#utility.yul\":2123:2155   */\n      calldataload\n        /* \"#utility.yul\":2113:2155   */\n      swap1\n      pop\n        /* \"#utility.yul\":1833:2161   */\n      swap3\n      pop\n      swap3\n      pop\n      swap3\n      jump\t// out\n        /* \"#utility.yul\":2166:2346   */\n    tag_59:\n        /* \"#utility.yul\":2225:2231   */\n      0x00\n        /* \"#utility.yul\":2278:2280   */\n      0x20\n        /* \"#utility.yul\":2266:2275   */\n      dup3\n        /* \"#utility.yul\":2257:2264   */\n      dup5\n        /* \"#utility.yul\":2253:2276   */\n      sub\n        /* \"#utility.yul\":2249:2281   */\n      slt\n        /* \"#utility.yul\":2246:2298   */\n      iszero\n      tag_265\n      jumpi\n        /* \"#utility.yul\":2294:2295   */\n      0x00\n        /* \"#utility.yul\":2291:2292   */\n      dup1\n        /* \"#utility.yul\":2284:2296   */\n      revert\n        /* \"#utility.yul\":2246:2298   */\n    tag_265:\n      pop\n        /* \"#utility.yul\":2317:2340   */\n      calldataload\n      swap2\n        /* \"#utility.yul\":2166:2346   */\n      swap1\n      pop\n      jump\t// out\n        /* \"#utility.yul\":2930:3116   */\n    tag_86:\n        /* \"#utility.yul\":2989:2995   */\n      0x00\n        /* \"#utility.yul\":3042:3044   */\n      0x20\n        /* \"#utility.yul\":3030:3039   */\n      dup3\n        /* \"#utility.yul\":3021:3028   */\n      dup5\n        /* \"#utility.yul\":3017:3040   */\n      sub\n        /* \"#utility.yul\":3013:3045   */\n      slt\n        /* \"#utility.yul\":3010:3062   */\n      iszero\n      tag_270\n      jumpi\n        /* \"#utility.yul\":3058:3059   */\n      0x00\n        /* \"#utility.yul\":3055:3056   */\n      dup1\n        /* \"#utility.yul\":3048:3060   */\n      revert\n        /* \"#utility.yul\":3010:3062   */\n    tag_270:\n        /* \"#utility.yul\":3081:3110   */\n      tag_271\n        /* \"#utility.yul\":3100:3109   */\n      dup3\n        /* \"#utility.yul\":3081:3110   */\n      tag_243\n      jump\t// in\n    tag_271:\n        /* \"#utility.yul\":3071:3110   */\n      swap4\n        /* \"#utility.yul\":2930:3116   */\n      swap3\n      pop\n      pop\n      pop\n      jump\t// out\n        /* \"#utility.yul\":3350:4043   */\n    tag_123:\n        /* \"#utility.yul\":3461:3467   */\n      0x00\n        /* \"#utility.yul\":3469:3475   */\n      dup1\n        /* \"#utility.yul\":3477:3483   */\n      0x00\n        /* \"#utility.yul\":3485:3491   */\n      dup1\n        /* \"#utility.yul\":3493:3499   */\n      0x00\n        /* \"#utility.yul\":3501:3507   */\n      dup1\n        /* \"#utility.yul\":3509:3515   */\n      0x00\n        /* \"#utility.yul\":3562:3565   */\n      0xe0\n        /* \"#utility.yul\":3550:3559   */\n      dup9\n        /* \"#utility.yul\":3541:3548   */\n      dup11\n        /* \"#utility.yul\":3537:3560   */\n      sub\n        /* \"#utility.yul\":3533:3566   */\n      slt\n        /* \"#utility.yul\":3530:3583   */\n      iszero\n      tag_274\n      jumpi\n        /* \"#utility.yul\":3579:3580   */\n      0x00\n        /* \"#utility.yul\":3576:3577   */\n      dup1\n        /* \"#utility.yul\":3569:3581   */\n      revert\n        /* \"#utility.yul\":3530:3583   */\n    tag_274:\n        /* \"#utility.yul\":3602:3631   */\n      tag_275\n        /* \"#utility.yul\":3621:3630   */\n      dup9\n        /* \"#utility.yul\":3602:3631   */\n      tag_243\n      jump\t// in\n    tag_275:\n        /* \"#utility.yul\":3592:3631   */\n      swap7\n      pop\n        /* \"#utility.yul\":3650:3688   */\n      tag_276\n        /* \"#utility.yul\":3684:3686   */\n      0x20\n        /* \"#utility.yul\":3673:3682   */\n      dup10\n        /* \"#utility.yul\":3669:3687   */\n      add\n        /* \"#utility.yul\":3650:3688   */\n      tag_243\n      jump\t// in\n    tag_276:\n        /* \"#utility.yul\":3640:3688   */\n      swap6\n      pop\n        /* \"#utility.yul\":3735:3737   */\n      0x40\n        /* \"#utility.yul\":3724:3733   */\n      dup9\n        /* \"#utility.yul\":3720:3738   */\n      add\n        /* \"#utility.yul\":3707:3739   */\n      calldataload\n        /* \"#utility.yul\":3697:3739   */\n      swap5\n      pop\n        /* \"#utility.yul\":3786:3788   */\n      0x60\n        /* \"#utility.yul\":3775:3784   */\n      dup9\n        /* \"#utility.yul\":3771:3789   */\n      add\n        /* \"#utility.yul\":3758:3790   */\n      calldataload\n        /* \"#utility.yul\":3748:3790   */\n      swap4\n      pop\n        /* \"#utility.yul\":3840:3843   */\n      0x80\n        /* \"#utility.yul\":3829:3838   */\n      dup9\n        /* \"#utility.yul\":3825:3844   */\n      add\n        /* \"#utility.yul\":3812:3845   */\n      calldataload\n        /* \"#utility.yul\":3885:3889   */\n      0xff\n        /* \"#utility.yul\":3878:3883   */\n      dup2\n        /* \"#utility.yul\":3874:3890   */\n      and\n        /* \"#utility.yul\":3867:3872   */\n      dup2\n        /* \"#utility.yul\":3864:3891   */\n      eq\n        /* \"#utility.yul\":3854:3909   */\n      tag_277\n      jumpi\n        /* \"#utility.yul\":3905:3906   */\n      0x00\n        /* \"#utility.yul\":3902:3903   */\n      dup1\n        /* \"#utility.yul\":3895:3907   */\n      revert\n        /* \"#utility.yul\":3854:3909   */\n    tag_277:\n        /* \"#utility.yul\":3350:4043   */\n      swap7\n      swap10\n      swap6\n      swap9\n      pop\n      swap4\n      swap7\n      swap3\n      swap6\n        /* \"#utility.yul\":3928:3933   */\n      swap5\n        /* \"#utility.yul\":3980:3983   */\n      0xa0\n        /* \"#utility.yul\":3965:3984   */\n      dup5\n      add\n        /* \"#utility.yul\":3952:3985   */\n      calldataload\n      swap5\n      pop\n        /* \"#utility.yul\":4032:4035   */\n      0xc0\n        /* \"#utility.yul\":4017:4036   */\n      swap1\n      swap4\n      add\n        /* \"#utility.yul\":4004:4037   */\n      calldataload\n      swap3\n        /* \"#utility.yul\":3350:4043   */\n      swap2\n      pop\n      pop\n      jump\t// out\n        /* \"#utility.yul\":4272:4532   */\n    tag_133:\n        /* \"#utility.yul\":4340:4346   */\n      0x00\n        /* \"#utility.yul\":4348:4354   */\n      dup1\n        /* \"#utility.yul\":4401:4403   */\n      0x40\n        /* \"#utility.yul\":4389:4398   */\n      dup4\n        /* \"#utility.yul\":4380:4387   */\n      dup6\n        /* \"#utility.yul\":4376:4399   */\n      sub\n        /* \"#utility.yul\":4372:4404   */\n      slt\n        /* \"#utility.yul\":4369:4421   */\n      iszero\n      tag_280\n      jumpi\n        /* \"#utility.yul\":4417:4418   */\n      0x00\n        /* \"#utility.yul\":4414:4415   */\n      dup1\n        /* \"#utility.yul\":4407:4419   */\n      revert\n        /* \"#utility.yul\":4369:4421   */\n    tag_280:\n        /* \"#utility.yul\":4440:4469   */\n      tag_281\n        /* \"#utility.yul\":4459:4468   */\n      dup4\n        /* \"#utility.yul\":4440:4469   */\n      tag_243\n      jump\t// in\n    tag_281:\n        /* \"#utility.yul\":4430:4469   */\n      swap2\n      pop\n        /* \"#utility.yul\":4488:4526   */\n      tag_282\n        /* \"#utility.yul\":4522:4524   */\n      0x20\n        /* \"#utility.yul\":4511:4520   */\n      dup5\n        /* \"#utility.yul\":4507:4525   */\n      add\n        /* \"#utility.yul\":4488:4526   */\n      tag_243\n      jump\t// in\n    tag_282:\n        /* \"#utility.yul\":4478:4526   */\n      swap1\n      pop\n        /* \"#utility.yul\":4272:4532   */\n      swap3\n      pop\n      swap3\n      swap1\n      pop\n      jump\t// out\n        /* \"#utility.yul\":4537:4917   */\n    tag_141:\n        /* \"#utility.yul\":4616:4617   */\n      0x01\n        /* \"#utility.yul\":4612:4624   */\n      dup2\n      dup2\n      shr\n      swap1\n        /* \"#utility.yul\":4659:4671   */\n      dup3\n      and\n      dup1\n        /* \"#utility.yul\":4680:4741   */\n      tag_284\n      jumpi\n        /* \"#utility.yul\":4734:4738   */\n      0x7f\n        /* \"#utility.yul\":4726:4732   */\n      dup3\n        /* \"#utility.yul\":4722:4739   */\n      and\n        /* \"#utility.yul\":4712:4739   */\n      swap2\n      pop\n        /* \"#utility.yul\":4680:4741   */\n    tag_284:\n        /* \"#utility.yul\":4787:4789   */\n      0x20\n        /* \"#utility.yul\":4779:4785   */\n      dup3\n        /* \"#utility.yul\":4776:4790   */\n      lt\n        /* \"#utility.yul\":4756:4774   */\n      dup2\n        /* \"#utility.yul\":4753:4791   */\n      sub\n        /* \"#utility.yul\":4750:4911   */\n      tag_285\n      jumpi\n        /* \"#utility.yul\":4833:4843   */\n      0x4e487b71\n        /* \"#utility.yul\":4828:4831   */\n      0xe0\n        /* \"#utility.yul\":4824:4844   */\n      shl\n        /* \"#utility.yul\":4821:4822   */\n      0x00\n        /* \"#utility.yul\":4814:4845   */\n      mstore\n        /* \"#utility.yul\":4868:4872   */\n      0x22\n        /* \"#utility.yul\":4865:4866   */\n      0x04\n        /* \"#utility.yul\":4858:4873   */\n      mstore\n        /* \"#utility.yul\":4896:4900   */\n      0x24\n        /* \"#utility.yul\":4893:4894   */\n      0x00\n        /* \"#utility.yul\":4886:4901   */\n      revert\n        /* \"#utility.yul\":4750:4911   */\n    tag_285:\n      pop\n        /* \"#utility.yul\":4537:4917   */\n      swap2\n      swap1\n      pop\n      jump\t// out\n        /* \"#utility.yul\":4922:5049   */\n    tag_244:\n        /* \"#utility.yul\":4983:4993   */\n      0x4e487b71\n        /* \"#utility.yul\":4978:4981   */\n      0xe0\n        /* \"#utility.yul\":4974:4994   */\n      shl\n        /* \"#utility.yul\":4971:4972   */\n      0x00\n        /* \"#utility.yul\":4964:4995   */\n      mstore\n        /* \"#utility.yul\":5014:5018   */\n      0x11\n        /* \"#utility.yul\":5011:5012   */\n      0x04\n        /* \"#utility.yul\":5004:5019   */\n      mstore\n        /* \"#utility.yul\":5038:5042   */\n      0x24\n        /* \"#utility.yul\":5035:5036   */\n      0x00\n        /* \"#utility.yul\":5028:5043   */\n      revert\n        /* \"#utility.yul\":5054:5179   */\n    tag_151:\n        /* \"#utility.yul\":5094:5098   */\n      0x00\n        /* \"#utility.yul\":5122:5123   */\n      dup3\n        /* \"#utility.yul\":5119:5120   */\n      dup3\n        /* \"#utility.yul\":5116:5124   */\n      lt\n        /* \"#utility.yul\":5113:5147   */\n      iszero\n      tag_289\n      jumpi\n        /* \"#utility.yul\":5127:5145   */\n      tag_289\n      tag_244\n      jump\t// in\n    tag_289:\n      pop\n        /* \"#utility.yul\":5164:5173   */\n      sub\n      swap1\n        /* \"#utility.yul\":5054:5179   */\n      jump\t// out\n        /* \"#utility.yul\":5463:5740   */\n    tag_163:\n        /* \"#utility.yul\":5530:5536   */\n      0x00\n        /* \"#utility.yul\":5583:5585   */\n      0x20\n        /* \"#utility.yul\":5571:5580   */\n      dup3\n        /* \"#utility.yul\":5562:5569   */\n      dup5\n        /* \"#utility.yul\":5558:5581   */\n      sub\n        /* \"#utility.yul\":5554:5586   */\n      slt\n        /* \"#utility.yul\":5551:5603   */\n      iszero\n      tag_292\n      jumpi\n        /* \"#utility.yul\":5599:5600   */\n      0x00\n        /* \"#utility.yul\":5596:5597   */\n      dup1\n        /* \"#utility.yul\":5589:5601   */\n      revert\n        /* \"#utility.yul\":5551:5603   */\n    tag_292:\n        /* \"#utility.yul\":5631:5640   */\n      dup2\n        /* \"#utility.yul\":5625:5641   */\n      mload\n        /* \"#utility.yul\":5684:5689   */\n      dup1\n        /* \"#utility.yul\":5677:5690   */\n      iszero\n        /* \"#utility.yul\":5670:5691   */\n      iszero\n        /* \"#utility.yul\":5663:5668   */\n      dup2\n        /* \"#utility.yul\":5660:5692   */\n      eq\n        /* \"#utility.yul\":5650:5710   */\n      tag_271\n      jumpi\n        /* \"#utility.yul\":5706:5707   */\n      0x00\n        /* \"#utility.yul\":5703:5704   */\n      dup1\n        /* \"#utility.yul\":5696:5708   */\n      revert\n        /* \"#utility.yul\":5745:6300   */\n    tag_190:\n        /* \"#utility.yul\":5856:5862   */\n      0x00\n        /* \"#utility.yul\":5909:5911   */\n      0x20\n        /* \"#utility.yul\":5897:5906   */\n      dup3\n        /* \"#utility.yul\":5888:5895   */\n      dup5\n        /* \"#utility.yul\":5884:5907   */\n      sub\n        /* \"#utility.yul\":5880:5912   */\n      slt\n        /* \"#utility.yul\":5877:5929   */\n      iszero\n      tag_295\n      jumpi\n        /* \"#utility.yul\":5925:5926   */\n      0x00\n        /* \"#utility.yul\":5922:5923   */\n      dup1\n        /* \"#utility.yul\":5915:5927   */\n      revert\n        /* \"#utility.yul\":5877:5929   */\n    tag_295:\n        /* \"#utility.yul\":5958:5960   */\n      0x40\n        /* \"#utility.yul\":5952:5961   */\n      mload\n        /* \"#utility.yul\":6000:6002   */\n      0x20\n        /* \"#utility.yul\":5992:5998   */\n      dup2\n        /* \"#utility.yul\":5988:6003   */\n      add\n        /* \"#utility.yul\":6069:6075   */\n      dup2\n        /* \"#utility.yul\":6057:6067   */\n      dup2\n        /* \"#utility.yul\":6054:6076   */\n      lt\n        /* \"#utility.yul\":6033:6051   */\n      0xffffffffffffffff\n        /* \"#utility.yul\":6021:6031   */\n      dup3\n        /* \"#utility.yul\":6018:6052   */\n      gt\n        /* \"#utility.yul\":6015:6077   */\n      or\n        /* \"#utility.yul\":6012:6197   */\n      iszero\n      tag_296\n      jumpi\n        /* \"#utility.yul\":6119:6129   */\n      0x4e487b71\n        /* \"#utility.yul\":6114:6117   */\n      0xe0\n        /* \"#utility.yul\":6110:6130   */\n      shl\n        /* \"#utility.yul\":6107:6108   */\n      0x00\n        /* \"#utility.yul\":6100:6131   */\n      mstore\n        /* \"#utility.yul\":6154:6158   */\n      0x41\n        /* \"#utility.yul\":6151:6152   */\n      0x04\n        /* \"#utility.yul\":6144:6159   */\n      mstore\n        /* \"#utility.yul\":6182:6186   */\n      0x24\n        /* \"#utility.yul\":6179:6180   */\n      0x00\n        /* \"#utility.yul\":6172:6187   */\n      revert\n        /* \"#utility.yul\":6012:6197   */\n    tag_296:\n        /* \"#utility.yul\":6213:6215   */\n      0x40\n        /* \"#utility.yul\":6206:6228   */\n      mstore\n        /* \"#utility.yul\":6252:6268   */\n      swap2\n      mload\n        /* \"#utility.yul\":6237:6269   */\n      dup3\n      mstore\n      pop\n        /* \"#utility.yul\":6244:6250   */\n      swap2\n        /* \"#utility.yul\":5745:6300   */\n      swap1\n      pop\n      jump\t// out\n        /* \"#utility.yul\":7044:7172   */\n    tag_203:\n        /* \"#utility.yul\":7084:7087   */\n      0x00\n        /* \"#utility.yul\":7115:7116   */\n      dup3\n        /* \"#utility.yul\":7111:7117   */\n      not\n        /* \"#utility.yul\":7108:7109   */\n      dup3\n        /* \"#utility.yul\":7105:7118   */\n      gt\n        /* \"#utility.yul\":7102:7141   */\n      iszero\n      tag_301\n      jumpi\n        /* \"#utility.yul\":7121:7139   */\n      tag_301\n      tag_244\n      jump\t// in\n    tag_301:\n      pop\n        /* \"#utility.yul\":7157:7166   */\n      add\n      swap1\n        /* \"#utility.yul\":7044:7172   */\n      jump\t// out\n        /* \"#utility.yul\":9738:10842   */\n    tag_237:\n        /* \"#utility.yul\":9868:9871   */\n      0x00\n        /* \"#utility.yul\":9897:9898   */\n      dup1\n        /* \"#utility.yul\":9930:9936   */\n      dup4\n        /* \"#utility.yul\":9924:9937   */\n      sload\n        /* \"#utility.yul\":9960:9963   */\n      dup2\n        /* \"#utility.yul\":9982:9983   */\n      0x01\n        /* \"#utility.yul\":10010:10019   */\n      dup3\n        /* \"#utility.yul\":10006:10008   */\n      dup2\n        /* \"#utility.yul\":10002:10020   */\n      shr\n        /* \"#utility.yul\":9992:10020   */\n      swap2\n      pop\n        /* \"#utility.yul\":10070:10072   */\n      dup1\n        /* \"#utility.yul\":10059:10068   */\n      dup4\n        /* \"#utility.yul\":10055:10073   */\n      and\n        /* \"#utility.yul\":10092:10110   */\n      dup1\n        /* \"#utility.yul\":10082:10143   */\n      tag_310\n      jumpi\n        /* \"#utility.yul\":10136:10140   */\n      0x7f\n        /* \"#utility.yul\":10128:10134   */\n      dup4\n        /* \"#utility.yul\":10124:10141   */\n      and\n        /* \"#utility.yul\":10114:10141   */\n      swap3\n      pop\n        /* \"#utility.yul\":10082:10143   */\n    tag_310:\n        /* \"#utility.yul\":10162:10164   */\n      0x20\n        /* \"#utility.yul\":10210:10212   */\n      dup1\n        /* \"#utility.yul\":10202:10208   */\n      dup5\n        /* \"#utility.yul\":10199:10213   */\n      lt\n        /* \"#utility.yul\":10179:10197   */\n      dup3\n        /* \"#utility.yul\":10176:10214   */\n      sub\n        /* \"#utility.yul\":10173:10338   */\n      tag_311\n      jumpi\n      shl(0xe0, 0x4e487b71)\n        /* \"#utility.yul\":10237:10270   */\n      dup7\n      mstore\n        /* \"#utility.yul\":10293:10297   */\n      0x22\n        /* \"#utility.yul\":10290:10291   */\n      0x04\n        /* \"#utility.yul\":10283:10298   */\n      mstore\n        /* \"#utility.yul\":10323:10327   */\n      0x24\n        /* \"#utility.yul\":10244:10247   */\n      dup7\n        /* \"#utility.yul\":10311:10328   */\n      revert\n        /* \"#utility.yul\":10173:10338   */\n    tag_311:\n        /* \"#utility.yul\":10354:10372   */\n      dup2\n        /* \"#utility.yul\":10381:10485   */\n      dup1\n      iszero\n      tag_313\n      jumpi\n        /* \"#utility.yul\":10499:10500   */\n      0x01\n        /* \"#utility.yul\":10494:10817   */\n      dup2\n      eq\n      tag_314\n      jumpi\n        /* \"#utility.yul\":10347:10817   */\n      jump(tag_312)\n        /* \"#utility.yul\":10381:10485   */\n    tag_313:\n      not(0xff)\n        /* \"#utility.yul\":10414:10438   */\n      dup7\n      and\n        /* \"#utility.yul\":10402:10439   */\n      dup10\n      mstore\n        /* \"#utility.yul\":10459:10475   */\n      dup5\n      dup10\n      add\n      swap7\n      pop\n        /* \"#utility.yul\":10381:10485   */\n      jump(tag_312)\n        /* \"#utility.yul\":10494:10817   */\n    tag_314:\n        /* \"#utility.yul\":9685:9686   */\n      0x00\n        /* \"#utility.yul\":9678:9692   */\n      dup11\n      dup2\n      mstore\n        /* \"#utility.yul\":9722:9726   */\n      0x20\n        /* \"#utility.yul\":9709:9727   */\n      swap1\n      keccak256\n        /* \"#utility.yul\":10592:10593   */\n      0x00\n        /* \"#utility.yul\":10606:10771   */\n    tag_316:\n        /* \"#utility.yul\":10620:10626   */\n      dup7\n        /* \"#utility.yul\":10617:10618   */\n      dup2\n        /* \"#utility.yul\":10614:10627   */\n      lt\n        /* \"#utility.yul\":10606:10771   */\n      iszero\n      tag_318\n      jumpi\n        /* \"#utility.yul\":10698:10712   */\n      dup2\n      sload\n        /* \"#utility.yul\":10685:10696   */\n      dup12\n      dup3\n      add\n        /* \"#utility.yul\":10678:10713   */\n      mstore\n        /* \"#utility.yul\":10741:10757   */\n      swap1\n      dup6\n      add\n      swap1\n        /* \"#utility.yul\":10635:10645   */\n      dup4\n      add\n        /* \"#utility.yul\":10606:10771   */\n      jump(tag_316)\n    tag_318:\n        /* \"#utility.yul\":10610:10613   */\n      pop\n      pop\n        /* \"#utility.yul\":10800:10806   */\n      dup5\n        /* \"#utility.yul\":10795:10798   */\n      dup10\n        /* \"#utility.yul\":10791:10807   */\n      add\n        /* \"#utility.yul\":10784:10807   */\n      swap7\n      pop\n        /* \"#utility.yul\":10347:10817   */\n    tag_312:\n      pop\n        /* \"#utility.yul\":10833:10836   */\n      swap5\n      swap9\n        /* \"#utility.yul\":9738:10842   */\n      swap8\n      pop\n      pop\n      pop\n      pop\n      pop\n      pop\n      pop\n      pop\n      jump\t// out\n    stop\n    data_ada389e1fc24a8587c776340efb91b36e675792ab631816100d55df0b5cf3cbc ddf252ad1be2c89b69c2b068fc378daa952ba7f163c4a11628f55a4df523b3ef\n\n    auxdata: 0xa2646970667358221220416eb4fc8458d97e53acc0c611c6f099e186734d0a93d6d033daf58e948f43ae64736f6c634300080e0033\n}\n",
				"bytecode": {
					"linkReferences": {},
					"object": "60e060405260006006553480156200001657600080fd5b506040516200179738038062001797833981016040819052620000399162000311565b85858582600090805190602001906200005492919062000181565b5081516200006a90600190602085019062000181565b5060ff81166080524660a05262000080620000e5565b60c0525050600880546001600160a01b039485166001600160a01b031991821617909155600a805495851695821686179055600b80549390941692811683179093555060098054831690931790925560078054909116909117905550620004aa915050565b60007f8b73c3c69bb8fe3d512ecc4cf759cc79239f7b179b0ffacaa9a75d522b39400f600060405162000119919062000407565b6040805191829003822060208301939093528101919091527fc89efdaa54c0f20c7adf612882df0950f5a951637e0307cdcb4c672f298b8bc660608201524660808201523060a082015260c00160405160208183030381529060405280519060200120905090565b8280546200018f90620003cb565b90600052602060002090601f016020900481019282620001b35760008555620001fe565b82601f10620001ce57805160ff1916838001178555620001fe565b82800160010185558215620001fe579182015b82811115620001fe578251825591602001919060010190620001e1565b506200020c92915062000210565b5090565b5b808211156200020c576000815560010162000211565b634e487b7160e01b600052604160045260246000fd5b600082601f8301126200024f57600080fd5b81516001600160401b03808211156200026c576200026c62000227565b604051601f8301601f19908116603f0116810190828211818310171562000297576200029762000227565b81604052838152602092508683858801011115620002b457600080fd5b600091505b83821015620002d85785820183015181830184015290820190620002b9565b83821115620002ea5760008385830101525b9695505050505050565b80516001600160a01b03811681146200030c57600080fd5b919050565b60008060008060008060c087890312156200032b57600080fd5b86516001600160401b03808211156200034357600080fd5b620003518a838b016200023d565b975060208901519150808211156200036857600080fd5b506200037789828a016200023d565b955050604087015160ff811681146200038f57600080fd5b93506200039f60608801620002f4565b9250620003af60808801620002f4565b9150620003bf60a08801620002f4565b90509295509295509295565b600181811c90821680620003e057607f821691505b6020821081036200040157634e487b7160e01b600052602260045260246000fd5b50919050565b600080835481600182811c9150808316806200042457607f831692505b602080841082036200044457634e487b7160e01b86526022600452602486fd5b8180156200045b57600181146200046d576200049c565b60ff198616895284890196506200049c565b60008a81526020902060005b86811015620004945781548b82015290850190830162000479565b505084890196505b509498975050505050505050565b60805160a05160c0516112bd620004da60003960006107b10152600061077c0152600061027101526112bd6000f3fe6080604052600436106101395760003560e01c80637535d246116100ab578063bcaaf5761161006f578063bcaaf576146103f6578063d0ebdbe714610416578063d505accf14610436578063d859562c14610456578063dd62ed3e14610476578063f85cb5c8146104ae57600080fd5b80637535d246146103545780637ecebe001461037457806395d89b41146103a1578063a9059cbb146103b6578063b6b55f25146103d657600080fd5b8063313ce567116100fd578063313ce5671461025f5780633644e515146102a5578063481c6a75146102ba5780634e71d92d146102f25780636b6bd8d91461030757806370a082311461032757600080fd5b806306fdde03146101a0578063095ea7b3146101cb57806318160ddd146101fb57806323b872dd1461021f5780632e1a7d4d1461023f57600080fd5b3661019b5760405162461bcd60e51b815260206004820152602560248201527f436f6e74726163742063616e206f6e6c792068616e646c6520455243323020746044820152646f6b656e7360d81b60648201526084015b60405180910390fd5b005b600080fd5b3480156101ac57600080fd5b506101b56104ce565b6040516101c29190610f23565b60405180910390f35b3480156101d757600080fd5b506101eb6101e6366004610f94565b61055c565b60405190151581526020016101c2565b34801561020757600080fd5b5061021160025481565b6040519081526020016101c2565b34801561022b57600080fd5b506101eb61023a366004610fbe565b6105c8565b34801561024b57600080fd5b5061019961025a366004610ffa565b6106a8565b34801561026b57600080fd5b506102937f000000000000000000000000000000000000000000000000000000000000000081565b60405160ff90911681526020016101c2565b3480156102b157600080fd5b50610211610778565b3480156102c657600080fd5b506007546102da906001600160a01b031681565b6040516001600160a01b0390911681526020016101c2565b3480156102fe57600080fd5b506101996107d3565b34801561031357600080fd5b506008546102da906001600160a01b031681565b34801561033357600080fd5b50610211610342366004611013565b60036020526000908152604090205481565b34801561036057600080fd5b50600b546102da906001600160a01b031681565b34801561038057600080fd5b5061021161038f366004611013565b60056020526000908152604090205481565b3480156103ad57600080fd5b506101b5610897565b3480156103c257600080fd5b506101eb6103d1366004610f94565b6108a4565b3480156103e257600080fd5b506101996103f1366004610ffa565b61090a565b34801561040257600080fd5b50610199610411366004611013565b610ab3565b34801561042257600080fd5b50610199610431366004611013565b610b1e565b34801561044257600080fd5b50610199610451366004611035565b610b89565b34801561046257600080fd5b50600a546102da906001600160a01b031681565b34801561048257600080fd5b506102116104913660046110a8565b600460209081526000928352604080842090915290825290205481565b3480156104ba57600080fd5b506009546102da906001600160a01b031681565b600080546104db906110db565b80601f0160208091040260200160405190810160405280929190818152602001828054610507906110db565b80156105545780601f1061052957610100808354040283529160200191610554565b820191906000526020600020905b81548152906001019060200180831161053757829003601f168201915b505050505081565b3360008181526004602090815260408083206001600160a01b038716808552925280832085905551919290917f8c5be1e5ebec7d5bd14f71427d1e84f3dd0314c0f7b2291e5b200ac8c7c3b925906105b79086815260200190565b60405180910390a350600192915050565b6001600160a01b03831660009081526004602090815260408083203384529091528120546000198114610624576105ff838261112b565b6001600160a01b03861660009081526004602090815260408083203384529091529020555b6001600160a01b0385166000908152600360205260408120805485929061064c90849061112b565b90915550506001600160a01b0380851660008181526003602052604090819020805487019055519091871690600080516020611268833981519152906106959087815260200190565b60405180910390a3506001949350505050565b80600660008282546106ba919061112b565b909155506106ca90503382610dcd565b600a5460405163a9059cbb60e01b8152336004820152602481018390526001600160a01b039091169063a9059cbb906044016020604051808303816000875af115801561071b573d6000803e3d6000fd5b505050506040513d601f19601f8201168201806040525081019061073f9190611142565b5060405181815233907f7fcf532c15f0a6db0bd6d0e038bea71d30d808c7d98cb3bf7268a95bf5081b659060200160405180910390a250565b60007f000000000000000000000000000000000000000000000000000000000000000046146107ae576107a9610e37565b905090565b507f000000000000000000000000000000000000000000000000000000000000000090565b60006006546002546107e5919061112b565b600a5460085460405163a9059cbb60e01b81526001600160a01b03918216600482015260248101849052929350169063a9059cbb906044016020604051808303816000875af115801561083c573d6000803e3d6000fd5b505050506040513d601f19601f820116820180604052508101906108609190611142565b506040518181527f7a355715549cfe7c1cba26304350343fbddc4b4f72d3ce3e7c27117dd20b5cb89060200160405180910390a150565b600180546104db906110db565b336000908152600360205260408120805483919083906108c590849061112b565b90915550506001600160a01b03831660008181526003602052604090819020805485019055513390600080516020611268833981519152906105b79086815260200190565b600b5460095460405163c44b11f760e01b81526001600160a01b039182166004820152600092919091169063c44b11f790602401602060405180830381865afa15801561095b573d6000803e3d6000fd5b505050506040513d601f19601f8201168201806040525081019061097f9190611164565b8051909150670100000000000000166000036109dd5760405162461bcd60e51b815260206004820152601e60248201527f556e6465726c79696e67204173736574206973206e6f742061637469766500006044820152606401610190565b600a546040516323b872dd60e01b8152336004820152306024820152604481018490526001600160a01b03909116906323b872dd906064016020604051808303816000875af1158015610a34573d6000803e3d6000fd5b505050506040513d601f19601f82011682018060405250810190610a589190611142565b50610a633383610ed1565b8160066000828254610a7591906111b4565b909155505060405182815233907fe1fffcc4923d04b559f4d29a8bfc6cda04eb5b0d3c460751c2402c5c5cc9109c9060200160405180910390a25050565b6007546001600160a01b03163314610afc5760405162461bcd60e51b815260206004820152600c60248201526b15539055551213d49256915160a21b6044820152606401610190565b600880546001600160a01b0319166001600160a01b0392909216919091179055565b6007546001600160a01b03163314610b675760405162461bcd60e51b815260206004820152600c60248201526b15539055551213d49256915160a21b6044820152606401610190565b600780546001600160a01b0319166001600160a01b0392909216919091179055565b42841015610bd95760405162461bcd60e51b815260206004820152601760248201527f5045524d49545f444541444c494e455f455850495245440000000000000000006044820152606401610190565b60006001610be5610778565b6001600160a01b038a811660008181526005602090815260409182902080546001810190915582517f6e71edae12b1b97f4d1f60370fef10105fa2faae0126114a169c64845d6126c98184015280840194909452938d166060840152608083018c905260a083019390935260c08083018b90528151808403909101815260e08301909152805192019190912061190160f01b6101008301526101028201929092526101228101919091526101420160408051601f198184030181528282528051602091820120600084529083018083525260ff871690820152606081018590526080810184905260a0016020604051602081039080840390855afa158015610cf1573d6000803e3d6000fd5b5050604051601f1901519150506001600160a01b03811615801590610d275750876001600160a01b0316816001600160a01b0316145b610d645760405162461bcd60e51b815260206004820152600e60248201526d24a72b20a624a22fa9a4a3a722a960911b6044820152606401610190565b6001600160a01b0390811660009081526004602090815260408083208a8516808552908352928190208990555188815291928a16917f8c5be1e5ebec7d5bd14f71427d1e84f3dd0314c0f7b2291e5b200ac8c7c3b925910160405180910390a350505050505050565b6001600160a01b03821660009081526003602052604081208054839290610df590849061112b565b90915550506002805482900390556040518181526000906001600160a01b03841690600080516020611268833981519152906020015b60405180910390a35050565b60007f8b73c3c69bb8fe3d512ecc4cf759cc79239f7b179b0ffacaa9a75d522b39400f6000604051610e6991906111cc565b6040805191829003822060208301939093528101919091527fc89efdaa54c0f20c7adf612882df0950f5a951637e0307cdcb4c672f298b8bc660608201524660808201523060a082015260c00160405160208183030381529060405280519060200120905090565b8060026000828254610ee391906111b4565b90915550506001600160a01b0382166000818152600360209081526040808320805486019055518481526000805160206112688339815191529101610e2b565b600060208083528351808285015260005b81811015610f5057858101830151858201604001528201610f34565b81811115610f62576000604083870101525b50601f01601f1916929092016040019392505050565b80356001600160a01b0381168114610f8f57600080fd5b919050565b60008060408385031215610fa757600080fd5b610fb083610f78565b946020939093013593505050565b600080600060608486031215610fd357600080fd5b610fdc84610f78565b9250610fea60208501610f78565b9150604084013590509250925092565b60006020828403121561100c57600080fd5b5035919050565b60006020828403121561102557600080fd5b61102e82610f78565b9392505050565b600080600080600080600060e0888a03121561105057600080fd5b61105988610f78565b965061106760208901610f78565b95506040880135945060608801359350608088013560ff8116811461108b57600080fd5b9699959850939692959460a0840135945060c09093013592915050565b600080604083850312156110bb57600080fd5b6110c483610f78565b91506110d260208401610f78565b90509250929050565b600181811c908216806110ef57607f821691505b60208210810361110f57634e487b7160e01b600052602260045260246000fd5b50919050565b634e487b7160e01b600052601160045260246000fd5b60008282101561113d5761113d611115565b500390565b60006020828403121561115457600080fd5b8151801515811461102e57600080fd5b60006020828403121561117657600080fd5b6040516020810181811067ffffffffffffffff821117156111a757634e487b7160e01b600052604160045260246000fd5b6040529151825250919050565b600082198211156111c7576111c7611115565b500190565b600080835481600182811c9150808316806111e857607f831692505b6020808410820361120757634e487b7160e01b86526022600452602486fd5b81801561121b576001811461122c57611259565b60ff19861689528489019650611259565b60008a81526020902060005b868110156112515781548b820152908501908301611238565b505084890196505b50949897505050505050505056feddf252ad1be2c89b69c2b068fc378daa952ba7f163c4a11628f55a4df523b3efa2646970667358221220416eb4fc8458d97e53acc0c611c6f099e186734d0a93d6d033daf58e948f43ae64736f6c634300080e0033",
					"opcodes": "PUSH1 0xE0 PUSH1 0x40 MSTORE PUSH1 0x0 PUSH1 0x6 SSTORE CALLVALUE DUP1 ISZERO PUSH3 0x16 JUMPI PUSH1 0x0 DUP1 REVERT JUMPDEST POP PUSH1 0x40 MLOAD PUSH3 0x1797 CODESIZE SUB DUP1 PUSH3 0x1797 DUP4 CODECOPY DUP2 ADD PUSH1 0x40 DUP2 SWAP1 MSTORE PUSH3 0x39 SWAP2 PUSH3 0x311 JUMP JUMPDEST DUP6 DUP6 DUP6 DUP3 PUSH1 0x0 SWAP1 DUP1 MLOAD SWAP1 PUSH1 0x20 ADD SWAP1 PUSH3 0x54 SWAP3 SWAP2 SWAP1 PUSH3 0x181 JUMP JUMPDEST POP DUP2 MLOAD PUSH3 0x6A SWAP1 PUSH1 0x1 SWAP1 PUSH1 0x20 DUP6 ADD SWAP1 PUSH3 0x181 JUMP JUMPDEST POP PUSH1 0xFF DUP2 AND PUSH1 0x80 MSTORE CHAINID PUSH1 0xA0 MSTORE PUSH3 0x80 PUSH3 0xE5 JUMP JUMPDEST PUSH1 0xC0 MSTORE POP POP PUSH1 0x8 DUP1 SLOAD PUSH1 0x1 PUSH1 0x1 PUSH1 0xA0 SHL SUB SWAP5 DUP6 AND PUSH1 0x1 PUSH1 0x1 PUSH1 0xA0 SHL SUB NOT SWAP2 DUP3 AND OR SWAP1 SWAP2 SSTORE PUSH1 0xA DUP1 SLOAD SWAP6 DUP6 AND SWAP6 DUP3 AND DUP7 OR SWAP1 SSTORE PUSH1 0xB DUP1 SLOAD SWAP4 SWAP1 SWAP5 AND SWAP3 DUP2 AND DUP4 OR SWAP1 SWAP4 SSTORE POP PUSH1 0x9 DUP1 SLOAD DUP4 AND SWAP1 SWAP4 OR SWAP1 SWAP3 SSTORE PUSH1 0x7 DUP1 SLOAD SWAP1 SWAP2 AND SWAP1 SWAP2 OR SWAP1 SSTORE POP PUSH3 0x4AA SWAP2 POP POP JUMP JUMPDEST PUSH1 0x0 PUSH32 0x8B73C3C69BB8FE3D512ECC4CF759CC79239F7B179B0FFACAA9A75D522B39400F PUSH1 0x0 PUSH1 0x40 MLOAD PUSH3 0x119 SWAP2 SWAP1 PUSH3 0x407 JUMP JUMPDEST PUSH1 0x40 DUP1 MLOAD SWAP2 DUP3 SWAP1 SUB DUP3 KECCAK256 PUSH1 0x20 DUP4 ADD SWAP4 SWAP1 SWAP4 MSTORE DUP2 ADD SWAP2 SWAP1 SWAP2 MSTORE PUSH32 0xC89EFDAA54C0F20C7ADF612882DF0950F5A951637E0307CDCB4C672F298B8BC6 PUSH1 0x60 DUP3 ADD MSTORE CHAINID PUSH1 0x80 DUP3 ADD MSTORE ADDRESS PUSH1 0xA0 DUP3 ADD MSTORE PUSH1 0xC0 ADD PUSH1 0x40 MLOAD PUSH1 0x20 DUP2 DUP4 SUB SUB DUP2 MSTORE SWAP1 PUSH1 0x40 MSTORE DUP1 MLOAD SWAP1 PUSH1 0x20 ADD KECCAK256 SWAP1 POP SWAP1 JUMP JUMPDEST DUP3 DUP1 SLOAD PUSH3 0x18F SWAP1 PUSH3 0x3CB JUMP JUMPDEST SWAP1 PUSH1 0x0 MSTORE PUSH1 0x20 PUSH1 0x0 KECCAK256 SWAP1 PUSH1 0x1F ADD PUSH1 0x20 SWAP1 DIV DUP2 ADD SWAP3 DUP3 PUSH3 0x1B3 JUMPI PUSH1 0x0 DUP6 SSTORE PUSH3 0x1FE JUMP JUMPDEST DUP3 PUSH1 0x1F LT PUSH3 0x1CE JUMPI DUP1 MLOAD PUSH1 0xFF NOT AND DUP4 DUP1 ADD OR DUP6 SSTORE PUSH3 0x1FE JUMP JUMPDEST DUP3 DUP1 ADD PUSH1 0x1 ADD DUP6 SSTORE DUP3 ISZERO PUSH3 0x1FE JUMPI SWAP2 DUP3 ADD JUMPDEST DUP3 DUP2 GT ISZERO PUSH3 0x1FE JUMPI DUP3 MLOAD DUP3 SSTORE SWAP2 PUSH1 0x20 ADD SWAP2 SWAP1 PUSH1 0x1 ADD SWAP1 PUSH3 0x1E1 JUMP JUMPDEST POP PUSH3 0x20C SWAP3 SWAP2 POP PUSH3 0x210 JUMP JUMPDEST POP SWAP1 JUMP JUMPDEST JUMPDEST DUP1 DUP3 GT ISZERO PUSH3 0x20C JUMPI PUSH1 0x0 DUP2 SSTORE PUSH1 0x1 ADD PUSH3 0x211 JUMP JUMPDEST PUSH4 0x4E487B71 PUSH1 0xE0 SHL PUSH1 0x0 MSTORE PUSH1 0x41 PUSH1 0x4 MSTORE PUSH1 0x24 PUSH1 0x0 REVERT JUMPDEST PUSH1 0x0 DUP3 PUSH1 0x1F DUP4 ADD SLT PUSH3 0x24F JUMPI PUSH1 0x0 DUP1 REVERT JUMPDEST DUP2 MLOAD PUSH1 0x1 PUSH1 0x1 PUSH1 0x40 SHL SUB DUP1 DUP3 GT ISZERO PUSH3 0x26C JUMPI PUSH3 0x26C PUSH3 0x227 JUMP JUMPDEST PUSH1 0x40 MLOAD PUSH1 0x1F DUP4 ADD PUSH1 0x1F NOT SWAP1 DUP2 AND PUSH1 0x3F ADD AND DUP2 ADD SWAP1 DUP3 DUP3 GT DUP2 DUP4 LT OR ISZERO PUSH3 0x297 JUMPI PUSH3 0x297 PUSH3 0x227 JUMP JUMPDEST DUP2 PUSH1 0x40 MSTORE DUP4 DUP2 MSTORE PUSH1 0x20 SWAP3 POP DUP7 DUP4 DUP6 DUP9 ADD ADD GT ISZERO PUSH3 0x2B4 JUMPI PUSH1 0x0 DUP1 REVERT JUMPDEST PUSH1 0x0 SWAP2 POP JUMPDEST DUP4 DUP3 LT ISZERO PUSH3 0x2D8 JUMPI DUP6 DUP3 ADD DUP4 ADD MLOAD DUP2 DUP4 ADD DUP5 ADD MSTORE SWAP1 DUP3 ADD SWAP1 PUSH3 0x2B9 JUMP JUMPDEST DUP4 DUP3 GT ISZERO PUSH3 0x2EA JUMPI PUSH1 0x0 DUP4 DUP6 DUP4 ADD ADD MSTORE JUMPDEST SWAP7 SWAP6 POP POP POP POP POP POP JUMP JUMPDEST DUP1 MLOAD PUSH1 0x1 PUSH1 0x1 PUSH1 0xA0 SHL SUB DUP2 AND DUP2 EQ PUSH3 0x30C JUMPI PUSH1 0x0 DUP1 REVERT JUMPDEST SWAP2 SWAP1 POP JUMP JUMPDEST PUSH1 0x0 DUP1 PUSH1 0x0 DUP1 PUSH1 0x0 DUP1 PUSH1 0xC0 DUP8 DUP10 SUB SLT ISZERO PUSH3 0x32B JUMPI PUSH1 0x0 DUP1 REVERT JUMPDEST DUP7 MLOAD PUSH1 0x1 PUSH1 0x1 PUSH1 0x40 SHL SUB DUP1 DUP3 GT ISZERO PUSH3 0x343 JUMPI PUSH1 0x0 DUP1 REVERT JUMPDEST PUSH3 0x351 DUP11 DUP4 DUP12 ADD PUSH3 0x23D JUMP JUMPDEST SWAP8 POP PUSH1 0x20 DUP10 ADD MLOAD SWAP2 POP DUP1 DUP3 GT ISZERO PUSH3 0x368 JUMPI PUSH1 0x0 DUP1 REVERT JUMPDEST POP PUSH3 0x377 DUP10 DUP3 DUP11 ADD PUSH3 0x23D JUMP JUMPDEST SWAP6 POP POP PUSH1 0x40 DUP8 ADD MLOAD PUSH1 0xFF DUP2 AND DUP2 EQ PUSH3 0x38F JUMPI PUSH1 0x0 DUP1 REVERT JUMPDEST SWAP4 POP PUSH3 0x39F PUSH1 0x60 DUP9 ADD PUSH3 0x2F4 JUMP JUMPDEST SWAP3 POP PUSH3 0x3AF PUSH1 0x80 DUP9 ADD PUSH3 0x2F4 JUMP JUMPDEST SWAP2 POP PUSH3 0x3BF PUSH1 0xA0 DUP9 ADD PUSH3 0x2F4 JUMP JUMPDEST SWAP1 POP SWAP3 SWAP6 POP SWAP3 SWAP6 POP SWAP3 SWAP6 JUMP JUMPDEST PUSH1 0x1 DUP2 DUP2 SHR SWAP1 DUP3 AND DUP1 PUSH3 0x3E0 JUMPI PUSH1 0x7F DUP3 AND SWAP2 POP JUMPDEST PUSH1 0x20 DUP3 LT DUP2 SUB PUSH3 0x401 JUMPI PUSH4 0x4E487B71 PUSH1 0xE0 SHL PUSH1 0x0 MSTORE PUSH1 0x22 PUSH1 0x4 MSTORE PUSH1 0x24 PUSH1 0x0 REVERT JUMPDEST POP SWAP2 SWAP1 POP JUMP JUMPDEST PUSH1 0x0 DUP1 DUP4 SLOAD DUP2 PUSH1 0x1 DUP3 DUP2 SHR SWAP2 POP DUP1 DUP4 AND DUP1 PUSH3 0x424 JUMPI PUSH1 0x7F DUP4 AND SWAP3 POP JUMPDEST PUSH1 0x20 DUP1 DUP5 LT DUP3 SUB PUSH3 0x444 JUMPI PUSH4 0x4E487B71 PUSH1 0xE0 SHL DUP7 MSTORE PUSH1 0x22 PUSH1 0x4 MSTORE PUSH1 0x24 DUP7 REVERT JUMPDEST DUP2 DUP1 ISZERO PUSH3 0x45B JUMPI PUSH1 0x1 DUP2 EQ PUSH3 0x46D JUMPI PUSH3 0x49C JUMP JUMPDEST PUSH1 0xFF NOT DUP7 AND DUP10 MSTORE DUP5 DUP10 ADD SWAP7 POP PUSH3 0x49C JUMP JUMPDEST PUSH1 0x0 DUP11 DUP2 MSTORE PUSH1 0x20 SWAP1 KECCAK256 PUSH1 0x0 JUMPDEST DUP7 DUP2 LT ISZERO PUSH3 0x494 JUMPI DUP2 SLOAD DUP12 DUP3 ADD MSTORE SWAP1 DUP6 ADD SWAP1 DUP4 ADD PUSH3 0x479 JUMP JUMPDEST POP POP DUP5 DUP10 ADD SWAP7 POP JUMPDEST POP SWAP5 SWAP9 SWAP8 POP POP POP POP POP POP POP POP JUMP JUMPDEST PUSH1 0x80 MLOAD PUSH1 0xA0 MLOAD PUSH1 0xC0 MLOAD PUSH2 0x12BD PUSH3 0x4DA PUSH1 0x0 CODECOPY PUSH1 0x0 PUSH2 0x7B1 ADD MSTORE PUSH1 0x0 PUSH2 0x77C ADD MSTORE PUSH1 0x0 PUSH2 0x271 ADD MSTORE PUSH2 0x12BD PUSH1 0x0 RETURN INVALID PUSH1 0x80 PUSH1 0x40 MSTORE PUSH1 0x4 CALLDATASIZE LT PUSH2 0x139 JUMPI PUSH1 0x0 CALLDATALOAD PUSH1 0xE0 SHR DUP1 PUSH4 0x7535D246 GT PUSH2 0xAB JUMPI DUP1 PUSH4 0xBCAAF576 GT PUSH2 0x6F JUMPI DUP1 PUSH4 0xBCAAF576 EQ PUSH2 0x3F6 JUMPI DUP1 PUSH4 0xD0EBDBE7 EQ PUSH2 0x416 JUMPI DUP1 PUSH4 0xD505ACCF EQ PUSH2 0x436 JUMPI DUP1 PUSH4 0xD859562C EQ PUSH2 0x456 JUMPI DUP1 PUSH4 0xDD62ED3E EQ PUSH2 0x476 JUMPI DUP1 PUSH4 0xF85CB5C8 EQ PUSH2 0x4AE JUMPI PUSH1 0x0 DUP1 REVERT JUMPDEST DUP1 PUSH4 0x7535D246 EQ PUSH2 0x354 JUMPI DUP1 PUSH4 0x7ECEBE00 EQ PUSH2 0x374 JUMPI DUP1 PUSH4 0x95D89B41 EQ PUSH2 0x3A1 JUMPI DUP1 PUSH4 0xA9059CBB EQ PUSH2 0x3B6 JUMPI DUP1 PUSH4 0xB6B55F25 EQ PUSH2 0x3D6 JUMPI PUSH1 0x0 DUP1 REVERT JUMPDEST DUP1 PUSH4 0x313CE567 GT PUSH2 0xFD JUMPI DUP1 PUSH4 0x313CE567 EQ PUSH2 0x25F JUMPI DUP1 PUSH4 0x3644E515 EQ PUSH2 0x2A5 JUMPI DUP1 PUSH4 0x481C6A75 EQ PUSH2 0x2BA JUMPI DUP1 PUSH4 0x4E71D92D EQ PUSH2 0x2F2 JUMPI DUP1 PUSH4 0x6B6BD8D9 EQ PUSH2 0x307 JUMPI DUP1 PUSH4 0x70A08231 EQ PUSH2 0x327 JUMPI PUSH1 0x0 DUP1 REVERT JUMPDEST DUP1 PUSH4 0x6FDDE03 EQ PUSH2 0x1A0 JUMPI DUP1 PUSH4 0x95EA7B3 EQ PUSH2 0x1CB JUMPI DUP1 PUSH4 0x18160DDD EQ PUSH2 0x1FB JUMPI DUP1 PUSH4 0x23B872DD EQ PUSH2 0x21F JUMPI DUP1 PUSH4 0x2E1A7D4D EQ PUSH2 0x23F JUMPI PUSH1 0x0 DUP1 REVERT JUMPDEST CALLDATASIZE PUSH2 0x19B JUMPI PUSH1 0x40 MLOAD PUSH3 0x461BCD PUSH1 0xE5 SHL DUP2 MSTORE PUSH1 0x20 PUSH1 0x4 DUP3 ADD MSTORE PUSH1 0x25 PUSH1 0x24 DUP3 ADD MSTORE PUSH32 0x436F6E74726163742063616E206F6E6C792068616E646C652045524332302074 PUSH1 0x44 DUP3 ADD MSTORE PUSH5 0x6F6B656E73 PUSH1 0xD8 SHL PUSH1 0x64 DUP3 ADD MSTORE PUSH1 0x84 ADD JUMPDEST PUSH1 0x40 MLOAD DUP1 SWAP2 SUB SWAP1 REVERT JUMPDEST STOP JUMPDEST PUSH1 0x0 DUP1 REVERT JUMPDEST CALLVALUE DUP1 ISZERO PUSH2 0x1AC JUMPI PUSH1 0x0 DUP1 REVERT JUMPDEST POP PUSH2 0x1B5 PUSH2 0x4CE JUMP JUMPDEST PUSH1 0x40 MLOAD PUSH2 0x1C2 SWAP2 SWAP1 PUSH2 0xF23 JUMP JUMPDEST PUSH1 0x40 MLOAD DUP1 SWAP2 SUB SWAP1 RETURN JUMPDEST CALLVALUE DUP1 ISZERO PUSH2 0x1D7 JUMPI PUSH1 0x0 DUP1 REVERT JUMPDEST POP PUSH2 0x1EB PUSH2 0x1E6 CALLDATASIZE PUSH1 0x4 PUSH2 0xF94 JUMP JUMPDEST PUSH2 0x55C JUMP JUMPDEST PUSH1 0x40 MLOAD SWAP1 ISZERO ISZERO DUP2 MSTORE PUSH1 0x20 ADD PUSH2 0x1C2 JUMP JUMPDEST CALLVALUE DUP1 ISZERO PUSH2 0x207 JUMPI PUSH1 0x0 DUP1 REVERT JUMPDEST POP PUSH2 0x211 PUSH1 0x2 SLOAD DUP2 JUMP JUMPDEST PUSH1 0x40 MLOAD SWAP1 DUP2 MSTORE PUSH1 0x20 ADD PUSH2 0x1C2 JUMP JUMPDEST CALLVALUE DUP1 ISZERO PUSH2 0x22B JUMPI PUSH1 0x0 DUP1 REVERT JUMPDEST POP PUSH2 0x1EB PUSH2 0x23A CALLDATASIZE PUSH1 0x4 PUSH2 0xFBE JUMP JUMPDEST PUSH2 0x5C8 JUMP JUMPDEST CALLVALUE DUP1 ISZERO PUSH2 0x24B JUMPI PUSH1 0x0 DUP1 REVERT JUMPDEST POP PUSH2 0x199 PUSH2 0x25A CALLDATASIZE PUSH1 0x4 PUSH2 0xFFA JUMP JUMPDEST PUSH2 0x6A8 JUMP JUMPDEST CALLVALUE DUP1 ISZERO PUSH2 0x26B JUMPI PUSH1 0x0 DUP1 REVERT JUMPDEST POP PUSH2 0x293 PUSH32 0x0 DUP2 JUMP JUMPDEST PUSH1 0x40 MLOAD PUSH1 0xFF SWAP1 SWAP2 AND DUP2 MSTORE PUSH1 0x20 ADD PUSH2 0x1C2 JUMP JUMPDEST CALLVALUE DUP1 ISZERO PUSH2 0x2B1 JUMPI PUSH1 0x0 DUP1 REVERT JUMPDEST POP PUSH2 0x211 PUSH2 0x778 JUMP JUMPDEST CALLVALUE DUP1 ISZERO PUSH2 0x2C6 JUMPI PUSH1 0x0 DUP1 REVERT JUMPDEST POP PUSH1 0x7 SLOAD PUSH2 0x2DA SWAP1 PUSH1 0x1 PUSH1 0x1 PUSH1 0xA0 SHL SUB AND DUP2 JUMP JUMPDEST PUSH1 0x40 MLOAD PUSH1 0x1 PUSH1 0x1 PUSH1 0xA0 SHL SUB SWAP1 SWAP2 AND DUP2 MSTORE PUSH1 0x20 ADD PUSH2 0x1C2 JUMP JUMPDEST CALLVALUE DUP1 ISZERO PUSH2 0x2FE JUMPI PUSH1 0x0 DUP1 REVERT JUMPDEST POP PUSH2 0x199 PUSH2 0x7D3 JUMP JUMPDEST CALLVALUE DUP1 ISZERO PUSH2 0x313 JUMPI PUSH1 0x0 DUP1 REVERT JUMPDEST POP PUSH1 0x8 SLOAD PUSH2 0x2DA SWAP1 PUSH1 0x1 PUSH1 0x1 PUSH1 0xA0 SHL SUB AND DUP2 JUMP JUMPDEST CALLVALUE DUP1 ISZERO PUSH2 0x333 JUMPI PUSH1 0x0 DUP1 REVERT JUMPDEST POP PUSH2 0x211 PUSH2 0x342 CALLDATASIZE PUSH1 0x4 PUSH2 0x1013 JUMP JUMPDEST PUSH1 0x3 PUSH1 0x20 MSTORE PUSH1 0x0 SWAP1 DUP2 MSTORE PUSH1 0x40 SWAP1 KECCAK256 SLOAD DUP2 JUMP JUMPDEST CALLVALUE DUP1 ISZERO PUSH2 0x360 JUMPI PUSH1 0x0 DUP1 REVERT JUMPDEST POP PUSH1 0xB SLOAD PUSH2 0x2DA SWAP1 PUSH1 0x1 PUSH1 0x1 PUSH1 0xA0 SHL SUB AND DUP2 JUMP JUMPDEST CALLVALUE DUP1 ISZERO PUSH2 0x380 JUMPI PUSH1 0x0 DUP1 REVERT JUMPDEST POP PUSH2 0x211 PUSH2 0x38F CALLDATASIZE PUSH1 0x4 PUSH2 0x1013 JUMP JUMPDEST PUSH1 0x5 PUSH1 0x20 MSTORE PUSH1 0x0 SWAP1 DUP2 MSTORE PUSH1 0x40 SWAP1 KECCAK256 SLOAD DUP2 JUMP JUMPDEST CALLVALUE DUP1 ISZERO PUSH2 0x3AD JUMPI PUSH1 0x0 DUP1 REVERT JUMPDEST POP PUSH2 0x1B5 PUSH2 0x897 JUMP JUMPDEST CALLVALUE DUP1 ISZERO PUSH2 0x3C2 JUMPI PUSH1 0x0 DUP1 REVERT JUMPDEST POP PUSH2 0x1EB PUSH2 0x3D1 CALLDATASIZE PUSH1 0x4 PUSH2 0xF94 JUMP JUMPDEST PUSH2 0x8A4 JUMP JUMPDEST CALLVALUE DUP1 ISZERO PUSH2 0x3E2 JUMPI PUSH1 0x0 DUP1 REVERT JUMPDEST POP PUSH2 0x199 PUSH2 0x3F1 CALLDATASIZE PUSH1 0x4 PUSH2 0xFFA JUMP JUMPDEST PUSH2 0x90A JUMP JUMPDEST CALLVALUE DUP1 ISZERO PUSH2 0x402 JUMPI PUSH1 0x0 DUP1 REVERT JUMPDEST POP PUSH2 0x199 PUSH2 0x411 CALLDATASIZE PUSH1 0x4 PUSH2 0x1013 JUMP JUMPDEST PUSH2 0xAB3 JUMP JUMPDEST CALLVALUE DUP1 ISZERO PUSH2 0x422 JUMPI PUSH1 0x0 DUP1 REVERT JUMPDEST POP PUSH2 0x199 PUSH2 0x431 CALLDATASIZE PUSH1 0x4 PUSH2 0x1013 JUMP JUMPDEST PUSH2 0xB1E JUMP JUMPDEST CALLVALUE DUP1 ISZERO PUSH2 0x442 JUMPI PUSH1 0x0 DUP1 REVERT JUMPDEST POP PUSH2 0x199 PUSH2 0x451 CALLDATASIZE PUSH1 0x4 PUSH2 0x1035 JUMP JUMPDEST PUSH2 0xB89 JUMP JUMPDEST CALLVALUE DUP1 ISZERO PUSH2 0x462 JUMPI PUSH1 0x0 DUP1 REVERT JUMPDEST POP PUSH1 0xA SLOAD PUSH2 0x2DA SWAP1 PUSH1 0x1 PUSH1 0x1 PUSH1 0xA0 SHL SUB AND DUP2 JUMP JUMPDEST CALLVALUE DUP1 ISZERO PUSH2 0x482 JUMPI PUSH1 0x0 DUP1 REVERT JUMPDEST POP PUSH2 0x211 PUSH2 0x491 CALLDATASIZE PUSH1 0x4 PUSH2 0x10A8 JUMP JUMPDEST PUSH1 0x4 PUSH1 0x20 SWAP1 DUP2 MSTORE PUSH1 0x0 SWAP3 DUP4 MSTORE PUSH1 0x40 DUP1 DUP5 KECCAK256 SWAP1 SWAP2 MSTORE SWAP1 DUP3 MSTORE SWAP1 KECCAK256 SLOAD DUP2 JUMP JUMPDEST CALLVALUE DUP1 ISZERO PUSH2 0x4BA JUMPI PUSH1 0x0 DUP1 REVERT JUMPDEST POP PUSH1 0x9 SLOAD PUSH2 0x2DA SWAP1 PUSH1 0x1 PUSH1 0x1 PUSH1 0xA0 SHL SUB AND DUP2 JUMP JUMPDEST PUSH1 0x0 DUP1 SLOAD PUSH2 0x4DB SWAP1 PUSH2 0x10DB JUMP JUMPDEST DUP1 PUSH1 0x1F ADD PUSH1 0x20 DUP1 SWAP2 DIV MUL PUSH1 0x20 ADD PUSH1 0x40 MLOAD SWAP1 DUP2 ADD PUSH1 0x40 MSTORE DUP1 SWAP3 SWAP2 SWAP1 DUP2 DUP2 MSTORE PUSH1 0x20 ADD DUP3 DUP1 SLOAD PUSH2 0x507 SWAP1 PUSH2 0x10DB JUMP JUMPDEST DUP1 ISZERO PUSH2 0x554 JUMPI DUP1 PUSH1 0x1F LT PUSH2 0x529 JUMPI PUSH2 0x100 DUP1 DUP4 SLOAD DIV MUL DUP4 MSTORE SWAP2 PUSH1 0x20 ADD SWAP2 PUSH2 0x554 JUMP JUMPDEST DUP3 ADD SWAP2 SWAP1 PUSH1 0x0 MSTORE PUSH1 0x20 PUSH1 0x0 KECCAK256 SWAP1 JUMPDEST DUP2 SLOAD DUP2 MSTORE SWAP1 PUSH1 0x1 ADD SWAP1 PUSH1 0x20 ADD DUP1 DUP4 GT PUSH2 0x537 JUMPI DUP3 SWAP1 SUB PUSH1 0x1F AND DUP3 ADD SWAP2 JUMPDEST POP POP POP POP POP DUP2 JUMP JUMPDEST CALLER PUSH1 0x0 DUP2 DUP2 MSTORE PUSH1 0x4 PUSH1 0x20 SWAP1 DUP2 MSTORE PUSH1 0x40 DUP1 DUP4 KECCAK256 PUSH1 0x1 PUSH1 0x1 PUSH1 0xA0 SHL SUB DUP8 AND DUP1 DUP6 MSTORE SWAP3 MSTORE DUP1 DUP4 KECCAK256 DUP6 SWAP1 SSTORE MLOAD SWAP2 SWAP3 SWAP1 SWAP2 PUSH32 0x8C5BE1E5EBEC7D5BD14F71427D1E84F3DD0314C0F7B2291E5B200AC8C7C3B925 SWAP1 PUSH2 0x5B7 SWAP1 DUP7 DUP2 MSTORE PUSH1 0x20 ADD SWAP1 JUMP JUMPDEST PUSH1 0x40 MLOAD DUP1 SWAP2 SUB SWAP1 LOG3 POP PUSH1 0x1 SWAP3 SWAP2 POP POP JUMP JUMPDEST PUSH1 0x1 PUSH1 0x1 PUSH1 0xA0 SHL SUB DUP4 AND PUSH1 0x0 SWAP1 DUP2 MSTORE PUSH1 0x4 PUSH1 0x20 SWAP1 DUP2 MSTORE PUSH1 0x40 DUP1 DUP4 KECCAK256 CALLER DUP5 MSTORE SWAP1 SWAP2 MSTORE DUP2 KECCAK256 SLOAD PUSH1 0x0 NOT DUP2 EQ PUSH2 0x624 JUMPI PUSH2 0x5FF DUP4 DUP3 PUSH2 0x112B JUMP JUMPDEST PUSH1 0x1 PUSH1 0x1 PUSH1 0xA0 SHL SUB DUP7 AND PUSH1 0x0 SWAP1 DUP2 MSTORE PUSH1 0x4 PUSH1 0x20 SWAP1 DUP2 MSTORE PUSH1 0x40 DUP1 DUP4 KECCAK256 CALLER DUP5 MSTORE SWAP1 SWAP2 MSTORE SWAP1 KECCAK256 SSTORE JUMPDEST PUSH1 0x1 PUSH1 0x1 PUSH1 0xA0 SHL SUB DUP6 AND PUSH1 0x0 SWAP1 DUP2 MSTORE PUSH1 0x3 PUSH1 0x20 MSTORE PUSH1 0x40 DUP2 KECCAK256 DUP1 SLOAD DUP6 SWAP3 SWAP1 PUSH2 0x64C SWAP1 DUP5 SWAP1 PUSH2 0x112B JUMP JUMPDEST SWAP1 SWAP2 SSTORE POP POP PUSH1 0x1 PUSH1 0x1 PUSH1 0xA0 SHL SUB DUP1 DUP6 AND PUSH1 0x0 DUP2 DUP2 MSTORE PUSH1 0x3 PUSH1 0x20 MSTORE PUSH1 0x40 SWAP1 DUP2 SWAP1 KECCAK256 DUP1 SLOAD DUP8 ADD SWAP1 SSTORE MLOAD SWAP1 SWAP2 DUP8 AND SWAP1 PUSH1 0x0 DUP1 MLOAD PUSH1 0x20 PUSH2 0x1268 DUP4 CODECOPY DUP2 MLOAD SWAP2 MSTORE SWAP1 PUSH2 0x695 SWAP1 DUP8 DUP2 MSTORE PUSH1 0x20 ADD SWAP1 JUMP JUMPDEST PUSH1 0x40 MLOAD DUP1 SWAP2 SUB SWAP1 LOG3 POP PUSH1 0x1 SWAP5 SWAP4 POP POP POP POP JUMP JUMPDEST DUP1 PUSH1 0x6 PUSH1 0x0 DUP3 DUP3 SLOAD PUSH2 0x6BA SWAP2 SWAP1 PUSH2 0x112B JUMP JUMPDEST SWAP1 SWAP2 SSTORE POP PUSH2 0x6CA SWAP1 POP CALLER DUP3 PUSH2 0xDCD JUMP JUMPDEST PUSH1 0xA SLOAD PUSH1 0x40 MLOAD PUSH4 0xA9059CBB PUSH1 0xE0 SHL DUP2 MSTORE CALLER PUSH1 0x4 DUP3 ADD MSTORE PUSH1 0x24 DUP2 ADD DUP4 SWAP1 MSTORE PUSH1 0x1 PUSH1 0x1 PUSH1 0xA0 SHL SUB SWAP1 SWAP2 AND SWAP1 PUSH4 0xA9059CBB SWAP1 PUSH1 0x44 ADD PUSH1 0x20 PUSH1 0x40 MLOAD DUP1 DUP4 SUB DUP2 PUSH1 0x0 DUP8 GAS CALL ISZERO DUP1 ISZERO PUSH2 0x71B JUMPI RETURNDATASIZE PUSH1 0x0 DUP1 RETURNDATACOPY RETURNDATASIZE PUSH1 0x0 REVERT JUMPDEST POP POP POP POP PUSH1 0x40 MLOAD RETURNDATASIZE PUSH1 0x1F NOT PUSH1 0x1F DUP3 ADD AND DUP3 ADD DUP1 PUSH1 0x40 MSTORE POP DUP2 ADD SWAP1 PUSH2 0x73F SWAP2 SWAP1 PUSH2 0x1142 JUMP JUMPDEST POP PUSH1 0x40 MLOAD DUP2 DUP2 MSTORE CALLER SWAP1 PUSH32 0x7FCF532C15F0A6DB0BD6D0E038BEA71D30D808C7D98CB3BF7268A95BF5081B65 SWAP1 PUSH1 0x20 ADD PUSH1 0x40 MLOAD DUP1 SWAP2 SUB SWAP1 LOG2 POP JUMP JUMPDEST PUSH1 0x0 PUSH32 0x0 CHAINID EQ PUSH2 0x7AE JUMPI PUSH2 0x7A9 PUSH2 0xE37 JUMP JUMPDEST SWAP1 POP SWAP1 JUMP JUMPDEST POP PUSH32 0x0 SWAP1 JUMP JUMPDEST PUSH1 0x0 PUSH1 0x6 SLOAD PUSH1 0x2 SLOAD PUSH2 0x7E5 SWAP2 SWAP1 PUSH2 0x112B JUMP JUMPDEST PUSH1 0xA SLOAD PUSH1 0x8 SLOAD PUSH1 0x40 MLOAD PUSH4 0xA9059CBB PUSH1 0xE0 SHL DUP2 MSTORE PUSH1 0x1 PUSH1 0x1 PUSH1 0xA0 SHL SUB SWAP2 DUP3 AND PUSH1 0x4 DUP3 ADD MSTORE PUSH1 0x24 DUP2 ADD DUP5 SWAP1 MSTORE SWAP3 SWAP4 POP AND SWAP1 PUSH4 0xA9059CBB SWAP1 PUSH1 0x44 ADD PUSH1 0x20 PUSH1 0x40 MLOAD DUP1 DUP4 SUB DUP2 PUSH1 0x0 DUP8 GAS CALL ISZERO DUP1 ISZERO PUSH2 0x83C JUMPI RETURNDATASIZE PUSH1 0x0 DUP1 RETURNDATACOPY RETURNDATASIZE PUSH1 0x0 REVERT JUMPDEST POP POP POP POP PUSH1 0x40 MLOAD RETURNDATASIZE PUSH1 0x1F NOT PUSH1 0x1F DUP3 ADD AND DUP3 ADD DUP1 PUSH1 0x40 MSTORE POP DUP2 ADD SWAP1 PUSH2 0x860 SWAP2 SWAP1 PUSH2 0x1142 JUMP JUMPDEST POP PUSH1 0x40 MLOAD DUP2 DUP2 MSTORE PUSH32 0x7A355715549CFE7C1CBA26304350343FBDDC4B4F72D3CE3E7C27117DD20B5CB8 SWAP1 PUSH1 0x20 ADD PUSH1 0x40 MLOAD DUP1 SWAP2 SUB SWAP1 LOG1 POP JUMP JUMPDEST PUSH1 0x1 DUP1 SLOAD PUSH2 0x4DB SWAP1 PUSH2 0x10DB JUMP JUMPDEST CALLER PUSH1 0x0 SWAP1 DUP2 MSTORE PUSH1 0x3 PUSH1 0x20 MSTORE PUSH1 0x40 DUP2 KECCAK256 DUP1 SLOAD DUP4 SWAP2 SWAP1 DUP4 SWAP1 PUSH2 0x8C5 SWAP1 DUP5 SWAP1 PUSH2 0x112B JUMP JUMPDEST SWAP1 SWAP2 SSTORE POP POP PUSH1 0x1 PUSH1 0x1 PUSH1 0xA0 SHL SUB DUP4 AND PUSH1 0x0 DUP2 DUP2 MSTORE PUSH1 0x3 PUSH1 0x20 MSTORE PUSH1 0x40 SWAP1 DUP2 SWAP1 KECCAK256 DUP1 SLOAD DUP6 ADD SWAP1 SSTORE MLOAD CALLER SWAP1 PUSH1 0x0 DUP1 MLOAD PUSH1 0x20 PUSH2 0x1268 DUP4 CODECOPY DUP2 MLOAD SWAP2 MSTORE SWAP1 PUSH2 0x5B7 SWAP1 DUP7 DUP2 MSTORE PUSH1 0x20 ADD SWAP1 JUMP JUMPDEST PUSH1 0xB SLOAD PUSH1 0x9 SLOAD PUSH1 0x40 MLOAD PUSH4 0xC44B11F7 PUSH1 0xE0 SHL DUP2 MSTORE PUSH1 0x1 PUSH1 0x1 PUSH1 0xA0 SHL SUB SWAP2 DUP3 AND PUSH1 0x4 DUP3 ADD MSTORE PUSH1 0x0 SWAP3 SWAP2 SWAP1 SWAP2 AND SWAP1 PUSH4 0xC44B11F7 SWAP1 PUSH1 0x24 ADD PUSH1 0x20 PUSH1 0x40 MLOAD DUP1 DUP4 SUB DUP2 DUP7 GAS STATICCALL ISZERO DUP1 ISZERO PUSH2 0x95B JUMPI RETURNDATASIZE PUSH1 0x0 DUP1 RETURNDATACOPY RETURNDATASIZE PUSH1 0x0 REVERT JUMPDEST POP POP POP POP PUSH1 0x40 MLOAD RETURNDATASIZE PUSH1 0x1F NOT PUSH1 0x1F DUP3 ADD AND DUP3 ADD DUP1 PUSH1 0x40 MSTORE POP DUP2 ADD SWAP1 PUSH2 0x97F SWAP2 SWAP1 PUSH2 0x1164 JUMP JUMPDEST DUP1 MLOAD SWAP1 SWAP2 POP PUSH8 0x100000000000000 AND PUSH1 0x0 SUB PUSH2 0x9DD JUMPI PUSH1 0x40 MLOAD PUSH3 0x461BCD PUSH1 0xE5 SHL DUP2 MSTORE PUSH1 0x20 PUSH1 0x4 DUP3 ADD MSTORE PUSH1 0x1E PUSH1 0x24 DUP3 ADD MSTORE PUSH32 0x556E6465726C79696E67204173736574206973206E6F74206163746976650000 PUSH1 0x44 DUP3 ADD MSTORE PUSH1 0x64 ADD PUSH2 0x190 JUMP JUMPDEST PUSH1 0xA SLOAD PUSH1 0x40 MLOAD PUSH4 0x23B872DD PUSH1 0xE0 SHL DUP2 MSTORE CALLER PUSH1 0x4 DUP3 ADD MSTORE ADDRESS PUSH1 0x24 DUP3 ADD MSTORE PUSH1 0x44 DUP2 ADD DUP5 SWAP1 MSTORE PUSH1 0x1 PUSH1 0x1 PUSH1 0xA0 SHL SUB SWAP1 SWAP2 AND SWAP1 PUSH4 0x23B872DD SWAP1 PUSH1 0x64 ADD PUSH1 0x20 PUSH1 0x40 MLOAD DUP1 DUP4 SUB DUP2 PUSH1 0x0 DUP8 GAS CALL ISZERO DUP1 ISZERO PUSH2 0xA34 JUMPI RETURNDATASIZE PUSH1 0x0 DUP1 RETURNDATACOPY RETURNDATASIZE PUSH1 0x0 REVERT JUMPDEST POP POP POP POP PUSH1 0x40 MLOAD RETURNDATASIZE PUSH1 0x1F NOT PUSH1 0x1F DUP3 ADD AND DUP3 ADD DUP1 PUSH1 0x40 MSTORE POP DUP2 ADD SWAP1 PUSH2 0xA58 SWAP2 SWAP1 PUSH2 0x1142 JUMP JUMPDEST POP PUSH2 0xA63 CALLER DUP4 PUSH2 0xED1 JUMP JUMPDEST DUP2 PUSH1 0x6 PUSH1 0x0 DUP3 DUP3 SLOAD PUSH2 0xA75 SWAP2 SWAP1 PUSH2 0x11B4 JUMP JUMPDEST SWAP1 SWAP2 SSTORE POP POP PUSH1 0x40 MLOAD DUP3 DUP2 MSTORE CALLER SWAP1 PUSH32 0xE1FFFCC4923D04B559F4D29A8BFC6CDA04EB5B0D3C460751C2402C5C5CC9109C SWAP1 PUSH1 0x20 ADD PUSH1 0x40 MLOAD DUP1 SWAP2 SUB SWAP1 LOG2 POP POP JUMP JUMPDEST PUSH1 0x7 SLOAD PUSH1 0x1 PUSH1 0x1 PUSH1 0xA0 SHL SUB AND CALLER EQ PUSH2 0xAFC JUMPI PUSH1 0x40 MLOAD PUSH3 0x461BCD PUSH1 0xE5 SHL DUP2 MSTORE PUSH1 0x20 PUSH1 0x4 DUP3 ADD MSTORE PUSH1 0xC PUSH1 0x24 DUP3 ADD MSTORE PUSH12 0x15539055551213D492569151 PUSH1 0xA2 SHL PUSH1 0x44 DUP3 ADD MSTORE PUSH1 0x64 ADD PUSH2 0x190 JUMP JUMPDEST PUSH1 0x8 DUP1 SLOAD PUSH1 0x1 PUSH1 0x1 PUSH1 0xA0 SHL SUB NOT AND PUSH1 0x1 PUSH1 0x1 PUSH1 0xA0 SHL SUB SWAP3 SWAP1 SWAP3 AND SWAP2 SWAP1 SWAP2 OR SWAP1 SSTORE JUMP JUMPDEST PUSH1 0x7 SLOAD PUSH1 0x1 PUSH1 0x1 PUSH1 0xA0 SHL SUB AND CALLER EQ PUSH2 0xB67 JUMPI PUSH1 0x40 MLOAD PUSH3 0x461BCD PUSH1 0xE5 SHL DUP2 MSTORE PUSH1 0x20 PUSH1 0x4 DUP3 ADD MSTORE PUSH1 0xC PUSH1 0x24 DUP3 ADD MSTORE PUSH12 0x15539055551213D492569151 PUSH1 0xA2 SHL PUSH1 0x44 DUP3 ADD MSTORE PUSH1 0x64 ADD PUSH2 0x190 JUMP JUMPDEST PUSH1 0x7 DUP1 SLOAD PUSH1 0x1 PUSH1 0x1 PUSH1 0xA0 SHL SUB NOT AND PUSH1 0x1 PUSH1 0x1 PUSH1 0xA0 SHL SUB SWAP3 SWAP1 SWAP3 AND SWAP2 SWAP1 SWAP2 OR SWAP1 SSTORE JUMP JUMPDEST TIMESTAMP DUP5 LT ISZERO PUSH2 0xBD9 JUMPI PUSH1 0x40 MLOAD PUSH3 0x461BCD PUSH1 0xE5 SHL DUP2 MSTORE PUSH1 0x20 PUSH1 0x4 DUP3 ADD MSTORE PUSH1 0x17 PUSH1 0x24 DUP3 ADD MSTORE PUSH32 0x5045524D49545F444541444C494E455F45585049524544000000000000000000 PUSH1 0x44 DUP3 ADD MSTORE PUSH1 0x64 ADD PUSH2 0x190 JUMP JUMPDEST PUSH1 0x0 PUSH1 0x1 PUSH2 0xBE5 PUSH2 0x778 JUMP JUMPDEST PUSH1 0x1 PUSH1 0x1 PUSH1 0xA0 SHL SUB DUP11 DUP2 AND PUSH1 0x0 DUP2 DUP2 MSTORE PUSH1 0x5 PUSH1 0x20 SWAP1 DUP2 MSTORE PUSH1 0x40 SWAP2 DUP3 SWAP1 KECCAK256 DUP1 SLOAD PUSH1 0x1 DUP2 ADD SWAP1 SWAP2 SSTORE DUP3 MLOAD PUSH32 0x6E71EDAE12B1B97F4D1F60370FEF10105FA2FAAE0126114A169C64845D6126C9 DUP2 DUP5 ADD MSTORE DUP1 DUP5 ADD SWAP5 SWAP1 SWAP5 MSTORE SWAP4 DUP14 AND PUSH1 0x60 DUP5 ADD MSTORE PUSH1 0x80 DUP4 ADD DUP13 SWAP1 MSTORE PUSH1 0xA0 DUP4 ADD SWAP4 SWAP1 SWAP4 MSTORE PUSH1 0xC0 DUP1 DUP4 ADD DUP12 SWAP1 MSTORE DUP2 MLOAD DUP1 DUP5 SUB SWAP1 SWAP2 ADD DUP2 MSTORE PUSH1 0xE0 DUP4 ADD SWAP1 SWAP2 MSTORE DUP1 MLOAD SWAP3 ADD SWAP2 SWAP1 SWAP2 KECCAK256 PUSH2 0x1901 PUSH1 0xF0 SHL PUSH2 0x100 DUP4 ADD MSTORE PUSH2 0x102 DUP3 ADD SWAP3 SWAP1 SWAP3 MSTORE PUSH2 0x122 DUP2 ADD SWAP2 SWAP1 SWAP2 MSTORE PUSH2 0x142 ADD PUSH1 0x40 DUP1 MLOAD PUSH1 0x1F NOT DUP2 DUP5 SUB ADD DUP2 MSTORE DUP3 DUP3 MSTORE DUP1 MLOAD PUSH1 0x20 SWAP2 DUP3 ADD KECCAK256 PUSH1 0x0 DUP5 MSTORE SWAP1 DUP4 ADD DUP1 DUP4 MSTORE MSTORE PUSH1 0xFF DUP8 AND SWAP1 DUP3 ADD MSTORE PUSH1 0x60 DUP2 ADD DUP6 SWAP1 MSTORE PUSH1 0x80 DUP2 ADD DUP5 SWAP1 MSTORE PUSH1 0xA0 ADD PUSH1 0x20 PUSH1 0x40 MLOAD PUSH1 0x20 DUP2 SUB SWAP1 DUP1 DUP5 SUB SWAP1 DUP6 GAS STATICCALL ISZERO DUP1 ISZERO PUSH2 0xCF1 JUMPI RETURNDATASIZE PUSH1 0x0 DUP1 RETURNDATACOPY RETURNDATASIZE PUSH1 0x0 REVERT JUMPDEST POP POP PUSH1 0x40 MLOAD PUSH1 0x1F NOT ADD MLOAD SWAP2 POP POP PUSH1 0x1 PUSH1 0x1 PUSH1 0xA0 SHL SUB DUP2 AND ISZERO DUP1 ISZERO SWAP1 PUSH2 0xD27 JUMPI POP DUP8 PUSH1 0x1 PUSH1 0x1 PUSH1 0xA0 SHL SUB AND DUP2 PUSH1 0x1 PUSH1 0x1 PUSH1 0xA0 SHL SUB AND EQ JUMPDEST PUSH2 0xD64 JUMPI PUSH1 0x40 MLOAD PUSH3 0x461BCD PUSH1 0xE5 SHL DUP2 MSTORE PUSH1 0x20 PUSH1 0x4 DUP3 ADD MSTORE PUSH1 0xE PUSH1 0x24 DUP3 ADD MSTORE PUSH14 0x24A72B20A624A22FA9A4A3A722A9 PUSH1 0x91 SHL PUSH1 0x44 DUP3 ADD MSTORE PUSH1 0x64 ADD PUSH2 0x190 JUMP JUMPDEST PUSH1 0x1 PUSH1 0x1 PUSH1 0xA0 SHL SUB SWAP1 DUP2 AND PUSH1 0x0 SWAP1 DUP2 MSTORE PUSH1 0x4 PUSH1 0x20 SWAP1 DUP2 MSTORE PUSH1 0x40 DUP1 DUP4 KECCAK256 DUP11 DUP6 AND DUP1 DUP6 MSTORE SWAP1 DUP4 MSTORE SWAP3 DUP2 SWAP1 KECCAK256 DUP10 SWAP1 SSTORE MLOAD DUP9 DUP2 MSTORE SWAP2 SWAP3 DUP11 AND SWAP2 PUSH32 0x8C5BE1E5EBEC7D5BD14F71427D1E84F3DD0314C0F7B2291E5B200AC8C7C3B925 SWAP2 ADD PUSH1 0x40 MLOAD DUP1 SWAP2 SUB SWAP1 LOG3 POP POP POP POP POP POP POP JUMP JUMPDEST PUSH1 0x1 PUSH1 0x1 PUSH1 0xA0 SHL SUB DUP3 AND PUSH1 0x0 SWAP1 DUP2 MSTORE PUSH1 0x3 PUSH1 0x20 MSTORE PUSH1 0x40 DUP2 KECCAK256 DUP1 SLOAD DUP4 SWAP3 SWAP1 PUSH2 0xDF5 SWAP1 DUP5 SWAP1 PUSH2 0x112B JUMP JUMPDEST SWAP1 SWAP2 SSTORE POP POP PUSH1 0x2 DUP1 SLOAD DUP3 SWAP1 SUB SWAP1 SSTORE PUSH1 0x40 MLOAD DUP2 DUP2 MSTORE PUSH1 0x0 SWAP1 PUSH1 0x1 PUSH1 0x1 PUSH1 0xA0 SHL SUB DUP5 AND SWAP1 PUSH1 0x0 DUP1 MLOAD PUSH1 0x20 PUSH2 0x1268 DUP4 CODECOPY DUP2 MLOAD SWAP2 MSTORE SWAP1 PUSH1 0x20 ADD JUMPDEST PUSH1 0x40 MLOAD DUP1 SWAP2 SUB SWAP1 LOG3 POP POP JUMP JUMPDEST PUSH1 0x0 PUSH32 0x8B73C3C69BB8FE3D512ECC4CF759CC79239F7B179B0FFACAA9A75D522B39400F PUSH1 0x0 PUSH1 0x40 MLOAD PUSH2 0xE69 SWAP2 SWAP1 PUSH2 0x11CC JUMP JUMPDEST PUSH1 0x40 DUP1 MLOAD SWAP2 DUP3 SWAP1 SUB DUP3 KECCAK256 PUSH1 0x20 DUP4 ADD SWAP4 SWAP1 SWAP4 MSTORE DUP2 ADD SWAP2 SWAP1 SWAP2 MSTORE PUSH32 0xC89EFDAA54C0F20C7ADF612882DF0950F5A951637E0307CDCB4C672F298B8BC6 PUSH1 0x60 DUP3 ADD MSTORE CHAINID PUSH1 0x80 DUP3 ADD MSTORE ADDRESS PUSH1 0xA0 DUP3 ADD MSTORE PUSH1 0xC0 ADD PUSH1 0x40 MLOAD PUSH1 0x20 DUP2 DUP4 SUB SUB DUP2 MSTORE SWAP1 PUSH1 0x40 MSTORE DUP1 MLOAD SWAP1 PUSH1 0x20 ADD KECCAK256 SWAP1 POP SWAP1 JUMP JUMPDEST DUP1 PUSH1 0x2 PUSH1 0x0 DUP3 DUP3 SLOAD PUSH2 0xEE3 SWAP2 SWAP1 PUSH2 0x11B4 JUMP JUMPDEST SWAP1 SWAP2 SSTORE POP POP PUSH1 0x1 PUSH1 0x1 PUSH1 0xA0 SHL SUB DUP3 AND PUSH1 0x0 DUP2 DUP2 MSTORE PUSH1 0x3 PUSH1 0x20 SWAP1 DUP2 MSTORE PUSH1 0x40 DUP1 DUP4 KECCAK256 DUP1 SLOAD DUP7 ADD SWAP1 SSTORE MLOAD DUP5 DUP2 MSTORE PUSH1 0x0 DUP1 MLOAD PUSH1 0x20 PUSH2 0x1268 DUP4 CODECOPY DUP2 MLOAD SWAP2 MSTORE SWAP2 ADD PUSH2 0xE2B JUMP JUMPDEST PUSH1 0x0 PUSH1 0x20 DUP1 DUP4 MSTORE DUP4 MLOAD DUP1 DUP3 DUP6 ADD MSTORE PUSH1 0x0 JUMPDEST DUP2 DUP2 LT ISZERO PUSH2 0xF50 JUMPI DUP6 DUP2 ADD DUP4 ADD MLOAD DUP6 DUP3 ADD PUSH1 0x40 ADD MSTORE DUP3 ADD PUSH2 0xF34 JUMP JUMPDEST DUP2 DUP2 GT ISZERO PUSH2 0xF62 JUMPI PUSH1 0x0 PUSH1 0x40 DUP4 DUP8 ADD ADD MSTORE JUMPDEST POP PUSH1 0x1F ADD PUSH1 0x1F NOT AND SWAP3 SWAP1 SWAP3 ADD PUSH1 0x40 ADD SWAP4 SWAP3 POP POP POP JUMP JUMPDEST DUP1 CALLDATALOAD PUSH1 0x1 PUSH1 0x1 PUSH1 0xA0 SHL SUB DUP2 AND DUP2 EQ PUSH2 0xF8F JUMPI PUSH1 0x0 DUP1 REVERT JUMPDEST SWAP2 SWAP1 POP JUMP JUMPDEST PUSH1 0x0 DUP1 PUSH1 0x40 DUP4 DUP6 SUB SLT ISZERO PUSH2 0xFA7 JUMPI PUSH1 0x0 DUP1 REVERT JUMPDEST PUSH2 0xFB0 DUP4 PUSH2 0xF78 JUMP JUMPDEST SWAP5 PUSH1 0x20 SWAP4 SWAP1 SWAP4 ADD CALLDATALOAD SWAP4 POP POP POP JUMP JUMPDEST PUSH1 0x0 DUP1 PUSH1 0x0 PUSH1 0x60 DUP5 DUP7 SUB SLT ISZERO PUSH2 0xFD3 JUMPI PUSH1 0x0 DUP1 REVERT JUMPDEST PUSH2 0xFDC DUP5 PUSH2 0xF78 JUMP JUMPDEST SWAP3 POP PUSH2 0xFEA PUSH1 0x20 DUP6 ADD PUSH2 0xF78 JUMP JUMPDEST SWAP2 POP PUSH1 0x40 DUP5 ADD CALLDATALOAD SWAP1 POP SWAP3 POP SWAP3 POP SWAP3 JUMP JUMPDEST PUSH1 0x0 PUSH1 0x20 DUP3 DUP5 SUB SLT ISZERO PUSH2 0x100C JUMPI PUSH1 0x0 DUP1 REVERT JUMPDEST POP CALLDATALOAD SWAP2 SWAP1 POP JUMP JUMPDEST PUSH1 0x0 PUSH1 0x20 DUP3 DUP5 SUB SLT ISZERO PUSH2 0x1025 JUMPI PUSH1 0x0 DUP1 REVERT JUMPDEST PUSH2 0x102E DUP3 PUSH2 0xF78 JUMP JUMPDEST SWAP4 SWAP3 POP POP POP JUMP JUMPDEST PUSH1 0x0 DUP1 PUSH1 0x0 DUP1 PUSH1 0x0 DUP1 PUSH1 0x0 PUSH1 0xE0 DUP9 DUP11 SUB SLT ISZERO PUSH2 0x1050 JUMPI PUSH1 0x0 DUP1 REVERT JUMPDEST PUSH2 0x1059 DUP9 PUSH2 0xF78 JUMP JUMPDEST SWAP7 POP PUSH2 0x1067 PUSH1 0x20 DUP10 ADD PUSH2 0xF78 JUMP JUMPDEST SWAP6 POP PUSH1 0x40 DUP9 ADD CALLDATALOAD SWAP5 POP PUSH1 0x60 DUP9 ADD CALLDATALOAD SWAP4 POP PUSH1 0x80 DUP9 ADD CALLDATALOAD PUSH1 0xFF DUP2 AND DUP2 EQ PUSH2 0x108B JUMPI PUSH1 0x0 DUP1 REVERT JUMPDEST SWAP7 SWAP10 SWAP6 SWAP9 POP SWAP4 SWAP7 SWAP3 SWAP6 SWAP5 PUSH1 0xA0 DUP5 ADD CALLDATALOAD SWAP5 POP PUSH1 0xC0 SWAP1 SWAP4 ADD CALLDATALOAD SWAP3 SWAP2 POP POP JUMP JUMPDEST PUSH1 0x0 DUP1 PUSH1 0x40 DUP4 DUP6 SUB SLT ISZERO PUSH2 0x10BB JUMPI PUSH1 0x0 DUP1 REVERT JUMPDEST PUSH2 0x10C4 DUP4 PUSH2 0xF78 JUMP JUMPDEST SWAP2 POP PUSH2 0x10D2 PUSH1 0x20 DUP5 ADD PUSH2 0xF78 JUMP JUMPDEST SWAP1 POP SWAP3 POP SWAP3 SWAP1 POP JUMP JUMPDEST PUSH1 0x1 DUP2 DUP2 SHR SWAP1 DUP3 AND DUP1 PUSH2 0x10EF JUMPI PUSH1 0x7F DUP3 AND SWAP2 POP JUMPDEST PUSH1 0x20 DUP3 LT DUP2 SUB PUSH2 0x110F JUMPI PUSH4 0x4E487B71 PUSH1 0xE0 SHL PUSH1 0x0 MSTORE PUSH1 0x22 PUSH1 0x4 MSTORE PUSH1 0x24 PUSH1 0x0 REVERT JUMPDEST POP SWAP2 SWAP1 POP JUMP JUMPDEST PUSH4 0x4E487B71 PUSH1 0xE0 SHL PUSH1 0x0 MSTORE PUSH1 0x11 PUSH1 0x4 MSTORE PUSH1 0x24 PUSH1 0x0 REVERT JUMPDEST PUSH1 0x0 DUP3 DUP3 LT ISZERO PUSH2 0x113D JUMPI PUSH2 0x113D PUSH2 0x1115 JUMP JUMPDEST POP SUB SWAP1 JUMP JUMPDEST PUSH1 0x0 PUSH1 0x20 DUP3 DUP5 SUB SLT ISZERO PUSH2 0x1154 JUMPI PUSH1 0x0 DUP1 REVERT JUMPDEST DUP2 MLOAD DUP1 ISZERO ISZERO DUP2 EQ PUSH2 0x102E JUMPI PUSH1 0x0 DUP1 REVERT JUMPDEST PUSH1 0x0 PUSH1 0x20 DUP3 DUP5 SUB SLT ISZERO PUSH2 0x1176 JUMPI PUSH1 0x0 DUP1 REVERT JUMPDEST PUSH1 0x40 MLOAD PUSH1 0x20 DUP2 ADD DUP2 DUP2 LT PUSH8 0xFFFFFFFFFFFFFFFF DUP3 GT OR ISZERO PUSH2 0x11A7 JUMPI PUSH4 0x4E487B71 PUSH1 0xE0 SHL PUSH1 0x0 MSTORE PUSH1 0x41 PUSH1 0x4 MSTORE PUSH1 0x24 PUSH1 0x0 REVERT JUMPDEST PUSH1 0x40 MSTORE SWAP2 MLOAD DUP3 MSTORE POP SWAP2 SWAP1 POP JUMP JUMPDEST PUSH1 0x0 DUP3 NOT DUP3 GT ISZERO PUSH2 0x11C7 JUMPI PUSH2 0x11C7 PUSH2 0x1115 JUMP JUMPDEST POP ADD SWAP1 JUMP JUMPDEST PUSH1 0x0 DUP1 DUP4 SLOAD DUP2 PUSH1 0x1 DUP3 DUP2 SHR SWAP2 POP DUP1 DUP4 AND DUP1 PUSH2 0x11E8 JUMPI PUSH1 0x7F DUP4 AND SWAP3 POP JUMPDEST PUSH1 0x20 DUP1 DUP5 LT DUP3 SUB PUSH2 0x1207 JUMPI PUSH4 0x4E487B71 PUSH1 0xE0 SHL DUP7 MSTORE PUSH1 0x22 PUSH1 0x4 MSTORE PUSH1 0x24 DUP7 REVERT JUMPDEST DUP2 DUP1 ISZERO PUSH2 0x121B JUMPI PUSH1 0x1 DUP2 EQ PUSH2 0x122C JUMPI PUSH2 0x1259 JUMP JUMPDEST PUSH1 0xFF NOT DUP7 AND DUP10 MSTORE DUP5 DUP10 ADD SWAP7 POP PUSH2 0x1259 JUMP JUMPDEST PUSH1 0x0 DUP11 DUP2 MSTORE PUSH1 0x20 SWAP1 KECCAK256 PUSH1 0x0 JUMPDEST DUP7 DUP2 LT ISZERO PUSH2 0x1251 JUMPI DUP2 SLOAD DUP12 DUP3 ADD MSTORE SWAP1 DUP6 ADD SWAP1 DUP4 ADD PUSH2 0x1238 JUMP JUMPDEST POP POP DUP5 DUP10 ADD SWAP7 POP JUMPDEST POP SWAP5 SWAP9 SWAP8 POP POP POP POP POP POP POP POP JUMP INVALID 0xDD CALLCODE MSTORE 0xAD SHL 0xE2 0xC8 SWAP12 PUSH10 0xC2B068FC378DAA952BA7 CALL PUSH4 0xC4A11628 CREATE2 GAS 0x4D CREATE2 0x23 0xB3 0xEF LOG2 PUSH5 0x6970667358 0x22 SLT KECCAK256 COINBASE PUSH15 0xB4FC8458D97E53ACC0C611C6F099E1 DUP7 PUSH20 0x4D0A93D6D033DAF58E948F43AE64736F6C634300 ADDMOD 0xE STOP CALLER "
				},
				"gasEstimates": {
					"creation": {
						"codeDepositCost": "959400",
						"executionCost": "infinite",
						"totalCost": "infinite"
					},
					"external": {
						"DOMAIN_SEPARATOR()": "infinite",
						"POOL()": "2360",
						"allowance(address,address)": "infinite",
						"approve(address,uint256)": "24545",
						"balanceOf(address)": "2652",
						"claim()": "infinite",
						"decimals()": "infinite",
						"deposit(uint256)": "infinite",
						"interestCollector()": "2448",
						"manager()": "2404",
						"name()": "infinite",
						"nonces(address)": "2564",
						"permit(address,address,uint256,uint256,uint8,bytes32,bytes32)": "infinite",
						"reserveAsset()": "2469",
						"setInterestCollector(address)": "26733",
						"setManager(address)": "26755",
						"symbol()": "infinite",
						"totalSupply()": "2363",
						"transfer(address,uint256)": "infinite",
						"transferFrom(address,address,uint256)": "infinite",
						"underlyingAgToken()": "2425",
						"withdraw(uint256)": "infinite"
					}
				},
				"methodIdentifiers": {
					"DOMAIN_SEPARATOR()": "3644e515",
					"POOL()": "7535d246",
					"allowance(address,address)": "dd62ed3e",
					"approve(address,uint256)": "095ea7b3",
					"balanceOf(address)": "70a08231",
					"claim()": "4e71d92d",
					"decimals()": "313ce567",
					"deposit(uint256)": "b6b55f25",
					"interestCollector()": "6b6bd8d9",
					"manager()": "481c6a75",
					"name()": "06fdde03",
					"nonces(address)": "7ecebe00",
					"permit(address,address,uint256,uint256,uint8,bytes32,bytes32)": "d505accf",
					"reserveAsset()": "f85cb5c8",
					"setInterestCollector(address)": "bcaaf576",
					"setManager(address)": "d0ebdbe7",
					"symbol()": "95d89b41",
					"totalSupply()": "18160ddd",
					"transfer(address,uint256)": "a9059cbb",
					"transferFrom(address,address,uint256)": "23b872dd",
					"underlyingAgToken()": "d859562c",
					"withdraw(uint256)": "2e1a7d4d"
				}
			},
			"storageLayout": {
				"storage": [
					{
						"astId": 20,
						"contract": "src/contracts/WrappedAgToken.sol:WrappedAgToken",
						"label": "name",
						"offset": 0,
						"slot": "0",
						"type": "t_string_storage"
					},
					{
						"astId": 22,
						"contract": "src/contracts/WrappedAgToken.sol:WrappedAgToken",
						"label": "symbol",
						"offset": 0,
						"slot": "1",
						"type": "t_string_storage"
					},
					{
						"astId": 26,
						"contract": "src/contracts/WrappedAgToken.sol:WrappedAgToken",
						"label": "totalSupply",
						"offset": 0,
						"slot": "2",
						"type": "t_uint256"
					},
					{
						"astId": 30,
						"contract": "src/contracts/WrappedAgToken.sol:WrappedAgToken",
						"label": "balanceOf",
						"offset": 0,
						"slot": "3",
						"type": "t_mapping(t_address,t_uint256)"
					},
					{
						"astId": 36,
						"contract": "src/contracts/WrappedAgToken.sol:WrappedAgToken",
						"label": "allowance",
						"offset": 0,
						"slot": "4",
						"type": "t_mapping(t_address,t_mapping(t_address,t_uint256))"
					},
					{
						"astId": 44,
						"contract": "src/contracts/WrappedAgToken.sol:WrappedAgToken",
						"label": "nonces",
						"offset": 0,
						"slot": "5",
						"type": "t_mapping(t_address,t_uint256)"
					},
					{
						"astId": 422,
						"contract": "src/contracts/WrappedAgToken.sol:WrappedAgToken",
						"label": "userDeposits",
						"offset": 0,
						"slot": "6",
						"type": "t_uint256"
					},
					{
						"astId": 424,
						"contract": "src/contracts/WrappedAgToken.sol:WrappedAgToken",
						"label": "manager",
						"offset": 0,
						"slot": "7",
						"type": "t_address"
					},
					{
						"astId": 426,
						"contract": "src/contracts/WrappedAgToken.sol:WrappedAgToken",
						"label": "interestCollector",
						"offset": 0,
						"slot": "8",
						"type": "t_address"
					},
					{
						"astId": 428,
						"contract": "src/contracts/WrappedAgToken.sol:WrappedAgToken",
						"label": "reserveAsset",
						"offset": 0,
						"slot": "9",
						"type": "t_address"
					},
					{
						"astId": 431,
						"contract": "src/contracts/WrappedAgToken.sol:WrappedAgToken",
						"label": "underlyingAgToken",
						"offset": 0,
						"slot": "10",
						"type": "t_contract(IAgToken)745"
					},
					{
						"astId": 434,
						"contract": "src/contracts/WrappedAgToken.sol:WrappedAgToken",
						"label": "POOL",
						"offset": 0,
						"slot": "11",
						"type": "t_contract(ILendingPool)1201"
					}
				],
				"types": {
					"t_address": {
						"encoding": "inplace",
						"label": "address",
						"numberOfBytes": "20"
					},
					"t_contract(IAgToken)745": {
						"encoding": "inplace",
						"label": "contract IAgToken",
						"numberOfBytes": "20"
					},
					"t_contract(ILendingPool)1201": {
						"encoding": "inplace",
						"label": "contract ILendingPool",
						"numberOfBytes": "20"
					},
					"t_mapping(t_address,t_mapping(t_address,t_uint256))": {
						"encoding": "mapping",
						"key": "t_address",
						"label": "mapping(address => mapping(address => uint256))",
						"numberOfBytes": "32",
						"value": "t_mapping(t_address,t_uint256)"
					},
					"t_mapping(t_address,t_uint256)": {
						"encoding": "mapping",
						"key": "t_address",
						"label": "mapping(address => uint256)",
						"numberOfBytes": "32",
						"value": "t_uint256"
					},
					"t_string_storage": {
						"encoding": "bytes",
						"label": "string",
						"numberOfBytes": "32"
					},
					"t_uint256": {
						"encoding": "inplace",
						"label": "uint256",
						"numberOfBytes": "32"
					}
				}
			},
			"userdoc": {
				"kind": "user",
				"methods": {},
				"notice": "Wrapped AgToken (ERC-20) implementation.",
				"version": 1
			}
		}
	}
}